:10000000008000204D580000355800003558000091
:1000100000000000000000000000000000000000E0
:100020000000000000000000000000003558000043
:10003000000000000000000035580000A15800003A
:100040003558000035580000FD520000DD4E00001C
:10005000F95C0000355800003558000039580000A0
:1000600035580000754600003558000085570000DF
:10007000355800003558000075570000355800000D
:100080003558000035580000811700007117000036
:1000900000000000355800003558000035580000B9
:1000A000355800003558000035580000355800001C
:1000B0000000000010B5064C2378002B07D1054B3B
:1000C000002B02D0044800E000BF0123237010BDC4
:1000D000900100200000000024F4000008B5084B47
:1000E000002B03D00748084900E000BF0748036819
:1000F000002B03D0064B002B00D0984708BDC0460C
:100100000000000024F40000940100208801002079
:100110000000000010B5041C0C3006F01BFF201C72
:1001200010BD08B50368C9B21B68984708BD38B54B
:10013000041C0D1C0178406804F03EF96068E9B2C7
:1001400003681B6898476068002104F0C1F92178B2
:100150000222606804F092F9606803685B6998475E
:1001600005026068ADB203685B699847C0B2284376
:1001700038BD000010B5A4B0041C0A1C04A807492F
:100180000BF0BAFE04A9221C68460BF0B5FE6946C6
:10019000034806F095F824B010BDC04605E1000004
:1001A000242A002008B50020011C05F03BFF08BDF3
:1001B00008B50020012105F035FF08BD08B51F2056
:1001C000012105F02FFF08BD034B00221A61DA7BE5
:1001D00052B2002AFBDB704700300042034B04217F
:1001E0001A690A431A6130BF7047C04600ED00E04B
:1001F00038B5114CF421201C04F0E8FBFC23021C50
:100200001A400132D2B2F421201C04F0C9FB0A20AA
:1002100005F08CFB201C04F02BFE084D2861201CEF
:1002200004F0F6FC064908F055FD6861201C04F056
:10023000CFFDA86138BDC0466407002020250020FE
:100240000000C84238B50F4D0221281CFFF76FFF90
:1002500009F03AFA0C4908F021FF0C4908F03AFD80
:100260000B4CE061032005F061FB281C0421FFF723
:100270005EFF09F029FAEE21890508F00FFF2062E0
:1002800038BDC046B801002000409C42002474499B
:1002900020250020F8B505680E1C281C191C171C09
:1002A0001C1C08F003FC002800D02C1C201C069904
:1002B00008F010FC002800D1069C381C09F0A8F9B1
:1002C000011C201C09F014F8311C08F0E7FE08F0AE
:1002D0005BFCF8BD38B5054CE568A068291C08F042
:1002E000E5FB002800D0A56038BDC04620250020D1
:1002F000F0B50023A3B014499A008918496802ACEC
:1003000001331151202BF6D103AA00230133111C14
:10031000181C151F0E682F68BE4203D201972E606D
:10032000019D0D60013004311F28F2DD04321F2BC6
:10033000ECD1236CE06BC018400809F0C5F9034B01
:10034000D86023B0F0BDC046042400202025002042
:1003500070B5102005F094FC204B04215A68204C05
:100360008A435A601F4A1E1C1169231C21601169AF
:10037000AF229200914205D9221C86321578EDB247
:10038000002D0ED0863300221A70FFF71DFF736810
:1003900004221343736010201349032205F0D8FB95
:1003A00070BDFFF711FF114B01221A70104B197825
:1003B0004A401A70FFF79CFF231C84331978226887
:1003C0008900641862601A780132D2B21A701A7801
:1003D0001F2ADCD91D70FFF77DFFD8E70018004009
:1003E000042400200030004251030000F4240020C7
:1003F00060070020F7B5394D394E0027009729686E
:10040000301D0022374BFFF745FF374C0201A08813
:100410000F23184010433268A080C0B21A4098439E
:10042000104320710097301C696800222F4B083060
:10043000FFF730FF0305E0881B0D000B0003184396
:100440002B4BE0800093301CA968EA69294B1030DF
:10045000FFF720FF830520899B0D800A8002184347
:10046000254B20810093301CE9682A6A234B143005
:10047000FFF710FFA268030521489B0A10401843AC
:10048000A0600097301C296900221E4B1830FFF72E
:1004900001FF830160893F22104018431A4B60819D
:1004A0000093301C69696A6A184B1C30FFF7F2FE32
:1004B0002073301CA96900220097124B2030FFF7EF
:1004C000E9FEE268830512489B0B10401843E06088
:1004D0001049114805F010FFF7BDC046BC240020AC
:1004E000202500200000E442E42400200060EA46C9
:1004F0000000F0C100008242000061440080894495
:10050000FF03C0FF0000C84200004040666686400E
:10051000FF00FCFF14E10000242A0020F0B5244E67
:1005200087B00121301C04F0D7F8224D2249286001
:1005300003A806F056FD0A222968684606F0AFFDBA
:10054000694603A806F038FE011C1C4805F0CAFEE7
:10055000684606F0FFFC03A806F0FCFC0F24184FC9
:100560002968E35D49011A0110311B1109191A4369
:1005700089B2301CD2B204F095F8E05D0221FFF799
:10058000F9FD013CEBD22B68301C01332B602A684B
:100590000121D2B204F086F8084C0A49201C05F06B
:1005A000ABFE201C084905F0A7FE07B0F0BDC04611
:1005B000AC0100208C24002033E10000242A00201C
:1005C000E4240020A8E500001EE10000F0B5B1B071
:1005D0003B49022210A80BF08FFC3A4C0222211C4E
:1005E00068460BF0A5FB211C07A80BF0CAFC364D92
:1005F0000321281C04F070F8344C0121A060281C51
:1006000004F06AF83249606004A806F0EAFC10229F
:10061000A16801A806F043FD01A904A806F0CCFDDD
:100620002C4D011C281C05F05DFE01A806F092FC73
:1006300004A806F08FFC284904A806F0D2FC10227A
:10064000616801A806F02BFD01A904A806F0B4FD1D
:10065000011C281C05F046FE01A806F07BFC04A83E
:1006600006F078FC0024194B5B689C4226D2A3B2AA
:100670005D015F1C10357F01ADB2BFB2291C12486D
:1006800004F02AF80490049A10A9684607AE0135D0
:100690000BF032FCADB2301C69460BF04FFCBD4292
:1006A000ECD1242060430D4B311C18180BF069FC71
:1006B00000236A46137033700134D4E731B0F0BDC3
:1006C00005E10000CCE00000AC0100208C240020FB
:1006D0002EE10000242A002041E100009D070020B7
:1006E000F0B57D4B7D4A187854790F210C40884332
:1006F0002043187010791C780001214001431970C3
:10070000D47858783F210C4088432043587094781F
:100710001D6873480C40A40328402043186050789B
:100720005C88014008016F496F4D214001435980A9
:10073000D87811780322890002400A438FB06B49B0
:10074000281CDA7005F0BCFDFFF752FD684C00264E
:1007500020690AF0EFFD0B1C0221021C0091281CED
:1007600005F006FF0023E361E0690AF0E3FD594B61
:10077000574A08F061F9002808D0642E06D0FFF728
:1007800061FD0A20013605F0D1F8EDE75949281C32
:1007900005F0B2FDE0690AF0CDFD0227021C0B1C3A
:1007A0000097281C05F0E4FE206A0AF0C3FD0097BC
:1007B000021C0B1C281C05F0DBFE4F49281C05F011
:1007C0007FFD311C0A22281C05F0E9FD4B4E211D3E
:1007D000301C221C04F014F8042805D16068484934
:1007E00008F078F9002815D0464B01228633464898
:1007F0001A7005F09BF8211D301C221C04F000F833
:10080000042807D0281C414905F076FD404B636061
:100810000823236005A83F4906F0E3FB0222616834
:1008200002A806F04EFC02A905A806F0C5FC3A4D48
:10083000291C06F0CFFC0A22061C216808A806F035
:100840001CFC08A9301C06F0B7FC291C06F0C2FCF1
:100850000222051CA1680BA806F033FC0BA9281C7A
:1008600006F0AAFC204E011C301C05F03BFD0BA835
:1008700006F070FB08A806F06DFB02A806F06AFB04
:1008800005A806F067FB254B134D187EAF7B7F2232
:10089000C0B2C30117401F4308F016FFEA790F23C7
:1008A0001A4070210A43EA71832217405C221743E1
:1008B000EA7BA0609A43131C05221343301C18499D
:1008C000AF73EB7305F018FD0FB0F0BDC046C04626
:1008D0009A9999999999B93FE4240020F524002028
:1008E000FF3FF0FF0FFCFFFF242A002056E100002D
:1008F0002025002062E1000072E10000B00100202C
:100900000000C84204240020DA0700007FE1000054
:10091000CDCCCC418BE1000096E100008C2400207E
:1009200099E10000C046C04608B50121032005F04A
:1009300079FB142004F0FAFF0320002105F072FB7C
:1009400008BD000038B5104D104CA9780A22C9B274
:10095000201C05F038FD201C0D4905F0B1FC69781C
:100960000A22C9B2201C05F02EFD201C094905F001
:10097000A7FC29780A22C9B2201C05F024FD201CFE
:10098000054905F0B9FC38BDF5240020242A0020D3
:10099000A6E10000AFE10000B7E1000000000000A8
:1009A00010B50F4C0F49206A08F080F800280FD0CE
:1009B000E0690AF0BFFC094B074A08F03DF800283F
:1009C00006D0094B0122094809491A7605F094FC22
:1009D00010BDC046C046C046CDCCCCCCCCCC0A4025
:1009E00020250020000020418C240020242A002003
:1009F000BFE10000C046C046F7B5714D714C297883
:100A00000A220907090F201C05F0E1FC29780A22B7
:100A10000909201C05F0DBFC69780A228906890E89
:100A2000201C05F0E2FC2B680A221903890E201C09
:100A300005F0DBFC69880A228905890E201C05F077
:100A4000D4FCE9780A228908201C05F0CEFC29791B
:100A50000A220907090F201C05F0B9FCA9880A22FF
:100A60000909201C05F0BDFC574F201C391C05F05E
:100A700027FC564E70680AF05DFC0B1C0221021C1C
:100A80000091201C05F074FDE9880A220905090D72
:100A9000201C05F0A6FC391C201C05F011FCB068D8
:100AA0000AF048FC0B1C0221021C0091201C05F0DE
:100AB0005FFDE9790A220909201C05F088FC2989D3
:100AC0000A228905890D201C05F08BFC391C201C8D
:100AD00005F0F6FB30690AF02DFC0B1C0221021C0C
:100AE0000091201C05F044FDAB680A229902090D13
:100AF000201C05F076FC391C201C05F0E1FB706918
:100B00000AF018FC0B1C0221021C0091201C05F0AD
:100B10002FFD69890A228909201C05F062FC391C15
:100B2000201C05F0CDFBB0690AF004FC0B1C02216F
:100B3000021C0091201C05F01BFD297B0A22201CB1
:100B400005F04FFC391C201C05F0BAFBF0690AF0D7
:100B5000F1FB0B1C0221021C0091201C05F008FD7A
:100B6000EB680A229903890D201C05F03AFC391C18
:100B7000201C05F0A5FB306A0AF0DCFB0B1C0221EF
:100B8000021C0091201C05F0F3FCA97B0A224906F7
:100B9000C90E201C05F01BFCA97B0A22C909201CD8
:100BA00005F015FCE97B0A220907090F201C05F056
:100BB0000EFCE97B0A220909201C05F008FCF7BDA0
:100BC000E4240020242A0020F3E400002025002053
:100BD000024B02211A888A431A807047002C004277
:100BE000034B00221A82DA7B52B2002AFBDB7047E9
:100BF000002C004208B51520002105F013FA14203E
:100C0000012105F00FFA1F20012105F00BFA002049
:100C1000012105F007FA0320002105F003FA08BDC1
:100C200008B51520012105F0FDF90021142005F07B
:100C3000F9F9642004F07AFE1520002105F0F2F99C
:100C40000121142005F0EEF9642004F06FFE152058
:100C5000012105F0E7F90021142005F0E3F96420F3
:100C600004F064FE1520002105F0DCF901211420B8
:100C700005F0D8F9642004F059FE1520012105F093
:100C8000D1F90021142005F0CDF9642004F04EFEC6
:100C90001520002105F0C6F90121142005F0C2F944
:100CA000642004F043FE1520012105F0BBF900216A
:100CB000142005F0B7F9642004F038FE1520002157
:100CC00005F0B0F90121142005F0ACF9642004F01E
:100CD0002DFE1520002105F0A5F91420002105F0B6
:100CE000A1F908BD08B506487623037001234370B7
:100CF000C37003714371837103F08AFE08BDC0465F
:100D00006407002038B5114D5021281C03F036FD32
:100D1000281C002103F0E0FC0D4C0130C0B2207310
:100D2000207BFF21C0B207F005FE281CCAB20021BB
:100D300003F0B8FC074D0849281C05F0C1FA217BD7
:100D4000281CC9B20A2205F042FB38BDAC010020C4
:100D50008C240020242A0020DCE1000038B5114C4E
:100D6000114B201C63600621FFF7E1F92178051C77
:100D7000606803F021FB6068062103681B689847E0
:100D80008021C901294389B2090A6068FFF7C9F9BE
:100D9000E9B26068FFF7C5F96068012103F098FBCC
:100DA00038BDC046B8010020D8270020F7B5654AF5
:100DB00002239169402099439161918A041C9943CF
:100DC00091829169844681439161516B20259943B9
:100DD0005163536B5C4E83435363938C042783436B
:100DE0009384138A83431382584B0820196A8143E2
:100DF0001962196AA9431962196A554DA14319620A
:100E0000186A544901401962186A5349014019622D
:100E1000186A524901401962186A51490140196221
:100E2000186A504901401962186A4F490140196215
:100E3000186A4E4901401962186A4D490140196209
:100E4000186A4C4901401962186A4B4901401962FD
:100E5000196A012081431962918AA14391823178F4
:100E6000B94331709169454EA1439161116AA14323
:100E70001162918CA1439184111C44310878A043E4
:100E80000870516B3E48A143516301683D4C2140BD
:100E90000160296880208143296031683A4D81438F
:100EA00031602968394C8143296021688143216080
:100EB00037490F6887430F603649254F0E688643D0
:100EC0000E603E6886433E602C4E3768874337602D
:100ED0002E682F4F86432E6025682A4E8543256055
:100EE0003C68274D84433C600C68174F84430C607A
:100EF000294904240878A043087028490878A043A9
:100F0000087027490878A043087029683140296093
:100F10002449086830400860234908683040086068
:100F200039786046A14339703978A1433970918F7F
:100F300001439187918C814391849A6920210A43CE
:100F40009A61F7BD000800400050004100040040D5
:100F500000080042FFFEFFFFFFFDFFFFFFFBFFFF5A
:100F6000FFBFFFFFFF7FFFFFFFFFFEFFFFFFFBFF56
:100F7000FFFFEFFFFFFFF7FFFFFFFDFF000C004249
:100F800000200042FFF7FFFF001000420014004263
:100F900000180042001C004200400042004800428D
:100FA0000044004200240042002800425B4B8222A1
:100FB000520070B59A605A78D209FCD15849574A04
:100FC00051605A78D209FCD1564A54494A8059781E
:100FD000C909FCD106205149FF3088605978C909F8
:100FE000FCD151484D4948605978C909FCD14B4959
:100FF0004A805A78D209FCD14C498022086A5201B1
:1010000002430A62086A8022920102430A62484A45
:1010100001201080D07B40B20028FBDB14884448BC
:10102000E507FBD404880225AC430480414C0480CE
:10103000D47B3F4864B2002CFADB048802252C43A1
:101040000480D47B3A4864B2002CFADB447B102540
:101050002C434473D07B40B20028FBDB0422FF32D8
:101060009A605A78D209FCD133482C4A50605A7899
:10107000D209FCD13148294A50805A78D209FCD192
:101080000A6A80231B0113430B622D4B01221A8035
:10109000DA7B52B2002AFBDB1988294AC807FBD445
:1010A0001188022081431180802109011180D97BA0
:1010B000234A49B20029FADB11880220014311803A
:1010C000DA7B52B2002AFBDB80211D4A49005181A4
:1010D000DA7B52B2002AFBDBFA21194AC9001182DD
:1010E000DA7B174852B2002AFADB164C8021C9027B
:1010F000E167154AC02464001151C424A4001659A4
:10110000124D354015511160427B10210A43427344
:10111000DA7B52B2002AFBDB70BDC046000C0040F7
:10112000040321001C4400000503210000040040CA
:101130000030004208080000030321001B430000A8
:10114000002C004204E100E000E100E0FFFF00FFAE
:10115000074B40219A690A439A61064B064A5A8016
:101160005A78D209FCD1054B04225A617047C04617
:1011700000040040000C004005440000001800403E
:10118000F8B54D4B3F20DA881979120B1203DA803B
:101190000F229143197199880024114099800021F0
:1011A000197059788143597018684449014044487E
:1011B0001960090C014059800021D9701989890AE8
:1011C0008902198198683F49014099600021D868D7
:1011D00059813D490140D960090E0A4030210A4336
:1011E000DA731C73394B00225A60DA601A615A6153
:1011F0009A61374A37491A628122D20599601C6088
:10120000DA615C62344A354B354E1A60354A3649EC
:101210005A60364A59619A60354A3460DA60354A14
:10122000354D1A619A611E225242DA61E122920022
:101230001A6203225A62331C84331C70331C8533B8
:101240001C70331C86331C702C4B0A22DA8102225C
:101250001A825A1CD4779A1CD477DA1CD4771A1DB8
:10126000D4775A1DD47717229A620122DA621C6061
:101270005C609C601C735C61214B281CAB63214F3C
:101280005023EB632B1C4033B91C1C700AF079FE11
:10129000281C391C133111300AF073FE281C391C2C
:1012A000223023310AF06DFEA300F318002201342E
:1012B0005A60202CF8D1F8BDE4240020FF3FF0FF55
:1012C0000FFCFFFFFF03C0FFFF00FCFF20250020F5
:1012D0000000B44200409C4635AF0F42BC240020C1
:1012E000042400207CCF0B3E008054435E4B2C41F5
:1012F000CDCCA34114AE2341C02300208C24002078
:101300005B140000CCE0000038B5124C05233722F6
:101310002370114D62701222A2700322E270281C09
:10132000042200212271637103F07CFFA1786278AE
:101330002378281CC9B2D2B2DBB203F02FFEE178C9
:1013400022796379281CC9B2D2B2DBB203F072FEF3
:1013500038BDC046F524002048250020F8B51C4DB6
:10136000061C281C0C1C03F0F1FE281C03F0F8FEE0
:101370008719281C03F0EAFE0619301C3C2107F0EF
:1013800095FAC719281C03F0F5FE3C21041C381CF3
:1013900007F08CFA3C21001907F0CCFA0D4CC9B2C9
:1013A0002172381C3C2107F0C5FAC9B2E171301C2A
:1013B0003C2107F0BFFAC9B2A171217AE279A37981
:1013C000281CC9B2D2B2DBB203F080FEF8BDC04621
:1013D00048250020F524002038B50D4D281C03F0C9
:1013E000C9FE0C4CA070281C03F0BAFE6070281CCB
:1013F00003F0ACFE2070281C03F0C6FEE070281C31
:1014000003F0CCFE2071281C03F0D2FE607138BDC1
:1014100048250020F524002010B5044B01241C7041
:10142000FFF7DAFF024B1C6010BDC046C001002070
:101430009807002008B50320012104F0F3FDFFF711
:10144000CBFF024B01220233DA7708BD8C24002047
:1014500008B50248032103F04FFD08BD48250020D0
:10146000AB4BF7B51A78002A01D000221A70A94BAD
:10147000A94C1A78A94EAA4D002A4ED0E31CDF7F52
:10148000FFB2002F49D1102004F0FAFBFEF79CFEBA
:10149000A04B01221F70A349631C281CDA7704F0BB
:1014A0002BFFA14B0A221968281C0131196004F096
:1014B00076FFE189381C89B2FFF750FFFFF78CFFF8
:1014C000FFF70EF9FEF796FFFFF728F8FFF768FA27
:1014D000FFF792FA954A73781268D31A012B02D853
:1014E000934B01221A70B278A36A9A4200DBC1E0E2
:1014F000B278E36A9A4200DCBCE0FFF715FA1020EC
:101500008C49032204F024FBFFF71CFA281C8A49AB
:1015100004F0F2FE0A2004F009FA844B71781A688C
:10152000914229D1824F3B78002B25D08349281C3A
:1015300004F0E2FE00233B70814A824B00279A6050
:10154000FFF74AFFFFF742F86368BB4201D000F0A3
:1015500023FD7D4B3C211F707078013007F04AFA63
:10156000724B00201960E18989B2FFF7F7FEFFF79F
:10157000E9F9012004F0DAF9E31CDB7F002B04D049
:10158000724AD37F002B00D080E0B278E36A9A429F
:1015900008DBB278A36A9A4204DAE31CDA7F002AF5
:1015A00000D08BE0237E002B3DD0671CFB7F002BFF
:1015B00039D067490026281C04F09EFEFE77614F53
:1015C000F86909F0B7FE4F4B4D4A07F053FAB042A5
:1015D00008D0281C5F4904F08FFE02232676238260
:1015E0000A23E381F86909F0A5FE474A474B07F053
:1015F0002DFA002817D05849281C04F061FEF8691C
:1016000009F098FE0B1C0221021C0091281C04F01A
:10161000AFFFE189281C89B20A2204F0C0FEE389E9
:101620000A339BB2E3810234E37F002B08D00A2007
:1016300004F07CF90320002104F0F4FC0023E3779C
:101640004649281C04F058FE0A2004F06FF9FEF702
:10165000C5FD434B1A68012A51D1002215201A609A
:1016600004F010FD41424141152004F0DBFCFFF77E
:1016700069F944E0631DDB7F002B00D13DE7394968
:10168000281C04F039FEFFF75DF936E73649281CBF
:1016900004F032FEFFF756F906200021FFF75EFE48
:1016A000FEF792FD1B4A00271770FEF781FDFEF73B
:1016B00085FDFFF791FE254BDF7766E70027DF7793
:1016C0002A49631D281CDF7704F016FEFFF784FE0D
:1016D000FEF768FDE189381C89B2FFF73FFE70789C
:1016E000238A3C21C01807F085F9104A1160FEF7E3
:1016F0006BFD10200F49032204F02AFA52E7F7BDD0
:10170000CDCCCCCCCCCC0C40CDCCCCCCCCCC0A40B1
:10171000F4240020C00100208C240020F5240020A7
:10172000242A002047E20000B40100200400002029
:101730009C07002051030000E9E100009DE2000049
:101740000060EA4620250020C101002090240020EE
:1017500001E30000F8E1000014E2000038E20000BC
:101760009807002067E20000B1E20000CBE2000031
:10177000024B10219A7B0A439A7370470030004253
:1017800008B5FFF725FAFFF72BFA0021032004F034
:1017900049FC034B10219A7B0A439A7308BDC0464B
:1017A000002C004273B50024221C231C211C009431
:1017B0001B4804F007FD1B4802F070FF01211A4886
:1017C00002F0F8FF194803F0E3F8194B36221948E4
:1017D0001A705C709C7003F07DFB211C164801F0B0
:1017E0009DFF164E0121301C02F026FA144D1549BA
:1017F0002A1C301C07F018F8134E301C01F04EFF65
:101800002A1C301C114907F00FF8114E211C301C06
:1018100001F06CFF301C2A1C0E4907F005F873BD5F
:1018200018070020AC010020B00100206407002050
:10183000B801002048250020940700202007002040
:101840000000002075370000EC06002089350000FC
:10185000042500201501000010B5E1246402211CBC
:10186000184805F019F9211C174805F015F915203D
:10187000012104F07DFB1420012104F079FB0020FC
:10188000012104F075FB0120002104F071FB102000
:10189000002104F06DFB0320012104F069FB04200A
:1018A000032104F065FB0520002104F061FB1F20EB
:1018B000012104F05DFB04200449021C04F048F9F6
:1018C00010BDC046242A0020602C002035140000E2
:1018D000F7B5FFF755FCFFF7BFFFFFF78BF91520B2
:1018E000002104F09FFBFFF79BF94A4C4A49201C5A
:1018F00004F002FDFEF756FCFFF758FAFFF756FB1F
:10190000FEF75CFC642004F011F8FFF7FDFCFFF724
:101910009FFD4249201C04F0EFFCFFF7E3F9FFF7BD
:10192000F1F9FFF71BFA3E4F201C391C04F0C8FCEC
:10193000FEF75EFC3B4E0225306909F0FBFC00958A
:10194000021C0B1C201C04F013FE642003F0EEFFAD
:10195000391C201C04F0B4FCFEF74AFC306909F085
:10196000E9FC00950B1C021C201C04F001FE0A205F
:1019700003F0DCFF2C4D0020E98989B2FFF7EEFC73
:10198000FFF72AFD2949201C04F0B6FC0A2003F0C9
:10199000CDFF1520012104F045FBFFF701F8244E8F
:1019A000201C311C04F0A8FC311C1131201C04F057
:1019B000A3FC201C1F4904F09FFC1F4E0121301C7A
:1019C000002202F06FFE301C0022032102F06AFEAA
:1019D0001A481B4903F0A2FA03221020194904F007
:1019E000B7F8FFF7B5FB184B3C2158782B8A053523
:1019F000C01806F0FFFF154B1960FEF7A3FF14494E
:101A0000201C04F079FC01230A20EB7703F08EFF01
:101A1000F7BDC046242A00200FE3000018E30000B1
:101A200056E10000202500208C24002022E3000045
:101A3000C023002033E30000AC0100204825002033
:101A40001914000051030000F524002004000020B8
:101A500042E300000020704708B503681B68984700
:101A600008BD002070470020704713B502686B4620
:101A7000D97107335468191C0122A04716BD13B54C
:101A800003686C4607345B6A211C012298470128D1
:101A900001D1207801E00120404216BD01204042E2
:101AA000704708B5036998680368DB68984708BD04
:101AB000036810B51B69041C98470123002800D156
:101AC000237F181C10BD08B50368DB6A9847431EC6
:101AD0009841C0B208BD0120704700207047012026
:101AE000704770B5041C0D1C03F0E8FE061C03F0E3
:101AF000E5FE801BA84209D22368201C9B6C9847F6
:101B0000002805D1FA2003F011FFF0E7002000E0E3
:101B1000012070BD10B5044B041C0360483005F073
:101B200019FA201C10BDC046C0EB0000F0B50B68D0
:101B30008DB05B6E071C08AE05A89847301C0021CD
:101B400010220AF017F90024251C079B9C4220D282
:101B500005A8211C05F096FB2E2808D10135032D80
:101B600026DD00230093381C191C1A1C18E030389D
:101B7000C3B20390092B0AD808ABAA00D1580A2097
:101B800041438C460399081C6044D05010E0032D5B
:101B90000ED1089A307BD1B2337A32790090381C5A
:101BA00004F010FB05A805F0D5F9381C0DB0F0BD08
:101BB0000134E4B2C9E70000F0B585B00C1C061C86
:101BC000194901A8171C05F00CFA01A8102105F00D
:101BD000E0F9217901A805F0BDFA144D01A8291CEE
:101BE00005F0A1FA617901A805F0B4FA291C01A851
:101BF00005F099FAA17901A805F0ACFA291C01A811
:101C000005F091FAE17901A805F0A4FA3368019989
:101C10001B6A3A1C301C9847041C01A805F09AF96D
:101C2000201C05B0F0BDC046A8E5000040E3000060
:101C300038B5051C0C1C081E07D00AF0AAF92B6841
:101C4000021C5B68281C211C984738BD38B5041C51
:101C50000D1C40680B4904F033FB60680A4904F02E
:101C60002FFB0A22291C606804F0A3FB0749606867
:101C700004F026FBA0680368DB689847002003F0A7
:101C800055FE38BD45E4000048E40000A6E500002C
:101C9000F8B5051C0F1C161C03F010FE041C03F005
:101CA0000DFE001BB0420BD203F008FE001BB04239
:101CB00008D2686803681B69984700280AD001E0C9
:101CC00000200AE0686803685B699847B842E6D17B
:101CD000012002E003F02AFEE6E7F8BDF0B589B086
:101CE0000391051C4021101C141C019305F051F9AF
:101CF00003F0E4FD0290002003F018FEA8680368DA
:101D00001B699847002800DCC1E0A86803685B698C
:101D100098470028F2DBC1B2201C05F011FA019BA4
:101D2000002B03D10E9B002B14D10FE0019905A8C5
:101D300005F057F9201C05A905F080FA061C05A836
:101D400005F008F9002EEDD00120B0E00F9B002B2C
:101D500014D10FE00E9905A805F043F9201C05A940
:101D600005F06CFA061C05A805F0F4F8002EEDD07D
:101D700002209CE0109B002B14D10FE00F9905A8C6
:101D800005F02FF9201C05A905F058FA061C05A836
:101D900005F0E0F8002EEDD0032088E0119B002B29
:101DA0001FD10FE0109905A805F01BF9201C05A90B
:101DB00005F044FA061C05A805F0CCF8002EEDD07D
:101DC000042074E03B4905A805F00BF9201C05A987
:101DD00005F034FA061C05A805F0BCF8002E10D159
:101DE00030E0119905A805F0FCF8201C05A905F0C4
:101DF00025FA061C05A805F0ADF8002EE2D0052056
:101E000055E0A9682C2205A804F02CFE05A805F0D1
:101E1000A8FB061C05A805F09DF8FA22281C0A213B
:101E20009200FFF735FF062E07D80236B600AE192E
:101E30007368002B01D001225A77201C1E4905F03F
:101E4000FDF85BE71D4905A805F0CBF8201C05A9A6
:101E500005F0F4F9071C05A805F07CF8002F00D167
:101E60004CE705A8A9680A2204F0FCFD05A805F0C6
:101E700078FB071C05A805F06DF8062FDDD80237A2
:101E8000BF00EF197B68002BD7D01E77D5E703F092
:101E900015FD029BC01A039B984200D22BE7201C21
:101EA00005F035FB201C044905F0C8F80020C0B23D
:101EB00009B0F0BD4EE40000A8E5000059E40000C0
:101EC000F0B589B0061C0D1C05A80C49141C1F1C7C
:101ED00005F087F80E9B291C01930F9B05AA02931E
:101EE000109B00970393301C231CFFF7F7FE041C84
:101EF00005A805F02FF8201C09B0F0BDA8E50000EA
:101F000030B585B00093089B0D1C0193099B141CF0
:101F1000FA21029389002A1C231CFFF7D1FF05B088
:101F200030BD000037B5041C0D1C4068134904F097
:101F3000C7F96068124904F0C3F9291C606804F00D
:101F4000BFF960680F4904F0BBF90F49606804F0FD
:101F5000B7F9A0680368DB689847002003F0E6FC47
:101F6000002300930193201C084B0949094AFFF7FD
:101F7000C7FF013843425841C0B23EBD45E40000AE
:101F800064E4000064E90000A6E500006DE80000DC
:101F900030E4000065E8000070B5274C2749A544EF
:101FA00001A809F0EEFF0024254E73689C422ED252
:101FB000244D01A8291C09F0C1FF221C22496846B2
:101FC00009F09AFF694601A809F0B8FF291C01A889
:101FD00009F0B4FF1D4901A809F0B0FF291C01A8B0
:101FE00009F0ACFF24216143194B01A8C91809F07D
:101FF000A5FF01A8291C09F0A1FF7368013B9C42C1
:1020000003D201A8134909F099FF0134CCE701A8D4
:10201000114909F093FF114C1149201C04F050F9AB
:1020200001A9201C04F068F901A90E4809F0A9FFD4
:10203000A623DB009D4470BDD0FAFFFFE0E4000062
:102040008C24002064E90000E2E40000BCE1000010
:102050009D07002096E10000E8E40000242A00200B
:10206000EAE40000C1010020031CFC3358689B68AF
:10207000C01A01D50130FF30704738B5041C251C4B
:102080000020203503F052FC281CFFF7EDFF00284C
:102090000ED103F013FCA369C01AFA2804D9012356
:1020A000637703F00BFCA061206903685B699847C4
:1020B000281CFFF7D9FFE38AC01838BD38B5041CC7
:1020C0000D1C4068094904F0FBF8291C606804F005
:1020D000F7F80749606804F0F3F8A0680368DB6864
:1020E0009847002003F022FC38BDC04645E40000BC
:1020F000A6E50000F0B585B0051C039103F0DEFBFA
:10210000061C03F0DBFB039B801B984230D2281C8B
:102110001949FFF7D3FF194F002400940194281C9C
:1021200017493A1C174BFFF7EBFE012804D0FA20A1
:10213000800003F0FBFBE4E7134B14490093144ABF
:10214000144B0194281CFFF7DBFE0094061C01943D
:10215000281C11493A1C0B4BFFF7D2FE012E05D06B
:10216000002E05D0032E03D8022002E0301C00E030
:10217000002005B0F0BDC046B6E9000065E80000EB
:1021800022E500006DE8000041E500002BE50000BD
:1021900031E5000039E5000030E40000F0B50368E7
:1021A0008DB00E1C1B693D49041C9847002801D1C5
:1021B00000246FE0201C3A490025FFF77FFF0095BF
:1021C0000195201C3749384A384BFFF799FE071E06
:1021D000012FEDD1201C3649FFF770FF324A3149FB
:1021E000324B00950195201CFFF78AFE236803A857
:1021F0009B68211C98472F4906A804F0F2FE03A80B
:1022000006A905F010F8A8420ED12B4909A804F040
:10221000E8FE03A809A905F006F8071C781E874107
:1022200009A8FFB204F096FE06A804F093FE002F62
:1022300004D0231C012228331A700AE01F4909A880
:1022400004F0CFFE03A809A904F0EDFF09A804F0EB
:1022500081FE201C1149FFF74DFF012811D0002EEF
:102260000FD03378002B0CD02368201C5B6B311C03
:102270009847201C0949FFF73DFF441E63425C411B
:1022800004E00138002401238342644103A8E4B23E
:1022900004F060FE201C0DB0F0BDC0461027000009
:1022A0004EE5000030E4000065E800006DE8000045
:1022B00051E5000059E5000068E5000077E5000001
:1022C000F0B50E1C91B0041C081C4349FFF7F6FE44
:1022D000424D04A8291C04F084FE414B00270093C2
:1022E000404BFA21019302970397301C890004AAFE
:1022F0003D4BFFF7F3FC012804D0201C3B4904F0C0
:1023000070FE63E03A490AA804F06BFE291C0DA890
:1023100004F067FE0DAA0AA904A805F047F80DA865
:1023200004F018FE0AA804F015FE04A805F0EFF862
:10233000301C3049FFF7C2FE291C07A804F051FEEB
:10234000274BFA210093274B029701930397301CE8
:10235000890007AA244BFFF7C1FC012804D0201CE8
:10236000224904F03EFE2EE021490AA804F039FE7D
:10237000291C0DA804F035FE0DAA0AA907A805F02E
:1023800015F80DA804F0E6FD0AA804F0E3FD07A87F
:1023900005F0BDF804A90DA804F046FE20210AA806
:1023A00004F05DFE0AA90DA804F006FF07A904F0D9
:1023B00003FF011C201C04F037FE0AA804F0CAFD2C
:1023C0000DA804F0C7FD07A804F0C4FD04A804F09C
:1023D000C1FD201C11B0F0BD86E50000A8E500009D
:1023E00065E800006DE8000030E400008CE50000C6
:1023F000A2E50000A9E500007FB5041C0D1C03F058
:102400005DFA061C03F05AFA801BA84214D2201C65
:102410000B49FFF753FE0B4B201C00930023019345
:102420000293C821084A094BFFF74AFD012804D04E
:10243000642003F07BFAE5E7002004B070BDC046DD
:10244000A8E500006DE8000030E4000065E8000049
:10245000F7B5031C28331D78041C134F134E002DB1
:1024600011D11349FFF72AFE391C321C114B00957C
:102470000195201CFFF744FD201C0F49FFF71EFEAD
:102480000095019505E00D49FFF718FE0023009324
:102490000193391C321C074B201CFFF731FD01381A
:1024A00043425841C0B2FEBD30E4000065E8000080
:1024B000AEE500006DE8000047EB0000BCE5000061
:1024C00070B50E1C8EB0041C081C2849FFF7F6FDE1
:1024D000274D05A8291C04F084FD264BFA21009302
:1024E000254B301C0193002302930393890005AA16
:1024F000224BFFF7F3FB012804D0201C291C04F019
:1025000070FD2CE01E4908A804F06BFD291C0BA8E7
:1025100004F067FD0BAA08A905A804F047FF0BA863
:1025200004F018FD08A804F015FD164908A804F0E9
:1025300058FD15490BA804F054FD08A90BAA05A8DD
:1025400004F034FF0BA804F005FD08A804F002FD18
:1025500005A804F0DCFF201C05A904F0EDFC05A88B
:1025600004F0F8FC201C0EB070BDC0468AE50000E7
:10257000A8E5000065E800006DE8000030E4000018
:10258000A2E50000A6E5000072EC000030B503688B
:1025900085B01B691449041C9847002801D100200C
:1025A0001FE0231C28331B78201C002B01D10F496E
:1025B00000E00F49FFF782FD0E4B002500930195C7
:1025C0000295201C08490C4A0C4BFFF779FC0128A6
:1025D000E5D10B4803F0AAF92368201C1B68291CCD
:1025E000984705B030BDC0461027000047EB0000FB
:1025F000BFE500006DE8000030E4000065E8000081
:10260000B80B00001FB50A49041CFFF757FD094B22
:10261000201C00930023019302930749074B084AAB
:10262000FFF74EFC013843425841C0B204B010BD20
:10263000ABE900006DE80000409C000065E8000088
:1026400030E40000F0B50C1C87B0061C081C1749CC
:10265000FFF734FD164F002500950195201C154904
:102660003A1C154BFFF74CFC012804D0301C1349D1
:1026700004F0B7FC16E003A8A1680A2204F0F2F9FE
:102680000F493A1C0C4B00950195201CFFF738FCB4
:1026900003A804F03CFF301C03A904F04DFC03A880
:1026A00004F058FC301C07B0F0BDC046C8E500007F
:1026B00065E80000CEE500006DE80000A8E5000038
:1026C00030E40000F0B50C1C87B0061C081C17494C
:1026D000FFF7F4FC164F002500950195201C1549C5
:1026E0003A1C154BFFF70CFC012804D0301C134991
:1026F00004F077FC16E003A8A1680A2204F0B2F9FE
:102700000F493A1C0C4B00950195201CFFF7F8FB74
:1027100003A804F0FCFE301C03A904F00DFC03A880
:1027200004F018FC301C07B0F0BDC046D7E500002F
:1027300065E80000A6E500006DE80000A8E50000DF
:1027400030E40000F0B50C1C87B0061C081C1849CA
:10275000FFF7B4FC174F002500950195201C164982
:102760003A1C164BFFF7CCFB012804D0301C14494F
:1027700004F037FC19E0FA2222219200201CFFF716
:1027800087FA03A8A168222204F06CF90D493A1CCB
:102790000A4B00950195201CFFF7B2FB301C03A9E2
:1027A00004F0CAFB03A804F0D5FB301C07B0F0BD51
:1027B000DDE5000065E80000E4E500006DE80000EC
:1027C000A8E5000030E40000F0B5164989B0041C0B
:1027D000FFF774FC144F154E0025331C009501952E
:1027E000201C13493A1CFFF78BFB6323012815D1EA
:1027F000A1682C2205A804F035F905A804F0B1FE63
:10280000039005A804F0A6FB3A1C331C0095019523
:10281000201C0849FFF774FB039A93B218B209B061
:10282000F0BDC046EDE5000065E800006DE8000081
:10283000F2E5000030E40000F0B5031C28331F78F7
:1028400087B0041C1D4D1E4E002F2CD01D49FFF7D4
:1028500035FC00231C4900930193201C2A1C331CC7
:10286000FFF74EFB01281CD1FA222C219200201CDC
:10287000FFF70EFAA1680A2203A804F0F3F803A8F0
:1028800004F06FFE071C03A804F064FB0023009310
:102890000193201C0D492A1C331CFFF731FBF8B2B1
:1028A00009E0042007E00A49FFF708FC00970197B8
:1028B000201C0849D2E707B0F0BDC04665E800001B
:1028C0006DE80000FAE5000002E6000030E40000D8
:1028D0000CE6000014E6000010B5041CFFF7ACFF86
:1028E000FB23021C0340012B07D00020042A05D142
:1028F0002368201C1B6E984700E0181C10BD0000C8
:10290000F0B5031C28331F7885B0041C1A4D1B4EEC
:10291000002F25D01A49FFF7D1FB1A4B1A49009313
:10292000002301930293201C2A1C331CFFF7C8FAD2
:10293000012813D1201C1549FFF7C0FB114B201CA7
:1029400000930023019302931149331C2A1CFFF7C3
:10295000B7FA013843425841C0B20BE0002009E009
:102960000C49FFF7ABFB074B019700930297201C24
:102970000749D9E705B0F0BD30E4000065E8000084
:102980001EE600006DE80000409C000026E9000003
:10299000407E050019E90000F0B51F498BB0051C09
:1029A000FFF78CFB1D4E1E4F002400940194281C41
:1029B0001C49321C3B1CFFF7A3FA012801D0002060
:1029C00028E0A9680A2207A804F04CF807A804F038
:1029D000C8FD039007A804F0BDFA3B1C00940194C5
:1029E000281C1149321CFFF78BFA039B012BE6D1FF
:1029F0002B68291C9B6E05A89847231C009407A8E8
:102A0000211C221C069D03F0DDFB089BED1A681EAD
:102A10008541E8B20BB0F0BD29E6000065E8000092
:102A20006DE8000031E6000030E40000F0B50B1C5A
:102A300028331E78051C87B00C1C2C4F081C002E58
:102A400017D02B490026FFF739FB00960196201C72
:102A500028493A1C284BFFF753FA012816D1FA22CD
:102A60002C219200201CFFF713F903A8A1680D2266
:102A700020E02249FFF722FB00960196201C204906
:102A80003A1C1D4BFFF73CFA012804D0281C1D49B5
:102A900004F0A7FA26E0FA222C219200201CFFF76E
:102AA000F7F8FA2222219200201CFFF7F1F8A16822
:102AB00003A8222203F0D6FF00960196201C12499B
:102AC0003A1C0D4BFFF71CFA012804D0281C0D49B5
:102AD00004F087FA03E0281C03A904F02DFA03A8E8
:102AE00004F038FA281C07B0F0BDC04665E80000C5
:102AF0003BE6000044E600006DE8000031E900001C
:102B000050E60000A8E5000030E40000F8B5041C21
:102B10000F1C40680E491D1C161C03F0D1FB391C0C
:102B2000606803F0CDFB0A22311C606803F04BFCA7
:102B3000291C606803F0C4FB0649606803F0C0FB11
:102B4000A0680368DB689847002002F0EFFEF8BD3C
:102B500045E40000A6E50000F0B5041C85B00020A7
:102B60000E1C02F0E3FE231C28331D781D4F002DA0
:102B700011D0201C391C321C1B4BFFF7C7FF1B4B0D
:102B8000201C00930023019302931949194A1A4B00
:102B9000FFF796F91FE01949606803F091FB391CB3
:102BA000606803F08DFB0A22311C606803F00BFCA7
:102BB0001349606803F084FBA0680368DB689847EA
:102BC000281C02F0B3FE00950195201C09490A4A11
:102BD000064BFFF795F9013843425841C0B205B0A2
:102BE000F0BDC0465AE6000077EA00006DE800003C
:102BF000C0D4010030E4000065E8000045E40000B6
:102C0000A6E50000F0B50A1C89B01C491C4B041C49
:102C1000FFF77CFF1B4E1C4F002500950195201CE3
:102C20001A49321C3B1CFFF76BF9012823D1FA2209
:102C30002C219200201CFFF72BF8FA222C21920065
:102C4000201CFFF725F8A1680A2205A803F00AFF57
:102C500005A804F086FC039005A804F07BF9009514
:102C600001953B1C201C0A49321CFFF749F9039FC0
:102C70007D1EAF41FDB2281C09B0F0BD62E6000028
:102C80006BE6000065E800006DE800006FE60000FC
:102C900030E40000F0B50F1C87B0041C1F493A1C3B
:102CA0001F4B0025FFF732FF00950195201C1D49A1
:102CB0001D4A1E4BFFF724F901281CD1FA222C21B2
:102CC0009200201CFEF7E4FFA1680A2203A803F08B
:102CD000C9FE03A804F045FC061C03A804F03AF959
:102CE00000950195201C12490F4A104BFFF708F977
:102CF000AE4210D103E00238C0B201280AD9BB1C91
:102D00009B00E318201C391C5D68FFF77BFF002641
:102D1000287700E02E1C301C07B0F0BD7AE60000DA
:102D200039E9000082E6000065E800006DE8000077
:102D300030E400007FB5051C0024A300EB18DE681A
:102D4000002E09D0737F002B06D000237377E1B2E9
:102D5000281CFFF79FFFF0820134072CEDD1A868F3
:102D600003681B69984700280AD0064B281C00936B
:102D70000023019302930F211A1CFFF7A1F8EEE73D
:102D80007FBDC0466DE80000F0B58DB0069107929A
:102D9000037F041C002B73D1002002F0C7FD2569BE
:102DA000231C0026FC339E625E62281C4849FFF704
:102DB00085F9484F00960196281C47493A1C474B15
:102DC000FFF79EF8012875D1A9680A2209A803F027
:102DD00049FE09A804F0C5FB207509A804F0BAF85B
:102DE000009601963E493A1C3C4B281CFFF788F898
:102DF000227D281C3B493C4BFFF788FE3A1C00967D
:102E000001963749354B281CFFF77AF8237D37495F
:102E10006868059303F054FA3549686803F050FA7E
:102E20000A220599686803F0CEFA3249686803F00F
:102E300047FA0699686803F043FA2F49686803F077
:102E40003FFA0A220799686803F0A5FA2B496868D7
:102E500003F036FAA8680368DB689847301C02F074
:102E600065FD1E4B0196009302963B1C281C2449CD
:102E70001B4AFFF725F8461E73425E41F6B219E081
:102E800003689B6A9847236928331B78002B83D0FB
:102E900002F014FD051C02F011FD1A4B401B984274
:102EA00000D979E7206903685B699847237F002B85
:102EB000F1D171E7237D206902339B00C318267787
:102EC0005C6003685B699847207F0DB0F0BDC04629
:102ED0002EEA000065E800008CE600006DE80000C6
:102EE00030E4000096E600009EE6000045E40000A5
:102EF000A5E60000D9E60000ADE60000A6E500006A
:102F0000C0D40100BFD40100F8B5041C0F1C4068F8
:102F100011491D1C161C03F0D3F9391C606803F01D
:102F2000CFF9311C0A22606803F04DFA291C606851
:102F300003F0CAF90A220699606803F052FA0749B9
:102F4000606803F0BDF9A0680368DB68984700205B
:102F500002F0ECFCF8BDC04645E40000A6E5000028
:102F6000F0B589B000912C233149041C0392FFF77E
:102F7000CBFF304F304E0025331C00950195201CAF
:102F80002E493A1CFEF7BCFF2B1C01284DD1FA221A
:102F90002C219200201CFEF77BFEA1682C2205A8A4
:102FA00003F060FD05A804F0DCFA029005A803F028
:102FB000D1FFFA22201C22219200FEF769FE029E18
:102FC000B54222D0A06803681B699847002802D147
:102FD00002F0ACFCF6E7A06803685B699847039BC6
:102FE000C0B202339B00E31884465868031CFC33CC
:102FF000596A9E6A4A1CD2B2B24204D001304118CA
:103000006046C8775A620135D9E7FA222221920038
:10301000201CFEF73DFE002300930193201C064B6D
:1030200007493A1CFEF76CFF2B1C181C09B0F0BDB9
:103030007AE6000065E800006DE8000082E6000026
:1030400030E40000F8B5041C002002F06FFC251CE1
:10305000FC3520690023AB626B6203685B699847AB
:10306000E68A2069227D002E13D0A96A6F6ACB1BE5
:10307000002B01DC0133FF33013B191C9BB2B3422F
:1030800000D9311C89B2FFF76BFFE38A181AE0827E
:10309000DFE7111CFFF760FD236928331B78002B45
:1030A00000D12377F8BDF0B5041C87B00020039150
:1030B000059202F03BFC2069002703685B69984792
:1030C000059A97426AD2221C20320599101CCE1B09
:1030D0000492FEF7C9FF051EB54200D9351C002D2C
:1030E00032D0039B009502930498FEF7BDFF0028A1
:1030F00004D103997F1949190391E1E7231CFC339B
:103100009B6A009E0193019A80235B009B1A9E425A
:1031100000DD1E1C864200DD061C019B211C2031A7
:10312000C918321C029808F003FE0199231C8A1961
:10313000FC33D2B29A62009A029B921B9B190092B6
:103140000293002AD5D0CFE702F0B8FBA169401A5C
:10315000FA2804D90123637702F0B0FBA06120694B
:1031600003685B699847E28A002A17D0211CFC316A
:103170008D6A4B6A2069EB1A002B01DC0133FF33A7
:10318000013B191C9BB2934200D9111C89B2227DCC
:10319000FFF7E6FEE38A181AE08291E7381C07B0D1
:1031A000F0BD0000F0B589B0039100922649171CCC
:1031B0001A1C2C23041CFFF7A7FE244E00250095A3
:1031C0000195201C2249321C224BFEF799FE012852
:1031D00001D0002735E0322002F0A8FBA068039957
:1031E00003683A1C5B689847A0680368DB689847E7
:1031F00000950195201C1849321C164BFEF780FEE5
:103200000128E6D1FA222C219200201CFEF740FD75
:10321000A1680A2205A803F025FC05A804F0A1F97D
:10322000071C05A803F096FE0C49321C094B0095BB
:103230000195201CFEF764FE2368201C5B699847FB
:10324000BFB238B209B0F0BDCFEA000065E80000B7
:10325000B0E600006DE80000B2E6000030E40000D7
:1032600070B5041C00200E1C151C02F05FFB2069C9
:1032700003685B699847311C2A1C2069237DFFF78E
:1032800091FF70BDF8B5171C041C1E1C406806ABEE
:103290001D7803F015F8391C606803F011F8311C33
:1032A000606803F00DF8291C606803F00DF8606891
:1032B000079903F005F8F8BD73B50093084B0E1C91
:1032C000151C0849321C041C01932B1CFFF7DAFF64
:1032D000A0680368DB689847002002F027FB73BDF5
:1032E000A6E5000045E40000F0B587B0049303684C
:1032F000071CDB6D0591141C9847381C6749FEF7C5
:10330000DDFE674A0026009201960296381C654948
:10331000654A664BFEF7D4FD012801D00020BBE0D2
:103320003B1C28331D78002D49D0002C23D0237856
:10333000002B20D05E49786802F0C2FF5D497868B2
:1033400002F0BEFF222300935B4B211C5B4A0193DA
:10335000381C049BFFF796FFB8680368DB68984742
:10336000301C02F0E3FA00960196381C4E494F4A91
:103370004B4BFEF7C5FD381C5149059A2223FFF738
:103380009BFF494E494D00242A1C454B381C311CDB
:1033900000940194FEF7B4FD381C4A49FEF78EFEF6
:1033A0003F4B381C0093019402944749321C2B1C5C
:1033B000FEF786FD013847427841C0B26CE0381C08
:1033C0004249059A2223FFF777FF00950195381CA3
:1033D0003549364A324BFEF793FD002C10D0237846
:1033E000002B0DD0381C3A49221C2223FFF764FF22
:1033F00000950195381C2C492C4A294BFEF780FD7D
:10340000049A274D002A10D01378002B0DD0381CB9
:1034100030492223FFF750FF002300930193381C0B
:103420002149224A2B1CFEF76BFD381C2A49FEF766
:1034300045FE1E4E0024321C2B1C1B490094019497
:10344000381CFEF75DFD381C2449FEF737FE009559
:1034500001940294381C1349134A331CFEF730FDC3
:10346000012800D05AE7381C1D49FEF727FE0094BA
:103470000194381C1B49321C2B1CFEF741FD0490A3
:10348000012800D04AE700940194381C0649321CF8
:103490002B1CFEF735FD049807B0F0BD9DE8000039
:1034A0006DE80000407E050030E4000065E80000A3
:1034B00045E40000BCE60000A6E50000D8E60000F8
:1034C000CAE60000DCE60000F0490200E7E6000082
:1034D000F3E60000FFE60000E9E80000FFE8000076
:1034E0000CE900000BE7000037B50024221C231C68
:1034F0000094211C194802F065FE211C184800F0B8
:10350000FDFB184D184B194A281C6B602A60211CC2
:103510001C220C30AB6008F02DFC2B1C2833144906
:103520001C70FA239B008B60124B4C600B600B1CD1
:10353000FC339C625C620C75CC828C610C774C779E
:103540000D4C5023201C0D4A0D6101F0B7FF201CCB
:103550000B490C4A05F068F937BDC0464C250020E0
:10356000492500207C260020602C0020C0E30000BC
:103570005425002080E30000A826002035E4000048
:10358000151B000000000020074B10B50833041C79
:103590000360211C054800F061FC201C183003F07A
:1035A000D9FC201C10BDC04688E90000242700205B
:1035B00010B5041CFFF7E8FF201C02F04DFE201C94
:1035C00010BD00007FB50C1C051C304901A803F09C
:1035D00008FD01A9201C03F026FE061C01A803F02B
:1035E000B9FC01A8002E11D0294903F0FAFC201CD7
:1035F00001A903F023FE041C01A803F0ABFC032384
:10360000002C00D104235B426B623EE0214903F0B1
:10361000E8FC201C01A903F006FE061C01A803F02B
:1036200099FC002E1AD0201C2C2103F066FE421CAF
:10363000E8D0421CA368211C01A803F091FE01A858
:1036400003F08FFF686201A803F084FC6B6A5A1CC8
:1036500001D10223D7E7002B17DCD3E70E4901A8DD
:1036600003F0BFFC201C01A903F0DDFD061C01A82E
:1036700003F070FC002E08D0A168201C013903F073
:103680000BFE302801D101232B757FBD7BE80000A4
:1036900014E9000087E8000091E8000038B50A4B03
:1036A0000025083303600123041C45608560C56064
:1036B00003750649183003F094FCA5620448211CE8
:1036C00000F0BCFB201C38BD88E90000A8E5000024
:1036D0002427002007B5002300930348191C1A1C57
:1036E00002F070FD07BDC046FC26002070B5002525
:1036F000041C0570456085600E1C0C30054903F004
:1037000070FCA561AE4202D0034800F04BFB201CC8
:1037100070BDC046A8E500002427002010B5041C99
:10372000002902D0024800F03DFB201C10BDC0461D
:103730002427002013B502686B46D97107335468FB
:10374000191C0122A04716BD80690130431E984113
:10375000C0B2704713B503686C4607345B6A211C1E
:1037600001229847012801D1207801E00120404240
:1037700016BD7047094B10B51A1C08325433011C92
:10378000041C026003611031054800F067FB201C37
:10379000343003F0DFFB201C10BDC046D8EA000027
:1037A0002427002010B5041CFFF7E4FF201C02F0C2
:1037B00053FD201C10BD0000F0B54F4E89B0041C15
:1037C000301C00F049FC0023051E9D4200D190E012
:1037D000206A2B1C0138092800D98AE0002305F053
:1037E0005BF80510353C424F53747A83211C343109
:1037F000301C00F021FB301C404900F0D9FA0223B4
:103800006FE0012D01DD002363E0261C3C493436C6
:1038100005A803F0E6FB301C05A903F004FD071C16
:1038200005A803F097FB002FEDD0E16B301C0139A8
:1038300003F032FD231C3038A06132331B78002B9B
:1038400001D003234DE00722226252E0301C2D49B3
:10385000A26900F0D1FA042343E0012D01DD092320
:103860003FE005233DE0E26A301C002A03D02649F0
:1038700000F0C2FA02E0254900F09AFA062330E08F
:103880000723012DEBDC2CE0E36AA269218E002BDB
:1038900005D00091301C1E4900F0AEFA13E0201C48
:1038A00029300078231C28331B780090201C2A30F4
:1038B00000780190201C2B3000780391029015496C
:1038C000301C00F099FA08230BE0012DC7DC01221F
:1038D000E26123620CE0301C0F49A26900F08CFA0F
:1038E0000A232362002304E0236201235B42A361D5
:1038F0002B1C181C09B0F0BD242700202CEA000066
:1039000037EA000040EA000051EA000069EA0000DE
:103910007AEA00008EEA0000ABEA0000036810B506
:103920001B69041C9847002804DDA169034800F0C6
:103930008BFC01E00120404210BDC04680270020E2
:10394000826970B50025041C0562AA4211DB094E8C
:103950000949301C00F050FA08492A1C301C00F0BC
:1039600081FB0748A16900F0ADFB01235B42A36125
:10397000E56170BD24270020ABEA0000102700009D
:103980008027002010B5041C0D4800F091FAA169B1
:1039900000204B1C12D00B4800F0BEFB002808DBB7
:1039A000231C32331B780120002B07D0E369002B46
:1039B00004D12368201C9B6A9847002010BDC04694
:1039C000242700208027002010B5037D041C002B35
:1039D00009D02368201CDB6B98470028F9D0A16927
:1039E0004B1C06D10EE00368DB6B98470028F6D12C
:1039F00008E0054800F090FB002804DA2368201C4A
:103A00009B6A9847002010BD80270020836970B50D
:103A1000041C0E1C151C013301D100200CE0002AEF
:103A2000FBD003681B6998470028F6D0A1690348BA
:103A3000321C2B1C00F018FC70BDC04680270020F3
:103A40007FB50C1C051C134901A803F0CAFA201C01
:103A500001A903F0E8FB061C01A803F07BFA002E85
:103A600017D0201C092103F017FCAB6930389842AD
:103A70000FD1094901A803F0B4FA201C01A903F0F1
:103A8000DDFB041C01A803F065FA002C01D0002323
:103A9000EB617FBDB7EA0000C1EA000008B4024B49
:103AA0009C46103808BC6047413A0000F0B5031C42
:103AB00089B0039133331B78041C151C002B09D0EB
:103AC0002368201CDB6B98470028F9D0A1690131DD
:103AD00007D104E00368DB6B98470028F6D100208B
:103AE00069E0364905A803F07CFA8023291C5B00B5
:103AF0009D4200D9191C4900133105A803F049FA69
:103B000000220192002D4CD080232E1C5B009D4290
:103B100000D91E1C2A4905A803F090FAA16905A83E
:103B200003F028FB274905A803F0FDFA311C05A87E
:103B300003F031FB05A8244903F0F5FA00270399A7
:103B4000019A8B18DA5D0F2113090A40191C0292A1
:103B50003031092B00D9073105A803F0F1FA029999
:103B6000029B3031092B01D9191C373105A80137C7
:103B700003F0E6FAB742E2D3144905A803F0D3FAFA
:103B8000134F0599381C00F013F9231C33331B78AD
:103B9000002B0BD0381C0F49002200F063FA0128DB
:103BA00004D005A803F0D6F9019804E00199AD1BF3
:103BB00089190191A6E709B0F0BDC046A8E500004B
:103BC000CDEA0000AEE60000D9E6000064E900009E
:103BD000242700201027000038B5FA239B008360BB
:103BE000124B0025041C4560181C0830206054331B
:103BF000201C23612275A161E561291C2562243006
:103C000002F0EEFA231C32330122201CE5622586E5
:103C100007491D705A70343003F0E3F9211C10314C
:103C2000044800F00BF9201C38BDC046D8EA00005B
:103C3000A8E500002427002010B50A1C0121041C5F
:103C40004942FFF7C9FF201C10BD836910B5041C51
:103C5000013302D003689B6A9847237D002B0BD069
:103C60002368201CDB6B98470028F9D0237D0120B6
:103C70002062002B07D116E02368201CDB6B9847DD
:103C80000028F3D10FE02368201CDB6B9847002845
:103C900003D1642001F04AFEF5E7A0690130431E1C
:103CA00098410223181A10BD08B549680286021C03
:103CB000002332328162C3621370FFF7C6FF08BD72
:103CC00070B5041C0E1C24300021151C02F090FA63
:103CD000231C32330022E6622586201C1A70FFF76F
:103CE000B4FF70BD07B5002300930348191C1A1CCC
:103CF00002F068FA07BDC0460427002010B5041C76
:103D0000002902D0024800F04DF8201C10BDC0462A
:103D10002427002007B5002300930348191C1A1C10
:103D200002F050FA07BDC0460C27002007B500235B
:103D300000930348191C1A1C02F044FA07BDC04640
:103D40001427002007B5002300930348191C1A1CF0
:103D500002F038FA07BDC0461C27002010B5041C2D
:103D6000203003F0F7F8201C10BD000070B5836010
:103D7000049B061C00252036C3600123041C4260FE
:103D8000057445610576C3610160301C044903F088
:103D900028F9E562301C402103F0FBF8201C70BDBF
:103DA000A8E50000014B01221A7070477C27002013
:103DB00038B5037C041C0D1C002B06D0C068002104
:103DC00002F030F9052001F0B1FD01F077FD6369E3
:103DD000C01A132803D81423181A01F0A7FD291CB0
:103DE000206802F089FA20680368DB68984700239E
:103DF0002376E36138BD00000EB430B50C4CA54409
:103E0000FFAB1833FFAA02CB1832041C126802A8B9
:103E10000849019308F080FF201C02A9FFF7C8FFA2
:103E20008123DB009D4430BC08BC03B01847C0466A
:103E3000F8FBFFFFFF030000C162704710B50023CD
:103E4000054A98008458002C01D1815002E00133CA
:103E50000A2BF5D110BDC0465427002010B5002311
:103E6000054A980084588C4202D10023835002E016
:103E700001330A2BF4D110BD5427002013B5084C90
:103E80002323E1220093201C1F2306495202FFF73F
:103E90006DFF201C0449054A04F0C6FC13BDC04652
:103EA00024270020602C00205D3D00000000002041
:103EB000F0B5041C87B0206803681B699847002888
:103EC00000D1B5E0206803685B699847594BC6B2DA
:103ED0001B78002B03D05848311C02F0ADFF251C85
:103EE0002035281C311C03F02BF9277E012F49D0E7
:103EF0005249684603F075F8281C694603F093F9A7
:103F00000026B0420ED04E4903A803F06AF8281CE0
:103F100003A903F093F9061C701E864103A8F6B2AC
:103F200003F018F8684603F015F8002E02D00123BC
:103F3000237613E0424903A803F053F8281C03A991
:103F400003F07CF9071C03A803F004F8002FB2D09B
:103F5000281C03F0DCFAA36A002B04D1281C394981
:103F600003F06CF8A7E701F0A9FC6061364BF0584C
:103F7000002803D00368291C1B6898470436282EA4
:103F8000F4D1EBE70A2E96D101F098FC2F4960613D
:103F900003A803F026F8281C03A903F0DAF9061C8D
:103FA00003A802F0D7FF731C01D0E7611FE0284986
:103FB00003A803F016F8281C03A903F0CAF9061C8D
:103FC00003A802F0C7FF731C01D002230EE02149B1
:103FD00003A803F006F8281C03A903F0BAF9061C8D
:103FE00003A802F0B7FF731C01D00323E361E36968
:103FF000002B00D15FE7237C002B03D0E068012178
:1040000002F010F8E36A002B0CD0311C281C03F0DE
:1040100078FA281C03F07BFAE06A291C02F0F4FF0E
:104020000023E36200232376281C064903F006F8E8
:1040300007B0F0BD7C270020242A002045E40000C2
:10404000A6E50000A8E5000054270020A4E5000034
:1040500030EB000038EB000010B5041CFFF728FF20
:10406000E06910BD70B5C262041C0D1C01F026FC95
:10407000061C01F023FC801BA84208D2201CFFF77D
:1040800017FFE0690028F4D00023E36208E0002372
:10409000201CE3622030034902F0D0FF012040429F
:1040A00070BDC046A8E5000010B5054A041C0832E2
:1040B00004C00021542207F05DFE201C10BDC04644
:1040C00068EB000010B50C244C430419606800280C
:1040D00005D007F023FE0023A3606360E36010BDFA
:1040E00038B5074B051C083303600024211C281C2D
:1040F0000134FFF7E7FF072CF8D1281C38BDC04674
:1041000068EB000010B5041CFFF7EAFF201C02F06A
:10411000A3F8201C10BD0000F0B50C244C4304197A
:10412000E5688BB0271C02900E1C0837002D77D154
:104130006268002A06D18020800007F0E5FDA060BB
:1041400060607D603A4904A802F04BFF394F80233C
:10415000381C3949321C9B00FFF74EFE381C37498A
:1041600004AAFFF77FFF012854D1354907A802F0C0
:1041700038FF04A807A903F056F8071C07A802F0A7
:10418000E9FE002F48D02F4907A802F02AFF07A90F
:1041900004A803F095F8051C07A802F0DBFE6A1CD2
:1041A00004A8002103F093F9069904A8013903F04B
:1041B000A8F9069B00255B080393039B9D421ED034
:1041C0006B00191C04A8019303F04EF801990778BD
:1041D000013104A803F048F80378392F01D9373F9B
:1041E00000E0303FFFB2392B01D9373B00E0303BD4
:1041F000DBB23F0162683B4353550135DDE70C23D9
:1042000062687343A260029A04A8D318DD6002F0CA
:10421000A1FE05E001256D4204A802F09BFE04E02A
:104220000C235E43029B9E19F568281C0BB0F0BD61
:10423000A8E500002427002078EB000010270000EC
:1042400087EB000064E9000038B5041C0D1CFFF783
:1042500063FF002805D00C235D436419A368187818
:1042600001E00120404238BDF8B51C1C061C0D1CA5
:10427000171CFFF751FF031C0020834211D0A342FB
:1042800000DA1C1C0C235D437519221C381CA9681C
:1042900007F04EFDAA68201C1319EA68AB60131BD7
:1042A000EB60F8BD10B5054C201CFFF7FDFE201C8F
:1042B0000349044A04F0B8FA10BDC0468027002024
:1042C000E140000000000020F8B5051C0F1C161C82
:1042D0000024B44208D02B68395D1B68281C98471D
:1042E000002801D00134F4E7201CF8BD7047031CFE
:1042F000FC33196ADA69914203D01B6AC018007E48
:1043000001E0012040427047031CFC33D8691B6A5E
:10431000C01A01D50130FF3070470000F7B5019396
:10432000FA239B008360134B802600257600083318
:10433000041C0F1C4560291C00920360321C1830BD
:1043400007F018FD231C9022FC335200DD61A018F9
:104350001D62321C291C07F00DFD87229200A31854
:104360005D60019A9D60009B2761A575201C2375E7
:104370006275FEBD90EB000070B50D49041C00692C
:1043800002F030FB206902F0DFF91826207D331C93
:104390004343084D0821EB18595601F08BFE607D10
:1043A00008214643AD19695601F084FE70BDC04630
:1043B000A0860100A0EC00008A2387229B009200C7
:1043C000C154831800225A609A6001238375704794
:1043D000031CFC335A6810B501329C68D2B2A24269
:1043E00002D05C6801555A6010BDF7B50025041C69
:1043F000171C0193281CAA423FD0231CFC33DD610B
:1044000020691D62012202F0DBF9A8421FD0231CA3
:1044100018332069009302F04BFA011C0098FFF753
:10442000D7FF0125BD4205D0206902F01FFA061E04
:1044300013D100E00126206902F09AF9019B002BBC
:1044400007D0002E07D02069032102F0A3F9E8B2BB
:1044500013E0002EFBD1013DF9E7206902F090F94D
:104460000221206902F096F9206902F021FA011C6C
:104470000098FFF7ADFF0135D4E7FEBD08B5012375
:10448000FFF7B3FF08BD10B5827D00239A420DD01F
:104490008724A4000219546892680134E4B294425B
:1044A00004D02130FF30FFF793FF0123181C10BD0B
:1044B000031CFC3399685A68914206D09A68805C64
:1044C0009A680132D2B29A6001E0012040427047FE
:1044D00070B500228A2382759B00041C0E1CC15CEF
:1044E000006902F06DF9002805D12069032102F06E
:1044F00051F9022523E090235B00E01887239B00FD
:10450000E21851689368CB1A01D50133FF33002BB1
:104510000ED02569FFF7CCFFC1B2281C02F07FF94D
:104520000028E8D12069032102F034F9032506E0D0
:104530001D1C002E03D02069032102F02BF9281C3A
:1045400070BD08B50121FFF7C3FF08BD08B51830DD
:10455000FFF7AEFF08BD38B5041C006902F07DF915
:10456000002800D184E0206902F08EF900280ED1E5
:10457000206902F093F900281FD0206902F089F920
:1045800000281AD0206902F08EF9002815D1206980
:1045900002F0F6F82069032102F0FCF88C239B005E
:1045A000E558002D04D02368201C1B699847A847B4
:1045B000FC340023E36123625AE0206902F06EF9C3
:1045C000031C2069002B19D002F0DAF820690321BE
:1045D00002F0E0F8206902F066F9002848D087224E
:1045E0009200A31800225A609A600123A3758B23BE
:1045F0009B00E35893423BD0984739E002F03FF9E3
:10460000002835D0206902F04EF9002816D0872303
:104610009B00E21851689368CB1A01D50133FF3330
:10462000FF21002B05D090225200A018FFF740FF79
:10463000C1B2206902F004F9A07519E0231CFC3313
:10464000DA691B6A0132D2B220699A4202D102F0C1
:104650008FF809E002F02CF9011C201C1830FFF73C
:10466000B7FE206902F08CF82069032102F092F86D
:1046700038BD000008B50248FFF76DFF08BDC04611
:10468000D827002008B5034803490B220C23FFF765
:1046900045FE08BDD8270020A02E0020002343702F
:1046A0007047000070B50B4C0D1C0178201C161CC7
:1046B000FFF782FE2912201CFBF733FDE9B2201C14
:1046C000FBF72FFD311C201CFFF7DDFE201CFFF740
:1046D00038FF70BDD827002070B50E4C0E1C051C8D
:1046E0000178201CFFF768FE3112201CFBF719FD32
:1046F000F1B2201CFBF715FD201CFFF722FF2978E3
:104700000122201CFFF7BAFE201CFFF71FFFC0B2DA
:1047100070BDC046D8270020F7B5174C0E1C051CED
:104720007C21201C0192FFF747FE2978201C4900BC
:10473000FBF7F7FC201C0021FFF7CAFE7C210322B7
:10474000201CFFF79BFE201CFFF700FF071C201C0E
:10475000FFF7FCFE051C201CFFF7F8FEFFB2EBB2D2
:104760001B113F01DF190F231D40C0B2019B2D0219
:10477000451937801D80F7BDD827002073B56D46D9
:104780000170041C01AE0A480635FFF7F5FD201C38
:10479000311C2A1CFFF7C0FF338800200A2B06D1EA
:1047A0002A88A223DB009A4201D10120607076BDE5
:1047B000D827002038B5041C0D1C081C002101F06E
:1047C000D7FB2560201C38BDF0B50023934214DAD6
:1047D000DD176D0FED18094CED104519CE5C1C402E
:1047E00004D50827013C7F423C430134A640341CD9
:1047F0002E78013334432C70E8E7F0BD07000080C9
:10480000F0B50023002795B00B601760051C0291DE
:104810000068391C039201F005FC0121286801F0B1
:10482000A7FBFA20400001F081F82868391C01F04C
:104830009FFB534A391C286801F096F801F044F8B0
:104840000122041C0192286801F01CFC431E9841BF
:10485000C0B296210090C900381C04F06BF8962372
:104860000E1C9B00994207D99621381CC90004F000
:104870001DF8009A07AB1A54009B019A934208D086
:10488000632E01D8A41B04E0E1239B009E4200D9C3
:10489000A41901F019F83B4B071B9F4202D8009B5B
:1048A0000193D0E700246A4614756E4605A807A94F
:1048B0000522FFF789FF153634706946301C213117
:1048C0000422FFF781FF06AD6946281C25310C2222
:1048D0002C80FFF779FF684669466B461630313108
:1048E00004229C75FFF770FF6A4668466946D475D6
:1048F000173035310422FFF767FF6A46D37D6F46D4
:104900000F2253401A376A466946D3755483381CC0
:1049100039310C22FFF758FF3B881B4F2D88347824
:104920005F400F232B402A12E3189B182E110F22F1
:1049300016409E19281C164006F08AFC0F4B0E4AA2
:1049400005F02EFA06F048FD029B039A18601460E9
:104950006A46137D01201B2B00D104206A46937DFB
:10496000B34200D00220BD4203D16A46D37DA342A8
:1049700000D0032015B0F0BD00000000000024406E
:1049800040420F004FC30000FF0F0000C046C0466A
:104990007723037000234370037143718371704761
:1049A00070B5094C0E1C0178201C151CFFF704FD86
:1049B000311C201CFFF767FD291C201CFFF763FD3D
:1049C000201CFFF7BEFD70BDD8270020F8B50F4CA6
:1049D000051C0F1C0178201CFFF7EEFC391C201C65
:1049E000FFF751FD201CFFF7ACFD2978201C0122A8
:1049F000FFF744FD201CFFF787FC002804D0201C93
:104A0000FFF7A4FDC6B2F5E7301CF8BDD82700209B
:104A100038B5041C7C48FFF7AFFC8921201CFFF748
:104A2000D5FF8821051C201CFFF7D0FF2D0245195A
:104A300025818B21201CFFF7C9FF8A21051C201C22
:104A4000FFF7C4FF2D02451965818D21201CFFF75A
:104A5000BDFF8C21051C201CFFF7B8FF2D02451956
:104A6000A5818F21201CFFF7B1FF8E21051C201C82
:104A7000FFF7ACFF2D024519E5819121201CFFF7BE
:104A8000A5FF9021051C201CFFF7A0FF2D02451952
:104A900025829321201CFFF799FF9221051C201CE1
:104AA000FFF794FF2D02451965829521201CFFF721
:104AB0008DFF9421051C201CFFF788FF2D0245194E
:104AC000A5829721201CFFF781FF9621051C201C41
:104AD000FFF77CFF2D024519E5829921201CFFF785
:104AE00075FF9821051C201CFFF770FF2D0245194A
:104AF00025839B21201CFFF769FF9A21051C201CA0
:104B0000FFF764FF2D02451965839D21201CFFF7E7
:104B10005DFF9C21051C201CFFF758FF2D02451945
:104B2000A5839F21201CFFF751FF9E21051C201CFF
:104B3000FFF74CFF2D024519E583A121201CFFF74B
:104B400045FF631CD877E221201CFFF73FFFE121DE
:104B5000051C201CFFF73AFF2D0245196584E3214F
:104B6000201CFFF733FF631DD877E421201CFFF7DB
:104B70002DFFE521051C201CFFF728FF0F231840FF
:104B80002B01C518E584E621201CFFF71FFFE52156
:104B9000051C201CFFF71AFF0009C0B22D014519A2
:104BA0002585E721201CFFF711FF231C2A331870ED
:104BB000F421201C0022FFF7F3FEE278A3781C25E5
:104BC00092005B012A401A43D2B2201CF521FFF764
:104BD000E7FEA27907231A40201CF221FFF7E0FE2E
:104BE0006178237903225B010A401A436379201C10
:104BF0009B001D401543EAB2F421FFF7D1FED021FE
:104C0000201CFFF7E3FE38BDD8270020000000007D
:104C1000F0B5F7218DB00190FFF7D8FEF82109908B
:104C20000198FFF7D3FEF9210A900198FFF7CEFE15
:104C3000019E0B90F16A0A1CCB17161C1F1C5F49C2
:104C40005D4836184F41321C3B1C301C391C03F0A8
:104C500079FF0290039101980199008B019A0690C7
:104C6000C98A019B0791928A301C089210229A5E91
:104C7000391CD31703F066FF030D040301980D03DD
:104C80001222825E1D4302980399D31703F05AFF44
:104C90000A069446020A604602430B12101C191CB5
:104CA00000196941464A474B80185941019BDA89EE
:104CB000002303F047FF4810031CC9170490059117
:104CC0000B430020002B72D006990AB2D31702982A
:104CD000039903F037FF079B041C1AB2D3170D1C6E
:104CE000301C391C03F02EFF8C46664673040A9E66
:104CF000C10B3701099E0B434204A4185D413303E5
:104D00000B9E3B433209D2B2134380225203D31A83
:104D1000089EDF175A08F90737B21143D807002257
:104D2000FB0012196B41801A9941274A274B03F067
:104D300009FF049A059B03F0E1FE0D1C4F13CB0401
:104D40000199041C460B1E20085E1E43321C3B1CAE
:104D5000C11703F0F7FE321C3B1C03F0F3FE019A6F
:104D6000460E1C20105ECB01221C1E434F162B1C2E
:104D7000C11703F0E7FE36196F41C20C4C03224302
:104D8000CB14B6185F41300A019E3B061A24345FEB
:104D90001843E617250F33012B43220139128018DF
:104DA000594103F029FFEE21890504F077F90DB090
:104DB000F0BDC046C046C046000CFEFFFFFFFFFF2F
:104DC0000000000000800000350C00000000000022
:104DD00038B5FD21041CFFF7F9FDFE21051C201C40
:104DE000FFF7F4FDE16A214A8B18290201432620CE
:104DF000225E89031205891A2820225E5A43891AE5
:104E00008022D2018918221C2A321078621DD27F9A
:104E100058435A4380231B02D2128012D2184243B5
:104E200080208003921212182220235EC9135A4355
:104E300080239B01D21892134A43D3135B4301345E
:104E4000E07FDB1143431B11D31AD843C01718402E
:104E5000C8235B05984200DD181C001304F0D8FB42
:104E6000EA21890504F01AF938BDC04600D4FEFFD6
:104E700070B5FA21041CFFF7A9FDFB21061C201CBC
:104E8000FFF7A4FDFC210501201CFFF79FFD360361
:104E900000093543C0B22843228903119B1A5B43A2
:104EA0000C25615FC0101B1352004B43821A0A216C
:104EB000605E9B134243D2129B18052058438030FA
:104EC000E362001204F0A4FB014903F003FF70BD8C
:104ED0000000C842002303707047000008B5044B6F
:104EE0001B68002B00D09847024B01221A7208BDA4
:104EF0000C2A0020001400400378002B0AD0064B37
:104F0000081C197F072210409143014319779A7AB0
:104F1000D209FCD17047C04600140040014B196013
:104F20007047C0460C2A00200378002B0AD0064B9D
:104F3000081C19693F2210409143014319619A7A74
:104F4000D209FCD17047C046001400400378002B02
:104F50000BD0064B3F2211408A01186904490140D9
:104F6000114319619A7AD209FCD1704700140040AC
:104F70003FF0FFFF0378002B0BD0064B1F221140A0
:104F80000A03186904490140114319619A7AD20948
:104F9000FCD1704700140040FF0FFEFF70B5161CD7
:104FA0000278041C0D1C002A0AD0191CFFF7BCFF54
:104FB000201C311CFFF7CAFF201C291CFFF7DAFF59
:104FC00070BD00000378002B0BD0064B1F22114050
:104FD0004A04186904490140114319619A7AD209B7
:104FE000FCD1704700140040FFFFC1FF0378002B85
:104FF0000BD0064B0F2211408A0518690449014065
:10500000114319619A7AD209FCD17047001400400B
:10501000FFFF3FFC0378002B09D0054B8A06196976
:1050200089018909114319619A7AD209FCD1704723
:105030000014004070B51D1C0378041C161C002BC6
:1050400009D0FFF7BFFF201C311CFFF7CFFF201C4A
:10505000291CFFF7DFFF70BD0378002B0AD0064B39
:10506000081C99693F2210409143014399619A7A43
:10507000D209FCD17047C046001400400378002BD1
:105080000BD0064B3F2211408A0198690449014028
:10509000114399619A7AD209FCD1704700140040FB
:1050A0003FF0FFFF0378002B0BD0064B1F2211406F
:1050B0000A03986904490140114399619A7AD20917
:1050C000FCD1704700140040FF0FFEFF70B5161CA6
:1050D0000278041C0D1C002A0AD0191CFFF7BCFF23
:1050E000201C311CFFF7CAFF201C291CFFF7DAFF28
:1050F00070BD00000A4B0B4A9A605A7852B2002ADF
:10510000FBDB0949064A51605A7852B2002AFBDBA0
:105110000649034A51805A78D209FCD17047C046EB
:10512000000C0040020300000203110004420000D2
:105130000378002B05D0034B034A5A809A7AD20990
:10514000FCD17047001400400080FFFF08B5FFF756
:10515000EFFF024B18693F23184008BD00140040C0
:1051600008B5FFF7E5FF024B18690005800E08BD82
:105170000014004008B5FFF7DBFF024B1869C003BD
:10518000C00E08BD0014004008B5FFF7D1FF024B68
:1051900018698002C00E08BD0014004008B5FFF772
:1051A000C7FF024B18698001000F08BD00140040C2
:1051B00008B5FFF7BDFF024B1869800E08BDC04659
:1051C00000140040044B02211A888A431A809A7AFC
:1051D000D209FCD17047C04600140040044B0221A4
:1051E0001A880A431A809A7AD209FCD17047C046BD
:1051F00000140040044B01211A880A431A809A7A4D
:10520000D209FCD17047C04600140040044B012174
:105210001A888A431A809A7AD209FCD17047C0460C
:1052200000140040F7B52C4B0F1C9A6920210A434B
:105230000026051C9A61294CB7420AD1284B1A78DE
:1052400070231A4246D023881A0743D522690126C3
:105250000192281CFFF74EFF281CFFF7B3FF281C04
:10526000FFF7C8FF62881F4B134063801E4B2380EB
:10527000A27A1A4BD209FBD11C4A08211160C02125
:10528000890050580002000A5050DA7901210A437F
:10529000DA711A7F07218A431A77A37ADB09FCD1D6
:1052A000281CFFF79BFF281CFFF7B0FF002F08D139
:1052B000002E06D0019B002B03D0084B019A1A61E7
:1052C00002E08423DB032361A37ADB09FCD1012301
:1052D0002B70F7BD3E1CBCE70004004000140040EA
:1052E00038040040FFBFFFFF080A000000E100E0B3
:1052F000014B00221A707047102A0020064B022131
:105300001A788A431A70D979034AC909FBD193796B
:1053100001210B43937170470010004008B50069EC
:1053200003689B69984708BD08B500690368DB6896
:10533000984708BD13B50069044C03684968DB69E8
:10534000019100946946984716BDC04608F00000D8
:1053500008B5006903681B6A984708BD08B500696D
:105360000368DB6A984708BD0069431E9841C0B2D4
:105370007047006C70470164704738B5031C3833C0
:105380001B78041C002B07D003681B699847002872
:1053900002D1012040421FE0206903685B69984701
:1053A000031C002B18DBE11CCA7F181C151C083DD0
:1053B000022D11D8A06A00280ADC181C0A2A0BD179
:1053C000E36B013BE363002B06D10923CB7703E0BA
:1053D000E06A0130E062F0E738BD10B5041C0069F6
:1053E00003685B6A9847E31CDB7F083B022B07D806
:1053F000A26A002A04DD002802DBE26A1318E362D5
:1054000010BD73B5C51CEB7F041C092B21D120698D
:1054100003681B69984700281BD0206903685B69F3
:105420009847C6B20A2E01D1EE7712E00D2EEED0CB
:10543000C0B206F05FFC0028E9D0E36B01A80021B0
:105440001022018006701E0106F088FE3618E66301
:10545000DDE7EB7F0A2B04D1E36B002B01D109239D
:10546000EB77EB7F0020092B0AD0206903681B69CA
:105470009847EB7F0A2B03D1E36B984200DD181CA1
:1054800076BD00000023C21CD37701225242826203
:10549000074A43621268C3620263064A12684263A3
:1054A000021C38321370C363034B03647047C04659
:1054B000080000200C0000203075000038B51D1CCD
:1054C00000234360FA239B0083600C4B041C0833C9
:1054D000036001614261183000F06CFE221C44320E
:1054E0000123201C2584064913705370483001F0B5
:1054F00078FD201CFFF7C6FF201C38BDB8EB00006C
:10550000A8E5000010B5041C006903689B6A984771
:10551000201CFFF7B7FF10BD10B5041C006900F098
:10552000D9FE03340223E37710BD38B5C31CDB7FFB
:10553000041C0D1C012B01D8FFF7EEFF2069291C6C
:1055400003681B68984738BD70B5C31CDB7F041C1B
:105550000E1C151C012B01D8FFF7DEFF2069311C42
:1055600003682A1C5B68984770BD0000036870B52B
:105570005B69041C9847E31CD97FFF250A1C083A85
:10558000022A01D828405DE0C2B205292FD00729A0
:1055900038D0042945D1256B2978914209D1691C5D
:1055A0002163697800293CD10525DD77A162E1629C
:1055B00037E0616B0E78964209D14D1C65634978DE
:1055C00000292ED1211C012538310D700CE01E4E12
:1055D0003668B54208D11D4D2D68A94204D10D2A67
:1055E00002D10722DA7722E00621D97719E00540B7
:1055F000291C30390929F7D8A66A0A257543691884
:10560000A1620EE00A2A12D1221C38321278002A36
:1056100004D00922DA770022E26304E00822DA7774
:1056200001E00A2A03D1DA7F083A022A01D8C0B27F
:1056300008E00422DA77044B1B682363034B1B68E2
:105640006363F4E770BDC046080000200C00002032
:1056500070B5041C00F032F9061CE51CEB7F083B1A
:10566000022B14D900F02AF9236C801B98420ED229
:105670002368201C1B699847002803D0201CFFF7D3
:1056800075FFE7E7FA20800000F050F9E5E7EB7FCF
:10569000083B022B02D90320404200E0002070BDED
:1056A00010B5C31CDB7F041C083B022B01D9FFF79C
:1056B000CFFFA06A10BD38B5C31CDB7F041C083BBC
:1056C000022B03D8FFF7ECFF013001D1002008E0E6
:1056D000201CE56AFFF7E4FFEA17C30F85425A4131
:1056E000D0B238BD08B5FFF7E6FF08BD08B5FFF733
:1056F000E2FF08BD07B5002300930348191C1A1CDC
:1057000000F060FD07BDC046142A002007B5002345
:1057100000930348191C1A1C00F054FD07BDC04635
:105720001C2A002008B52020012100F021FC0021C6
:10573000202000F077FC0A2000F0F8F8002120205B
:1057400000F016FC642000F0F1F8202000F0A2FB2D
:105750001F20012100F00CFC1F20012100F062FC41
:105760002320012100F004FC2320002100F05AFC3A
:1057700008BD000008B5024801F0FAFA08BDC046AD
:10578000242A002008B5024801F0F2FA08BDC046FC
:10579000602C00207FB51949194800F03FFF1949D6
:1057A000194800F03BFF194C1949201C00F036FF46
:1057B0001849194800F032FF1849194800F02EFF27
:1057C000184E1949301C00F029FF01250323311C14
:1057D000009301950D220E23144801F0D5F9022300
:1057E00001931C2302931D2300950393211C1B226C
:1057F0001A230F4801F076F97FBDC0460008004229
:10580000A02E0020000C0042A42E0020A82E002074
:1058100000100042001400429C2E0020001800429C
:10582000AC2E0020B02E0020001C0042242A0020B4
:10583000602C0020FEE7000008B5034B1B68002B1E
:1058400000D0984708BDC046B42E002038B50F4997
:105850000F4CA14204D100F0C7F800F0D9FC0BE0D6
:105860000C4D8D42F7D00023CA18E818A24204D28A
:10587000006804331060F7E7FEE79042EBD0064B78
:10588000064A9342E7D2002204C3F9E70000002051
:105890009001002030F400009001002048350020E5
:1058A00008B500F05EF8002801D100F04FF808BDFF
:1058B000014B18607047C046B42E0020014B186899
:1058C0007047C046B82E0020F7B5144D144CA96897
:1058D0001448626803685201D20F2E1C271C8446AC
:1058E000B0687D6801906D016046ED0F0468AA42C2
:1058F00003D02A1C231C0199F2E7A342FAD1019894
:105900008142F7D30548D2184068FA23411A064865
:105910009B0048435343000DC018FEBD10E000E05B
:1059200000ED00E0B82E00205555000070B5041EB3
:1059300008D0054B1D681E1C00F012F833685B1B75
:10594000A342F9D370BDC046B82E002008B5034B62
:105950001A6801321A6000F027FE08BDB82E002038
:1059600070470020704700001823F7B55843194BC3
:10597000171CC01842684B1E99410125002695400E
:105980008657154C4942154B29400191206814490E
:10599000F601F61802F08AFF0D21784302F086FF27
:1059A000291C031C019A301C02F032FE031C00204B
:1059B00083420DD00B4DFA226B43FA2192018900EC
:1059C00020689D1802F072FF011C281C02F06EFF77
:1059D000FEBDC046A0EC00001000002020440041A5
:1059E00040420F00C832000070B5494A1E2153687A
:1059F00002208B430343474953608B6908242343A8
:105A00008B61454C454B9C829C8A20439882101C9C
:105A1000DA689407FCD5424A012414701478E5072B
:105A200004D53F4C647864B2002CF7DB0124946009
:105A3000547864B2002CFBDB3A4D394C65605478E5
:105A400064B2002CFBDB8225354CED016580547877
:105A500064B2002CFBDB02249C84DC68E606FCD5E7
:105A6000314D2E4CE562DD682C4CEE06FBD5A58C45
:105A70002E4E3543A584DD68284CEE06FBD5A58C5B
:105A800002263543A584DC682506FCD5234CE46852
:105A90006606F8D5DC68E506FCD5002494605478E9
:105AA00064B2002CFBDB224D1D4C656055781C4C0C
:105AB0006DB2002DFADB1E6A1E4D35401D621D6A57
:105AC0008026B5431D620323A3601B4B636053789C
:105AD0005BB2002BFBDB00230B72184A4B728B72FC
