:1000000000800020AD1C0000391C0000391C0000DD
:1000100000000000000000000000000000000000E0
:10002000000000000000000000000000391C00007B
:100030000000000000000000391C0000011D00004D
:10004000391C0000391C0000391C0000391C00005C
:10005000FD1F0000391C0000391C0000991C000025
:10006000391C0000851B000079010000391C0000CC
:100070005D1A0000391C0000951B0000391C0000AF
:10008000391C0000391C0000391C0000A5010000CB
:1000900089010000391C0000391C0000391C0000D7
:1000A000391C0000391C0000391C0000391C0000FC
:1000B0000000000010B5064C2378002B07D1054B3B
:1000C000002B02D0044800E000BF0123237010BDC4
:1000D0002001002000000000A474000008B5084BB7
:1000E000002B03D00748084900E000BF0748036819
:1000F000002B03D0064B002B00D0984708BDC0460C
:1001000000000000A4740000240100201001002061
:100110000000000010B501F001FE124C2368C01A67
:10012000642813D901F0FAFD0F4B01211A782060E1
:100130004A401A701B780D48002B02D000F0D3FB08
:1001400001E000F0ADFC0A4B01221A7001F0E6FD5F
:100150002368C01A074B984202D801F0DFFD2060E7
:1001600010BDC046D0010020F80100203C01002055
:10017000FA0100205F79FEFF08B5024802F00EFE8A
:1001800008BDC04600020020044B01221A70044B37
:1001900010219A7B0A439A737047C046440100209D
:1001A00000340042044B01221A70044B10219A7B48
:1001B0000A439A737047C046F9010020003000429C
:1001C00008B5064876230122037004234270C370E9
:1001D0000271437100F0B0FC08BDC04674010020FC
:1001E00038B50C4CF421201C00F084FCFC23021CCC
:1001F0001A400132D2B2F421201C00F065FC201C10
:1002000000F07AFE044D2860201C00F095FD686027
:1002100038BDC04674010020D801002038B5074D14
:10022000281C00F0DEFF064CA060281C00F0F8FF40
:10023000E060281C01F013F8206138BD4601002061
:10024000D801002038B5074D281C01F027F8064CCE
:100250006061281C01F041F8A061281C01F05CF8E5
:10026000E06138BD46010020D801002008B5012119
:100270001E2001F0E1FF642001F056FD00211E2048
:1002800001F0DAFF642001F04FFD01211E2001F092
:10029000D3FF642001F048FD00211E2001F0CCFFB7
:1002A000642001F041FD01211E2001F0C5FF642002
:1002B00001F03AFD1E20002101F0BEFF0A200121BD
:1002C00001F0BAFF08BD000008B51E20012101F0B1
:1002D00059FF0220002101F055FF1A20002101F0F2
:1002E00051FF0A20012101F04DFF0E20012101F0F4
:1002F00049FF0820012101F045FF0920012101F0FB
:1003000041FF0420012101F03DFF022002490422A7
:1003100001F0DCFD08BDC04615010000891808B5D4
:1003200003F084FF174BC10F5A6C0918C901120E54
:10033000090A12060A435A649A68D105FCD4114A84
:10034000106499680F4A0806FBD450791F210140B8
:1003500080204042014351719A685107FCD499684A
:10036000084AC806FBD4506B07490002000A8842BD
:1003700006DD516B090E090651639A68D106FCD45B
:1003800008BDC04600200042A0860100F7B500234A
:100390000193734B1A78002A0AD0724C00222178FC
:1003A0001E201A7001F048FF237801225340237069
:1003B0006D4B1A78002A00D19FE06C4800F063FA78
:1003C0006B4904F0D5FA04F06DFDF423FF33984235
:1003D00004DC684B984203DA674801E0FA204000E9
:1003E000664C20601D303A2802D80A20002101E026
:1003F0000A20012101F020FF614D2B78002B2AD02B
:100400002168E1205F4A604B4000814203DD6421A6
:10041000116032221EE0C8204000814201DDC82167
:1004200011E096267600B14202DD1060962211E0BE
:10043000962904DD962189001160C8220AE032293C
:1004400004DDC82189001160642203E0FA218900DB
:10045000116000221A604D4E3378002B14D0FA211F
:100460004B4849002268FFF759FF00222A7001F02B
:1004700055FC484F434B3A681B68D318984213D336
:100480000023337001230BE02B7001F047FC414F38
:100490003D4B3A681B68D318984205D3012333704B
:1004A0002B7001F03BFC3860384B1978002902D1E1
:1004B0000A2001F0C1FE384D384B0A221968281C69
:1004C00001F0F1FF364E281C311C01F08BFF216832
:1004D0000A22FF31FF31281C01F0E5FF311C281CE6
:1004E00001F080FF21682A48FF31FF3103F09EFEB2
:1004F0000A22011C281C01F0DAFF1B4A1378002B8A
:1005000023D000231370FFF789FEFFF79BFEFFF750
:1005100067FE244D244E281C716800F0A4F9234C7A
:100520007168201C00F09FF9281C00F0ACF9051C34
:10053000201C00F0A8F9011C281C04F043FB1C4BF4
:10054000011C1860094800F08EF91A4B1A78002A2D
:1005500005D00022104818491A7001F055FFF7BD68
:10056000F9010020CC010020440100206C01002092
:10057000000020420DFEFFFF0CFEFFFFC001002027
:1005800004000020D40100203C040020B40100201D
:1005900000127A00A401002000020020B001002017
:1005A000C76D0000A8010020D8010020B80100207C
:1005B000FC010020FA010020CD6D000073B5234836
:1005C00000F079FA00216B22214800F0D5FC214E81
:1005D000301C00F03FF9204C204D221C291C301CFF
:1005E00003F0C4FD1E4E301C00F034F9291C221CFF
:1005F000301C03F0BBFD1B4E301C00F02BF9291CF6
:10060000221C301C03F0B2FD174E0521301C0422C1
:1006100000F064F9154D221C291C301C03F0A6FDC6
:10062000134E0421301C0A1C00F058F9291C301C00
:10063000221C03F09BFD01230093002301930D492D
:1006400025220B230C4802F0B5FA73BD740100207B
:1006500046010020A8010020000000205D080000E5
:10066000B80100206C010020C4010020E508000052
:100670003C0100200C0B002000020020F8B55E4C6D
:10068000E121201C490202F01DFA0221252001F07F
:1006900003FE02210B2001F0FFFD5849201C01F050
:1006A000B3FEFFF711FE0420011C01F0F5FD0A2046
:1006B000002101F0C1FD524C0321201CFF2200F05B
:1006C00029F9201C00F00FF94E4CFF226421201C58
:1006D00000F020F9201C00F006F9FFF771FD002161
:1006E000494800F0ADFE4948494901F059F8494FE1
:1006F0004949381C00F0B3F8484D4949281C00F01E
:10070000AEF8484C4849201C00F0A9F80A2001F036
:100710000BFBFFF765FD0A2001F006FB434E381C7A
:10072000716800F09EF87168281C00F09AF80021AA
:10073000201C00F096F80A2001F0F6FAFFF796FD6B
:100740003B4B8022196A52000A431A62394B062237
:10075000FF329A605A78D209FCD13749354A516044
:100760005A78D209FCD13549324A51805A78D20997
:10077000FCD1334A022113688B4313609168304BDC
:100780008807FBD418682F490140196018682E4962
:1007900001401960D96B02200143D9639168284B4D
:1007A0004806FBD4586CC821000E0006090101431D
:1007B00059649368D905FCD4FA21214B8901196445
:1007C00093681F481906FBD4204C80210902E16779
:1007D0001F4BC02464001951C324A4001D592D02CD
:1007E0002D0A1D511960036802210B4303609368B1
:1007F0009807FCD4F8BDC04600020020D46D00006C
:100800003C010020C40100204601002040040020DB
:10081000801A0600A80100208FC2753CB801002094
:100820008FC2F53C6C0100209A99193ED801002036
:1008300000040040000C0040050623001A4500009B
:1008400000200042FFF8FFFFFFCFFFFF04E100E0C0
:1008500000E100E00023036043607047704741609F
:1008600070470160704738B50568041C081C291CD6
:1008700004F0A8F9616804F07BF8011C281C03F05F
:10088000EDFD206038BD00687047000010B50028FD
:1008900010DAC0B20F230340083B0E4A9B08032125
:1008A0009B009B180840DA698840FF2181408A43F9
:1008B000DA610DE08208084B9200D2180324C023AD
:1008C0009B002040D158A040FF248440A143D15038
:1008D00010BDC04600ED00E000E100E00339017109
:1008E000427170477047036802211A880A431A80D0
:1008F0000268D37B5BB2002BFBDB704701680123EE
:100900000B800368DA7B52B2002AFBDB1A88D1071E
:10091000FCD47047F0B5594E8DB006AD03910292EC
:1009200001952B1C311C05AD041C85C985C3032210
:10093000281C06F059F909AB1A1C103683CE83C265
:1009400022794F4E9100C95801232160A95C1F22D2
:1009500011401F1C8F40391CF1672179494F695C98
:100960000A40C021934049007B502379E856FFF7A5
:100970008DFF454B454A196A0A401A621A6A80215E
:100980008A431A621A6A40218A431A621A6A022149
:100990000A431A6202983E4B617902021A400F2301
:1009A0000B401A433B4B9A605A78D209FCD16179CB
:1009B0000F221140384A1143364A51605A78D20901
:1009C000FCD16179F022120109021140227906AFAF
:1009D0009200BA5811438022D20111432D4A89B2A4
:1009E00051805A78D209FCD1201CFFF787FF236879
:1009F00060211A88294892B21A8023681A880A430B
:100A00001A80236802211A880A431A80029903F087
:100A10000DFC039903F00AFC2668013880B230838C
:100A20002268D37B5BB2002BFBDB23790126EB5CD6
:100A30001F273B401249301C9840C8672379114852
:100A4000EA5C331C3A4093401A1CC023B340C250A6
:100A50002379E856FFF71AFF23790A49EB5C1F4018
:100A6000BE4023680E605A7B10210A435A732268E5
:100A7000D37B5BB2002BFBDB0DB0F0BDEC6D000057
:100A800004E100E000E100E000080040FFFCFFFF9F
:100A900000FFFF00000C00400006210000127A0059
:100AA000036802211A888A431A800268D37B5BB2EA
:100AB000002BFBDB70477723037000234370037127
:100AC000437183717047000070B5094C0E1C0178AA
:100AD000201C151C00F072FE311C201C00F0C7FE0B
:100AE000291C201C00F0C3FE201C00F01EFF70BD5E
:100AF00040040020F8B50F4C051C0F1C0178201C89
:100B000000F05CFE391C201C00F0B1FE201C00F03F
:100B10000CFF2978201C012200F0A4FE201C00F00C
:100B2000E7FD002804D0201C00F004FFC6B2F5E762
:100B3000301CF8BD4004002038B5041C7C4800F08F
:100B40000FFE8921201CFFF7D5FF8821051C201CE2
:100B5000FFF7D0FF2D02451925818B21201CFFF7BF
:100B6000C9FF8A21051C201CFFF7C4FF2D0245196F
:100B700065818D21201CFFF7BDFF8C21051C201CE9
:100B8000FFF7B8FF2D024519A5818F21201CFFF723
:100B9000B1FF8E21051C201CFFF7ACFF2D0245196B
:100BA000E5819121201CFFF7A5FF9021051C201C49
:100BB000FFF7A0FF2D02451925829321201CFFF786
:100BC00099FF9221051C201CFFF794FF2D02451967
:100BD00065829521201CFFF78DFF9421051C201CA8
:100BE000FFF788FF2D024519A5829721201CFFF7EA
:100BF00081FF9621051C201CFFF77CFF2D02451963
:100C0000E5829921201CFFF775FF9821051C201C07
:100C1000FFF770FF2D02451925839B21201CFFF74C
:100C200069FF9A21051C201CFFF764FF2D0245195E
:100C300065839D21201CFFF75DFF9C21051C201C66
:100C4000FFF758FF2D024519A5839F21201CFFF7B0
:100C500051FF9E21051C201CFFF74CFF2D0245195A
:100C6000E583A121201CFFF745FF631CD877E22113
:100C7000201CFFF73FFFE121051C201CFFF73AFF76
:100C80002D0245196584E321201CFFF733FF631D06
:100C9000D877E421201CFFF72DFFE521051C201C3F
:100CA000FFF728FF0F2318402B01C518E584E62124
:100CB000201CFFF71FFFE521051C201CFFF71AFF72
:100CC0000009C0B22D0145192585E721201CFFF739
:100CD00011FF231C2A331870F421201C0022FFF777
:100CE000F3FEE278A3781C2592005B012A401A43A8
:100CF000D2B2201CF521FFF7E7FEA27907231A40A4
:100D0000201CF221FFF7E0FE6178237903225B01CA
:100D10000A401A436379201C9B001D401543EAB228
:100D2000F421FFF7D1FED021201CFFF7E3FE38BDF0
:100D30004004002000000000F0B5F7218DB00190C4
:100D4000FFF7D8FEF82109900198FFF7D3FEF921AB
:100D50000A900198FFF7CEFE019E0B90F16A0A1CE3
:100D6000CB17161C1F1C5F495D4836184F41321CBB
:100D70003B1C301C391C03F0DFFA029003910198F0
:100D80000199008B019A0690C98A019B0791928A6A
:100D9000301C089210229A5E391CD31703F0CCFA4B
:100DA000030D040301980D031222825E1D43029875
:100DB0000399D31703F0C0FA0A069446020A604664
:100DC00002430B12101C191C00196941464A474B7B
:100DD00080185941019BDA89002303F0ADFA4810CD
:100DE000031CC917049005910B430020002B72D0FF
:100DF00006990AB2D3170298039903F09DFA079B4C
:100E0000041C1AB2D3170D1C301C391C03F094FAC1
:100E10008C46664673040A9EC10B3701099E0B433C
:100E20004204A4185D4133030B9E3B433209D2B206
:100E3000134380225203D31A089EDF175A08F9077A
:100E400037B21143D8070022FB0012196B41801AF8
:100E50009941274A274B03F06FFA049A059B03F048
:100E600047FA0D1C4F13CB040199041C460B1E209E
:100E7000085E1E43321C3B1CC11703F05DFA321C96
:100E80003B1C03F059FA019A460E1C20105ECB0160
:100E9000221C1E434F162B1CC11703F04DFA3619A6
:100EA0006F41C20C4C032243CB14B6185F41300A89
:100EB000019E3B061A24345F1843E617250F3301C1
:100EC0002B43220139128018594103F059FAEE21BF
:100ED000890503F04DFD0DB0F0BDC046C046C046CB
:100EE000000CFEFFFFFFFFFF00000000008000007D
:100EF000350C00000000000070B5FA21041CFFF75B
:100F0000F9FDFB21061C201CFFF7F4FDFC21050167
:100F1000201CFFF7EFFD360300093543C0B228431C
:100F2000228903119B1A5B430C25615FC0101B13C0
:100F300052004B43821A0A21605E9B134243D21235
:100F40009B18052058438030E362001203F0CAFF6B
:100F5000014903F0E7FB70BD0000C8426B234370FA
:100F60000A2383700170002901D1427002E0012937
:100F700000D182707047000010B5041CFFF7EEFF2F
:100F8000FA22D2000123E280C821D0229A4099405F
:100F9000237123736373A373E373A375E3752376DC
:100FA0006376084B228163830A2361816282102168
:100FB0006422A3830023201C2182A282A37723849E
:100FC000638410BDB80B000070B5061C081C03F04C
:100FD00089FF05F025F90D4B0B4A04F01FFE041C98
:100FE000308A0D1C401005F0A9F8021C0B1C201CB7
:100FF000291C04F013FE064A064B04F0EBFA05F038
:1010000061F970BDC046C04608AC1C5A643BAF3F96
:101010000000000000408F4070B5C0880C1C022604
:10102000F52803D07D2103F0B3F8C6B2201C03F0ED
:1010300059FF05F0F5F80D4B0B4A04F0EFFD041CC9
:10104000301C0D1C05F07AF8021C0B1C201C291CFE
:1010500004F0E4FD064A074B04F0BCFA05F032F94F
:1010600070BDC046C046C046000000000080114070
:101070000000000000408F40F8B50578041C0F1CEC
:10108000161C002D12D0012D24D18078002101F0F2
:10109000D3F8391C104800F053FD311C0E4800F005
:1010A0004FFDA078291C01F0C7F813E00B4D4178E3
:1010B000281C00F083FB391C281C00F0D8FB311CD5
:1010C000281C00F0D4FB281C00F02FFC431E984184
:1010D000C0B200E00020F8BD7C06002040040020E3
:1010E000F7B51F1C0378041C0E1C0192002B0FD0B7
:1010F000012B44D18078002101F09EF8019B8021D2
:101100001943244800F01CFD0023351C019327E0FF
:10111000214D4178281C00F051FB0199281C00F05A
:10112000A6FB281C00F001FC6178281C3A1C00F08A
:1011300099FB341C281C00F0DBFA00281FD0A31BED
:10114000DBB2BB421DD31AE01248002100F0F8FCCC
:10115000FF2803D1019B0133DBB2019328700135D5
:10116000AB1BDBB2BB42EFD3019BBB4201D00025DE
:1011700000E00525A078012101F05EF807E00025D8
:1011800005E0281C00F0D6FB20700134D2E7281CB3
:10119000FEBDC0467C0600204004002037B501ACEF
:1011A0000D1C0223211CFFF79BFF637822781B0292
:1011B00013432B803EBD37B56D460635291C2822CA
:1011C000041CFFF7EBFF002808D0052803D1238C6F
:1011D0000133238402E0638C013363840023E85EDF
:1011E0003EBD10B5041CFFF7E6FF011C201CFFF7F5
:1011F000EBFE10BD37B56D460635291C2A22041CAE
:10120000FFF7CCFF002808D0052803D1238C013339
:10121000238402E0638C013363840023E85E3EBDD7
:1012200010B5041CFFF7E6FF011C201CFFF7CCFEE5
:1012300010BD37B56D460635291C2C22041CFFF75E
:10124000ADFF002808D0052803D1238C0133238467
:1012500002E0638C013363840023E85E3EBD10B579
:10126000041CFFF7E6FF011C201CFFF7ADFE10BDBC
:1012700037B56D460635291C2222041CFFF78EFF68
:10128000002808D0052803D1238C0133238402E0F1
:10129000638C013363840023E85E3EBD10B5041CFB
:1012A000FFF7E6FF011C201CFFF7B6FE10BD37B5A7
:1012B0006D460635291C2422041CFFF76FFF002809
:1012C00008D0052803D1238C0133238402E0638CEA
:1012D000013363840023E85E3EBD10B5041CFFF7B4
:1012E000E6FF011C201CFFF797FE10BD37B56D46C9
:1012F0000635291C2622041CFFF750FF002808D0C1
:10130000052803D1238C0133238402E0638C01334D
:1013100063840023E85E3EBD10B5041CFFF7E6FFC2
:10132000011C201CFFF778FE10BD0000F7B5077800
:10133000051C0191141C002F1CD0012F36D1807880
:10134000002100F079FF1C4E80212143301C00F069
:10135000F7FB0021301C00F0F3FB391C041CA878BB
:1013600000F06AFF231CFF3B5A42534105205B42B9
:1013700018401DE0114E4178301C00F01FFA211C6E
:10138000301C00F074FA301C00F0CFFA6978301C81
:10139000012200F067FA3C1C301C00F0A9F900287B
:1013A00006D0301C00F0C6FAC4B2F5E70020041CD9
:1013B000019B1C70FEBDC0467C060020400400203E
:1013C00073B50478051C002C16D0012C17D1194ECA
:1013D000301C00F07BFB301C0C2100F0A9FB301C02
:1013E000211C00F09BFBA878211C00F0CBFEA87804
:1013F000211C00F021FF02E00F4800F0B1F96B461C
:10140000002206331A700D4A1978013A0131C9B227
:1014100092B21970002AF7D16C460734281C211C9F
:101420000F22FFF783FF20786938431E9841C0B22E
:1014300076BDC0467C060020400400201027000036
:10144000F7B56C4600230634051C0E1C2370FFF70D
:10145000B7FF071C002E23D02B793370EB887380E5
:101460002B89B3806B89F3802B7B33726B7B737218
:10147000AB7BB372EB7BF3722B8AB3816B8AF38104
:10148000AB8A3382AB7DB374EB7DF3742B7E337503
:101490006B7E73756B8BF382AB8B3383AB7FB376D1
:1014A000AA7B00232370012A76D1AB8A642B0BD050
:1014B00003D8322B0DD1032307E0C82B07D0C82255
:1014C0005200934207D004E00223237003E022700D
:1014D00001E09023AB732B8A042B08D002D8022B97
:1014E00011D00AE0082B05D0102B08D005E0237896
:1014F000082206E023780C2203E010232B822378B5
:101500000422134323706B8AD022520093422FD0BF
:101510000ED8342B21D006D80D2B1BD01A2B1FD15F
:101520002378202236E0682B1CD0D02B1DD017E06A
:10153000594A934225D006D8584A93421BD0584A5C
:1015400093421BD00CE0574A93421DD0564A934217
:101550001DD005E0237810221CE02378302219E00A
:1015600068236B822378402214E02378502211E014
:10157000237860220EE0237870220BE0227880230B
:1015800007E02278702304E02278602301E02278CB
:1015900050235B421343237022781021281CFFF74D
:1015A0006BFD1322281C211CFFF7C0FE22787F232D
:1015B0001340EA7B2370012A03D180225242134355
:1015C00023702278281C1321FFF756FD0023237077
:1015D0002B79012B53D1EB88FA225200934210D081
:1015E00004D87D2B0BD0F52B14D00EE0FA229200FC
:1015F000934208D0FA22D200934209D005E0022398
:1016000007E0042305E0082303E0FA23DB00EB8076
:101610000C2323702B89682B20D008D81A2B15D0C7
:10162000342B16D00D2B17D12378102225E0D02291
:101630005200934218D002D8D02B12D00CE0174A97
:10164000934214D0164A934214D005E02378202206
:1016500013E02378302210E068232B812378402286
:101660000BE02378502208E02378602205E02378FD
:10167000702202E0802322785B4213432370227899
:10168000281C1121FFF7F8FC6946281C07310F229E
:10169000FFF74CFE381CFEBD020D000041030000A8
:1016A0007C060000041A000012340000002070477D
:1016B000F8B5051C0F1C161C0024B44208D02B687A
:1016C000395D1B68281C9847002801D00134F4E7D5
:1016D000201CF8BD7047031CFC33196ADA6991427B
:1016E00003D01B6AC018007E01E001204042704711
:1016F000031CFC33D8691B6AC01A01D50130FF30C6
:1017000070470000F7B50193FA239B008360134BE9
:101710008026002576000833041C0F1C4560291C18
:1017200000920360321C183005F067FA231C9022E7
:10173000FC335200DD61A0181D62321C291C05F02B
:101740005CFA87229200A3185D60019A9D60009B5D
:101750002761A575201C23756275FEBD086E00000B
:1017600070B50D49041C006901F080F9206901F091
:101770000AF81826207D331C4343084D0821EB1836
:10178000595600F089FD607D08214643AD19695620
:1017900000F082FD70BDC046A0860100306E0000E2
:1017A00038B5041C0D1C006901F001F8291C2069E2
:1017B00001F05CF9206900F0E6FF38BD8A2387223A
:1017C0009B009200C154831800225A609A60012342
:1017D00083757047031CFC335A6810B501329C684E
:1017E000D2B2A24202D05C6801555A6010BDF7B572
:1017F00001930023041C151C181C9A4231D0221C92
:10180000FC32D36120691362012201F003F8002841
:1018100025D0206901F06DF8271C1837011C381CF1
:10182000FFF7D8FF01262069AE420ED000F0D2FFAC
:101830000221206900F0D8FF206901F05AF8011C4C
:10184000381CFFF7C7FF0136EDE700F0BAFF019B38
:10185000002B05D02069032100F0C6FF00E0051C25
:10186000E8B2FEBD08B50123FFF7C1FF08BD10B502
:10187000827D00239A420DD08724A4000219546867
:1018800092680134E4B2944204D02130FF30FFF773
:10189000A1FF0123181C10BD031CFC3399685A6872
:1018A000914206D09A68805C9A680132D2B29A60FE
:1018B00001E001204042704770B500228A23827502
:1018C0009B00041C0E1CC15C006900F0A3FF0028F3
:1018D00005D12069032100F087FF022523E0902332
:1018E0005B00E01887239B00E21851689368CB1ACD
:1018F00001D50133FF33002B0ED02569FFF7CCFF54
:10190000C1B2281C00F0B5FF0028E8D120690321EE
:1019100000F06AFF032506E01D1C002E03D020699D
:10192000032100F061FF281C70BD08B50121FFF7FD
:10193000C3FF08BD08B51830FFF7AEFF08BD38B5C6
:10194000041C006900F0B3FF002800D184E0206986
:1019500000F0BBFF00280ED1206900F0C0FF002876
:101960001FD0206900F0B6FF00281AD0206900F0CF
:10197000BBFF002815D1206900F02CFF206903214E
:1019800000F032FF8C239B00E558002D04D0236823
:10199000201C1B699847A847FC340023E36123629D
:1019A0005AE0206900F09BFF031C2069002B19D02E
:1019B00000F010FF2069032100F016FF206900F0FD
:1019C00093FF002848D087229200A31800225A6073
:1019D0009A600123A3758B239B00E35893423BD06D
:1019E000984739E000F06CFF002835D0206900F0FE
:1019F0007BFF002816D087239B00E218516893686C
:101A0000CB1A01D50133FF33FF21002B05D09022E3
:101A10005200A018FFF740FFC1B2206900F03AFF62
:101A2000A07519E0231CFC33DA691B6A0132D2B2BB
:101A300020699A4202D100F0C4FE09E000F059FF8B
:101A4000011C201C1830FFF7C5FE206900F0C2FE03
:101A50002069032100F0C8FE38BD000008B5024827
:101A6000FFF76DFF08BDC0464004002008B50348DD
:101A7000034914221523FFF745FE08BD400400204A
:101A8000040B0020437A002B04D18372C372C3601D
:101A900001234372704730B585B0041C02AD006865
:101AA0000291039200F01EFE6B79E179227A009395
:101AB0002068002300F0B6FF29792068029A00F020
:101AC000E1FD206800F004FE05B030BD70B5041CD7
:101AD0001826FFF7D7FF2079331C43430D4D08210B
:101AE000EB18595600F0D8FBA079331C434308216A
:101AF000EB18595600F0D0FB607908214643AD1928
:101B0000695600F0C9FB044B201C06CBFFF7C3FF4E
:101B100070BDC046306E00007406002008B5006835
:101B2000002901D1012100E0002100F0E5FD08BD00
:101B300008B50068032900D8042100F0F1FD08BDB4
:101B400008B5006800F004FE08BD0000094B0A4A11
:101B50000A491A6000225A711A71094B196016213C
:101B60001971182199711721597101215A72D9716E
:101B70001A7270477406002000093D00140B002003
:101B80007C06002008B5024801F008F908BDC046EF
:101B9000C808002008B5024801F000F908BDC04699
:101BA0008C060020F7B5164F1649381C00F0D2FC01
:101BB0001549164800F0CEFC1549164800F0CAFC3D
:101BC0001549164800F0C6FC1549164800F0C2FC3D
:101BD000154D03260124281C144900F0BBFC391CB8
:101BE0000096231C01940022114800F0E3FF0096A8
:101BF000291C01941F221E230E4800F0DBFFF7BDB5
:101C0000080B002000080042000C00420C0B0020D2
:101C100000100042100B002000140042040B0020B2
:101C200000180042140B0020180B0020001C00427A
:101C3000C80800208C060020124B00221A70DA79A6
:101C4000D209FCD1104A1149916011495160517873
:101C5000C909FCD10F490C4A51801A7901210A4364
:101C60001A715A780F218A435A701A7804218A43CC
:101C70001A70D979034AC909FBD1137802210B43A1
:101C80001370FEE700100040000C0040020400004A
:101C9000020311000342000008B5034B1B68002B30
:101CA00000D0984708BDC0461C0B002038B50F492E
:101CB0000F4CA14204D100F055F800F051FB0BE0AD
:101CC0000C4D8D42F7D00023CA18E818A24204D266
:101CD000006804331060F7E7FEE79042EBD0064B54
:101CE000064A9342E7D2002204C3F9E7000000202D
:101CF00020010020B074000020010020AC11002061
:101D000008B500F02CF8002801D100F01DF808BD3E
:101D1000014B18607047C0461C0B0020014B18682F
:101D20007047C046200B002070B5041E08D0054B3C
:101D30001D681E1C00F012F833685B1BA342F9D328
:101D400070BDC046200B002008B5034B1A68013255
:101D50001A6000F0C5FB08BD200B00207047002072
:101D60007047000070B5494A1E21536802208B431A
:101D70000343474953608B69082423438B61454CD7
:101D8000454B9C829C8A20439882101CDA689407F9
:101D9000FCD5424A012414701478E50704D53F4C61
:101DA000647864B2002CF7DB01249460547864B248
:101DB000002CFBDB3A4D394C6560547864B2002C42
:101DC000FBDB8225354CED016580547864B2002C34
:101DD000FBDB02249C84DC68E606FCD5314D2E4CEE
:101DE000E562DD682C4CEE06FBD5A58C2E4E354306
:101DF000A584DD68284CEE06FBD5A58C022635436C
:101E0000A584DC682506FCD5234CE4686606F8D575
:101E1000DC68E506FCD500249460547864B2002C9C
:101E2000FBDB224D1D4C656055781C4C6DB2002DBE
:101E3000FADB1E6A1E4D35401D621D6A8026B543C1
:101E40001D620323A3601B4B636053785BB2002BBE
:101E5000FBDB00230B72184A4B728B72CB72174B51
:101E6000FF211A60164B174A1B6812685C01D20EDC
:101E7000214011439A06520F12020B1C1343124ABF
:101E80001385436880221343436070BD00400041C6
:101E9000000400400C06000000080040000C004058
:101EA00001050100B905FF7D040A000000070300D9
:101EB000FFFCFFFF03060100006CDC0208000020AD
:101EC000246080002060800000400042F7B51823A5
:101ED000434301923F4A1625D3185D57071C0091D2
:101EE000681C76D0102D74D03B4B3C4C1E68002EE5
:101EF00027D1311C44223A4804F07FFE311C442291
:101F0000384804F07AFE384B384910221E60CA6700
:101F1000374BC02149005A50C12189005858FF262B
:101F2000B04358501A60334A334B5A802378022208
:101F3000134323706378DB09012BFBD0264B01226E
:101F40001A6063690126AE40334300216361381C87
:101F500000F0A2F90099002939D0234A1368171C10
:101F60009C4600231E499A00634504D08858B0421D
:101F700003D00133F6E701333B608E50194B0099D3
:101F80009950072D03DD083DAD00012301E0AD00B0
:101F90000023124A9B009B189A690721A9400198C7
:101FA0008A439A61042812D89A6902F0E7F8030577
:101FB00007090B00052106E0042104E0032102E0EB
:101FC000022100E00121A9400D1C15439D61B6B21C
:101FD000E660F7BD306E0000B00B00200018004036
:101FE000680B0020240B0020AC0B002004E100E073
:101FF00000E100E005400000000C0040F8B50024BE
:10200000094B1B689C420DD2084E094FA50033694D
:10201000EA591A4204D0074BEB589847EB59336101
:102020000134EDE7F8BDC046AC0B002000180040BD
:10203000680B0020240B0020314BFA21186810B5E2
:10204000890002F0A5F82F4B0138984224D82E4A77
:102050002E4B5060186AC0210002000A0906014395
:1020600019620024072194601160196A8022090214
:10207000090A12060A431A62254BFC211A6A0A430E
:102080001A62196AFC2292010A431A62196AA02292
:10209000D2020A431A6200E0FEE7201C002101344C
:1020A00000F070F8142CF8D11A4C63785BB2002B56
:1020B000FADB194B6380194B5A7ED209012AFAD0F8
:1020C000E422D2009A803F22DA70597E134AC9096D
:1020D0000129FAD0C0235B0100201361907000F049
:1020E00023F863785BB2002BFBDB0D4A094B5A8067
:1020F0000C4BDA79D209012AFAD041225A7010BD6C
:1021000008000020FFFFFF0010E000E000ED00E00D
:1021100000040040000C00401E400000004000424F
:10212000214000000048004200B5144A517E131CB3
:10213000C9090129F9D00138042813D81969104AAE
:102140000A401A615A780F218A4302F017F80305F2
:1021500009070300012102E0032100E002210A43F4
:102160005A700AE01169F0231B050B431361537881
:102170000F218B4302210B43537000BD00400042EE
:10218000FFFFFFF010B51824021C201C5043274B02
:102190001818007A40B2013046D0032944D8081CF0
:1021A000211C01F0EBFF02331121624398569A186B
:1021B000C3011F4852681B1899184031022008704B
:1021C0000121914059602FE06243985618499A18AE
:1021D0005268C3015B18991840310620087001212C
:1021E0009140596099611FE051435A56104859185F
:1021F0004B68D2011118C818403006240470012021
:10220000984048600B49521850600DE06243985660
:102210009A18C301064852681B18991840310220C9
:10222000087001219140996010BDC046306E0000D9
:10223000004400411044004118235843134AF0B5AC
:10224000131808241C5701341FD08256104ED20197
:102250005D6801249019231C8668AB401E420BD197
:102260000E1C771EBE41401934404030A500047852
:102270000426B4432C430470002903D105495218A5
:10228000536002E0024E92199361F0BD306E00007F
:10229000004400411044004118224243F8B52D4D3E
:1022A0000824AA181457031C621C50D0481C002490
:1022B0000C284CD801F062FF071E1E1E1E1E1E1E9B
:1022C0001E0A0A0A0A000124644240E0092902D1D8
:1022D000181C002103E00A2904D1181C0221FFF771
:1022E00051FF23E000240B2931D1181C0121FFF7F5
:1022F00049FF2CE018225343EA185268EB5601209C
:10230000141C04405508DB01002C11D0124C1B1981
:102310005D1930352E780C010F21314021439A1878
:10232000C9B22970403213781843107000240EE0AF
:10233000094E0F279B195D1930352E789A18BE4328
:102340003143C9B229704032137818431070201CF1
:10235000F8BDC046306E00000044004170470000E8
:1023600010B5FFF769FE04F005FCFFF7F7FF012049
:10237000FFF7DAFC084C201C01F052F8201C01F099
:10238000C7F8FEF77BF9FEF701F8044B002BFAD0F3
:1023900000E000BFF7E7C046631000200000000027
:1023A000F7B58A18061C0D1C01920C1C019B671BBB
:1023B0009C4207D0336821781B68301C9847013451
:1023C0000028F3D1381CFEBD38B5051C0C1C081EB6
:1023D00007D004F0C9FC2B68021C5B68281C211C78
:1023E000984738BD08B5FFF7EFFF08BD08B503688B
:1023F0001B68984708BD000008B50249FFF7E4FFD5
:1024000008BDC0468072000038B5041CFFF7DCFF31
:10241000051C201CFFF7F0FF281838BDF0B58DB063
:10242000161C0BAB002201900C1C1A70012E00D858
:102430000A266D462B35201C311C01F0EDFE201CB8
:10244000CFB2311C01F0A4FE291C041C092F01D8B5
:10245000303700E03737FFB22F70013D002CEAD152
:102460000198FFF7B1FF0DB0F0BDF8B5041C0D1CCD
:10247000161E04D10368C9B21B68984712E00A2AE5
:102480000DD100290ADA2D21FFF7B0FF6942071CA0
:10249000321C201CFFF7C2FFC01903E000E0D2B2DB
:1024A000FFF7BCFFF8BD08B5FFF7DFFF08BD38B583
:1024B000041CFFF7DAFF051C201CFFF79DFF2818FE
:1024C00038BD0000014B18607047C0460C0000206A
:1024D000024B012252421A607047C0460C00002095
:1024E000154A1368581C25D0013B1360002B21D1DD
:1024F00072B6124A124B04329A4207D8BFF34F8F7A
:10250000104A114BDA60BFF34F8F11E00F4B197D6A
:10251000C807FBD5188B2021FF31920852000143D8
:102520001983DA610A4A1A801A7DD107FCD5E5E7DA
:10253000C046FDE77047C0460C00002000000000C8
:10254000030200000400FA0500ED00E00040004135
:1025500002A5FFFF01607047F7B508AC2678046854
:102560009D1E27686C1EA541ECB2920705683A4390
:1025700027063A432A600268072529405068B501BA
:10258000002C00D05C03294301430C435460F7BD89
:1025900030B50368C0251C68AD0312052A402243EC
:1025A000C024A402090421401143196003685A6839
:1025B00014435C6030BD036801211A680A431A6045
:1025C0000268116801231942FBD1D1691942F8D17F
:1025D0007047036802211A680A431A600268D369C7
:1025E0009907FCD47047000038B50268041C137EBC
:1025F000DA070CD4FFF792FB051C2268137E9A07BA
:1026000005D4FFF78BFB024B401B9842F5D938BD30
:10261000E7030000036800225A8370470368187EAE
:102620004007C00F70470368187EC00970470368F1
:102630008022197E52420A431A7670470368588BEB
:102640008007C00F7047036802215A8B0A435A83E0
:1026500070470368187E0123184070470368188D7F
:10266000C0B2704703681A7E01200242FBD0198570
:102670007047036801229A757047036801221A7532
:102680007047000070B5036801268D07ED0F3140DB
:102690001C686D070907294321431960046851002C
:1026A000034801F075FD0138C0B2207370BDC0460B
:1026B000006CDC02036801211A680A431A60026890
:1026C000116801231942FBD1D1691942F8D1704731
:1026D000036802211A680A431A600268D3699907DD
:1026E000FCD470470368DA699107FCD41A680221A8
:1026F0008A431A607047000038B5041C0D1CFFF7B0
:10270000F1FF236801221540AA0704491D68201C17
:102710000D4015431D60FFF7DBFF38BDFFFFFFBF16
:1027200070B5041C0D1E10D0FFF7DCFF291C0748F4
:1027300001F07CFD4100054801F02AFD26680138C2
:10274000C0B23073201CFFF7C3FF70BD006CDC0209
:1027500003689A6A520A52021143996203681A7E08
:102760005107FCD5986AC0B27047036801211A6806
:102770000A431A600268116801231942FBD1D1692A
:102780001942F8D17047036802211A680A431A6097
:102790000368DA699107FCD45A8B30218A431021EF
:1027A0000A435A830268D3695907FCD47047036807
:1027B00002211A688A431A600268D3699907FCD417
:1027C00070470368802219685968D2020A435A6028
:1027D000704700000368034A196859680A405A6044
:1027E0007047C046FFFFFBFF30B5036803241D6838
:1027F0000C40074A596824040A40ED0622436D0F35
:102800005A60052D03D10268D3695907FCD430BD45
:10281000FFFFFCFF49001143036830B5CDB2598B6F
:10282000032409092140012904D0598B09090C40CE
:10283000022CF4D1596AC90AC902294359620368B2
:10284000002A03D11A7ED107FCD50DE0187E0122A3
:102850004008104008D1197E1142F7D05968C022B3
:1028600092020A435A6003E05B8B01209B08984365
:1028700030BD0368283319700268107E01231840A8
:1028800003D1518B1942F8D003E0528B181C9208E7
:1028900090437047036828331970036800201A7E3C
:1028A000510703D55B8B01209B0898437047036851
:1028B0001868C006400F043843425841C0B2704700
:1028C0000368187E4007C00F70470368187E012315
:1028D000184070470368588BC006C00F70470368E4
:1028E000187E8007C00F70470368588B0007C00F21
:1028F000704703681A68D206520F052A02D11A7E61
:102900009107FCD528331878C0B270470368224A73
:1029100030B5934211D0214A934211D0204A9342BC
:1029200011D0204A934211D01F4A934211D01F4A1E
:10293000934230D10E2319220DE0092314220AE01C
:102940000A23152207E00B23162204E00C2317228A
:1029500001E00D231822DCB2154901209B08A0409C
:102960009B0008605B180320C021890004405D586B
:10297000E000FF248440A5432C1CC0258540281C72
:10298000204358508023DB011A430A4B5A805A785F
:1029900052B2002AFBDB30BD00080042000C0042AE
:1029A000001000420014004200180042001C0042C7
:1029B00000E100E0000C0040F8B5041C151C0E1CE2
:1029C0001F1CFFF7A3FF201CFFF7F5FDB1001C2221
:1029D0000A4069072368090C0A431A6022688423A5
:1029E0009375012E1AD10821012D00D110210C4B15
:1029F00079431868C00001F0CBFB236807219A894E
:102A00000140D2044903D20C0A439A81236800048E
:102A1000C20C9889400B400310439881F8BDC04612
:102A200008000020F7B5019308AB041C1F780D1CAB
:102A3000161CFFF73FFE201CFFF768FFBF070C22A4
:102A40001743C022920336051640C02292022D047D
:102A500023683E4301991540354307221D600A4013
:102A60008021236889020A435A60F7BD70B5041CAF
:102A70000E1CFFF74BFF201CFFF777FE2368142284
:102A80001A600D4B71001D682468281C01F080FB42
:102A90000A49061C281C01F07BFB7D23FA215843C0
:102AA000C90001F075FB301AE668FF2305381840AD
:102AB0009E430643E66070BD0800002040420F00C0
:102AC0000120704708B50368014A1B6A984708BD92
:102AD00013040000031CFC33D9699A69914203D0A6
:102AE000DB69C018007D01E001204042704710B54D
:102AF000041C0069FFF75FFD221C0023FC32936178
:102B0000D36186229200A4186360A36010BD000008
:102B1000F0B587B001930CAB1B78802602930DAB08
:102B20001B78002503930EAB1B78760004930FAB44
:102B30001B78041C0593FA239B008360194B0F1C20
:102B40000833009245600360291C321C143004F0E5
:102B500054F8231C8E22FC3352009D61A018DD61C5
:102B6000321C291C04F049F886229200A3185D60EB
:102B7000009A9D6089239B002761E254019A0A4BC9
:102B8000201CE254029A094BE254039A084BE25487
:102B9000049A8A239B00E254059A8E239B00E254F8
:102BA00007B0F0BD90720000250200002602000070
:102BB0002702000030B585B0041C08A8057809A8D4
:102BC000007800950190FF2002900390201CFFF7F1
:102BD0009FFF201C05B030BDF023081C1840303882
:102BE000434258417047F0231B01194080239B004A
:102BF00099420CD0C0239B00994206D080235B00F1
:102C00000520994204D0002002E0072000E00620C1
:102C100070470F231940012905D002394B424B411F
:102C20000220C01A00E0002070470000F0B58923A0
:102C300085B003919B00041C1827C05C3B1C4343D8
:102C4000324E0821F3185956151CFFF725FB304B5F
:102C50000821E05C3B1C4343F3185956FFF71CFB6B
:102C60002C4BE25C022A0AD18E239B00E05CFF28F9
:102C700005D047430821F7197956FFF70DFB8A273E
:102C8000BF00E05DFF281AD00121FFF77BFAE35D6A
:102C900018225A43B3562049DB0158188B2189006A
:102CA00060501E49B6185B188C2172688900635009
:102CB000012191400A1C8D21890062501A60012176
:102CC0000A1C039B2069FFF777FE291C201CFFF7D5
:102CD0008AFF291C071C201CFFF79BFF291C061CD0
:102CE000201CFFF779FF391C0090331C206901225A
:102CF000FFF732FC074B2069E15C094BE25CFFF710
:102D000047FC2069FFF765FC05B0F0BD306E0000A0
:102D1000250200002702000018440041144400412D
:102D200026020000031CFC3358689B68C01A01D5BA
:102D30000130FF307047000038B5041CFEF7EEFF8D
:102D4000051C8E235B00E018FFF7ECFF002805D080
:102D5000FEF7E4FF034B401B9842F2D92069FFF7CE
:102D600043FC38BDE703000008B51430FFF7DAFF75
:102D700008BDFC30426883689A4204DB436880687F
:102D8000C01AFF3003E082684368D01A01387047E8
:102D900008B51D30FF30FFF7ECFF08BD38B5041C47
:102DA0000069FFF74BFC002805D02069FFF756FCAF
:102DB0002069FFF748FC2069FFF730FC002820D08D
:102DC0002069FFF74BFC231CFC339A69D969013257
:102DD000D2B28A4203D09969611808759A618A2330
:102DE0009B00E35CFF2B0CD0201C1430FFF7C1FFCD
:102DF000182806DC8B238D229B009200E358A258F2
:102E00001A602069FFF725FC00281FD08E2252008F
:102E1000A518281CFFF786FF031C2069002B13D080
:102E200086229200A31899685A68914206D09A683F
:102E3000A95C9A680132D2B29A6001E0012149424C
:102E4000C9B2FFF70FFC01E0FFF717FC2069FFF79D
:102E5000EAFB002805D02069FFF7E9FB2069FFF7AE
:102E6000D9FB38BD70B5041C00690D1CFFF7F1FBE0
:102E70008E225200A61800280ED0301CFFF752FFF9
:102E800000283DD008E0EFF31083DA0722D41F4B6F
:102E90005A68D205D20D0AD186229200A31858682A
:102EA0009A680130FF2108409042ECD01BE0103AB4
:102EB000D2B253B2002B08DA0F231A40083A144B4F
:102EC00092089200D218536804E09B08C033114A5C
:102ED0009B009B582069FFF7BCFB0028DCD0201C1E
:102EE000FFF75CFFD8E75A6801320A4099688A42C6
:102EF00002D0596875545A602069FFF7BAFB03E0A5
:102F00002069291CFFF7AEFB012070BD00ED00E039
:102F100018ED00E000E100E038B5031CFC33D9698E
:102F20009A69041C914207D0DA698218157DDA6922
:102F30000132D2B2DA6101E001256D428A239B00A1
:102F4000E35CFF2B0CD0201C1430FFF712FF192874
:102F500006DD8C238D229B009200E358A2581A6054
:102F6000281C38BD10B507230F220240141C00098D
:102F70003034092A00DD0734CC54013BF4D210BDB3
:102F800010B5054B041C0360806903F023FEA06AA2
:102F900003F020FE201C10BDD072000010B5041CF0
:102FA000FFF7EEFF201C00F0DDFF201C10BD00002D
:102FB00070B582291ED1C2B22A495301CB189D692E
:102FC000294C80012C40C025AD052C439C61274C29
:102FD0000832201858610B68520199180C7980202A
:102FE000404220430871D15C70208143302001436E
:102FF000D15435E0002933D1C2B21A495301CB185C
:103000009E68194DC0242E40A40526439E60184E8C
:10301000800109683018083258605201505C072658
:10302000B0430126304350549E6935402C439C6187
:103030000E4C5C61505C7024A0431024204350541B
:103040009C680C488A1820408024640320439860C0
:1030500098684021800B8003986053790B4353712B
:1030600070BDC0466C100020FFFFFF8FC00C002019
:10307000840E0020FF3F00F038B5041C08CC01216D
:103080001A78051C0A431A708022201C0021520065
:1030900003F0B3FD2B689A78D107FCD45C6238BD8D
:1030A000134BF0B51B6899035A029B01C90ED20E4F
:1030B0005B0F1F2900D105211F2A00D11D22072BDC
:1030C00000D1032304688E01278D0A491F2539404A
:1030D0003143218501682A400C8DAC4322430A8587
:1030E00002681903108D044B03400B431385F0BD98
:1030F000246080003FF8FFFFFF8FFFFFEFF3108396
:1031000003600123436072B670470368002B02D14D
:1031100062B6BFF36F8F704737B50569041C684608
:10312000002D12D1FFF7EAFF019B013B03D3621D83
:10313000D57FEDB2F9E768460193FFF7E6FF00207F
:10314000854217D0206AE36913E0FFF7D7FF019BA0
:103150000025013B04D3221C34321578EDB2F8E788
:1031600068460193FFF7D1FF0020854202D0206B13
:10317000E36AC01A3EBD0000436810B51A68037ABE
:1031800001215B01D318FF339A7A0A439A72037ABA
:1031900042685B01D318C2689C6891040B4A090914
:1031A00022400A439A60037A42685B01D3189A6806
:1031B0004021920B92039A6043681A68037A08339D
:1031C0005B01D3181A790A431A7110BDFF3F00F052
:1031D000F7B50569041C0E1C171C6846002D1FD18D
:1031E000FFF78CFF019B013B5A1C06D0621DD17F6B
:1031F0005A1E00293AD0131CF6E768460193FFF7E0
:1032000084FF0025E369BD4235D0226A934232D261
:103210005A1CE261A269D3181B7873550135F1E796
:10322000FFF76CFF019B013B5A1C08D0221C343273
:1032300015785A1EEDB2002D18D0131CF4E768461D
:103240000193FFF762FF0025E36ABD4226D0226B9F
:10325000934241D322E0621D0021D17730321678AB
:10326000581E8E4214D1031C5A1CF4D16846019397
:10327000FFF74BFF38E0226A934235D10023E36128
:10328000012323616846FFF739FF019B013BEBE710
:103290001170201C0193FFF76FFFF6E7226B93423A
:1032A00022D10023E36223616846FFF727FF019BD9
:1032B000013B5A1CDAD0221C343200211170013239
:1032C0001678581E8E4201D1031CF2E71170201CA3
:1032D0000193FFF751FFEAE75A1CE262A26AD31892
:1032E0001B7873550135AFE7281CFEBD37B5436821
:1032F000027A1B68083252019A18041CD079012303
:10330000FF21184255D0D371A068656962680140F9
:10331000002D1FD14901521891688904890C21623E
:10332000216A002942D06361A36A68465360FFF7AF
:10333000E5FE019B013B5D1C34D0621D0120D0776E
:103340002F3211785D1EC9B21218002915D11170E3
:103350002B1CF0E74B01D3189A689204920C22635D
:10336000226B002A22D000226261A26968465A605C
:10337000FFF7C4FE019B013B12E001931070684609
:10338000FFF7C3FE15E0221C343201201070621DCD
:10339000D17F5D1EC9B230320029EED111702B1CD5
:1033A0005D1CF0D168460193FFF7AFFE201CFFF7CC
:1033B000E3FE37BD37B500236C46E3710734201CAC
:1033C0000D1C00F019FE2B681818286000F0BCFED8
:1033D000211C00F073FE2B681818286020783EBD71
:1033E00003290BD10D4BB2221B685200985C80213F
:1033F000494201439954022168220CE001290CD171
:10340000064B92221B685200985C8021494201437E
:10341000995402212822FF32995470476C100020E1
:1034200038B5304B00240121051C1A201C70FEF712
:10343000A9FE1A200121FEF7FFFE2B4B19200121C6
:103440001C70FEF79FFE19200121FEF7F5FE274BA9
:103450002021DA6901200A43DA61254B06241A7813
:1034600002431A70234B0F2219789143197019786F
:103470002143197020490C782043087019780A40BC
:103480001A701A7860210A431A701C4B1C4A5A8021
:103490005A78D209FCD11B48FEF73AFC1A4C201C82
:1034A000FFF7EAFD201CFFF7FBFD23687F22197858
:1034B0000A401A701A7804210A431A701A890C21DA
:1034C0008A431A81C121114A890050580002000A1A
:1034D0005050802111601A7802210A431A7001238A
:1034E0002B7038BD800E00206810002000040040C2
:1034F000584400413C44004159440041000C004004
:10350000064000003D3F00006C10002000E100E09C
:103510000078002810D0094B01211B681A898A43C2
:103520001A811A8B08210A431A831A8B04210A4331
:103530001A83034B00221A607047C0466C100020AB
:10354000701100200F4B9A69920B92039A611B68CD
:103550000222FF331A7298798022524202439A71F2
:103560001A7A9007FCD5084B081C997A7F221040E4
:10357000914301439972997A802252420A439A7286
:103580007047C0466C1000200050004110B50B7908
:103590000C1C002B0BD1081C00F03CFD002804D1B2
:1035A000094B9A69920B92039A6101200BE000F09B
:1035B000CBFD211C00F0B6FD0028F6D1024B9A6924
:1035C000920B92039A6110BD6C100020F7B50D1C90
:1035D000832A18D1CAB236495301CB189C693548A1
:1035E000AD012040C024A405204398613248083230
:1035F00045195D610B685201D15C70208143402008
:103600000143D15453E0022A4DD12C4B8900C858B4
:103610000191002802D003681B699847382000F008
:103620009DFC274B224F8026036076000023421D1D
:10363000036203614361C36147608560C660D377FD
:103640002F32041CC36203631370301C537003F0E9
:10365000B7FAA061301C03F0B3FAFF231D406D01DF
:10366000A0627F19B968134A07250A40C02189055D
:103670000A43BA60A16862681940126808314901BA
:10368000885CA843032528438854A26861681340D6
:103690005B01A269CB185A60201CFFF76DFD074B38
:1036A00001995C5003E0081C111CFFF781FCF7BD79
:1036B0006C100020FFFFFF8FC00C00204410002082
:1036C000D072000038B5051C0124064BA200D25868
:1036D000002A06D0211C281C0134FFF777FFE4B232
:1036E000F3E738BD1000002008B5084B8A00D05819
:1036F000002803D003689B68984706E0C9B2044BD2
:103700004901591888688004800C08BD44100020C5
:103710006C10002010B50C1CFFF7E6FF00280CD041
:10372000064BE1B21B680831490159184A798023D8
:103730005B4213434B710223CB7110BD6C10002010
:1037400070B5CAB2134B14485401890159180319B2
:1037500059609D681149083229408025AD022943EE
:10376000996099684026890B890399600368510123
:1037700059180D7935430D715101591889794D0644
:10378000FAD551015918C979CD07FAD50419A0689D
:10379000C0B270BD840E00206C100020FF3F00F00E
:1037A00038B50C4B141C1B680D1CFF335A79402193
:1037B0000A435A710021FFF7C3FFA04200D9201C21
:1037C0000023A34204D0044A9A5CEA540133F8E788
:1037D00038BDC0466C100020840E002010B5C9B260
:1037E0000C48490143189A689204920C3F2A08D960
:1037F000141C9A68403CA404920BA40C920322432C
:1038000002E09A68920B92039A6041188868C0B2ED
:1038100010BDC0466C100020F0B51C1C2F4B85B0AD
:103820001B68061C0D1C0292002B51D02C4F3978BE
:10383000C9B2002902D11920FEF7FEFC64233B70B7
:10384000284BAA00D058002805D0036802995B686D
:10385000221C984740E0301C291CFFF745FFA0427E
:1038600004D2301C291CFFF73FFF041C291C301C0C
:10387000FFF7B4FF1C4FE9B24A0101913968039286
:103880008B18FF335A7A01210A4318495A72AB0147
:10389000C9180298221C03F0A7F9002C1BD0301C79
:1038A000291CFFF721FF002815D1019B3A68083336
:1038B0005B01D31819794020014319710121D97195
:1038C00003995318FF339A7A01210A439A7202E04E
:1038D0000120404200E0201C05B0F0BD7011002026
:1038E00068100020441000206C100020840E00207E
:1038F00013B56C460734221C0123FFF78DFF012806
:1039000001D1207801E00120404216BDF0B51C1C19
:103910003F4B85B01B680E1C0292002B6AD080239F
:10392000DB019C4266D83B4D2978C9B2002902D1FF
:103930001A20FEF781FC642300222B700092002CD9
:1039400056D0354DF7B22B6801933B1C0833019AD2
:103950005B01D3189B79DB091AD0304B30491868CA
:1039600000F016FC2F4B1721584300F011FC3B1CB4
:103970000833019A5B01D318DB799A0708D42A4BE4
:103980009A5D002A38D1421E002835D0101CEEE77F
:10399000254B00229A55251E3F2D00D93F25234A4D
:1039A000B301D318181C02992A1C039303F01CF9C5
:1039B000194A7B01D318039AA9045A619A69890CA0
:1039C000920B92030A439A613B1C019A08335B01F4
:1039D000D3180222DA715979802252420A435A716D
:1039E000009B029A5B1952190093641B0292A6E78E
:1039F00000980BE0012008E001229A557B01ED18A8
:103A0000AB69101C9B0B9B03AB61404205B0F0BD42
:103A100070110020800E00206C1000200800002093
:103A200040420F0070110100B80C0020C00C0020B3
:103A300070B50E4D1C1C8B01ED18281C0E1C111CA2
:103A4000221C03F0D1F8F6B20949760189194D61BB
:103A50008A69084B201C13408B618B69A2049B0B65
:103A6000920C9B0313438B6170BDC046C00C0020B9
:103A70006C100020FF3F00F0F7B5114B01901B7850
:103A80000F1C141C002B19D10E4B1E78002E01D1D7
:103A9000151C08E00C4D0D482E888019361903F0CE
:103AA000A3F82E800AE0002D08D0BA192B1C01982B
:103AB0000021FFF7BDFF36182D1AF4E7201CFEBDCC
:103AC0006210002060100020B60C0020B50B002012
:103AD000F8B50E1C00AF151E012D28D9D31DDB082B
:103AE000DB006A46D21A9546081C03F03DF9013006
:103AF0006C4640000323207063700222AA420ED25B
:103B00003378002B0BD0511CC9B20136A354A94203
:103B100004D0002302326354D2B2EFE72A1C0548D6
:103B2000211CFFF7A9FF431E9841C0B200E000200E
:103B3000BD46F8BD6310002008B5044B00221A7082
:103B4000034B04491A88FFF797FF08BD6010002057
:103B5000B60C0020B50B0020F0B5204A87B0012339
:103B60000026009102A91370051C0296FFF722FCA3
:103B700003AC092701903A1C201C311C03F03DF8CE
:103B800002236370A023E371FA232372029B0122B4
:103B9000DB196380019B62712371104A009B2770BF
:103BA0001670BB4205D1281C211C1A1CFFF764FFAC
:103BB00011E00B4B01221A700A4B211C3A1C281CE5
:103BC0001E800296FFF758FF281C02A9FFF7F2FBA0
:103BD000281CFFF7B1FF012007B0F0BD62100020E4
:103BE00060100020B60C002070B5CE7892B0051C95
:103BF0000C1C022E08D1C9882D48FFF7ADFF031C0D
:103C0000581E8341D8B251E000F09EFA211C00F00A
:103C10006AFA002803D0C3171B1AD80F46E0012EFA
:103C200004D1E2882349112A3BD837E0032E3DD145
:103C3000A278002A05D12049E2880B7893422DD83A
:103C40002FE0022A03D1A279281C1C4904E0012A92
:103C500005D1A2791A49281CFFF73AFF26E0032A6A
:103C600024D1184B01A91868FFF77CF9164B03A95A
:103C70001868FFF777F9154B05A91868FFF772F96F
:103C8000134B07A91868FFF76DF900F05DFA09A951
:103C900000F039FAA279281C01A9DDE7D2B2002A86
:103CA00000D10A78281CFFF7E7FE012012B070BD92
:103CB00063100020F8720000F47200000A73000024
:103CC000E87200000CA0800040A0800044A08000AA
:103CD00048A0800073B5051C48780C1C0B2878D8C8
:103CE00000F04CFA081C7728773E4306474B686F74
:103CF00000206FE0097801AA002903D111705170EA
:103D0000281C09E0002313705370334B1B78012BE0
:103D100000D11370281C002102234FE08A78002371
:103D2000012A04D101AA137053702C4BEEE72A4AE2
:103D3000137049E08E78012E07D1284B01AA00218B
:103D40001E701170281C331C38E0002E08D1224A46
:103D500001231370224A9169890B8903916138E02C
:103D6000A178281CFFF7EEFB33E0281CFFF73CFF8F
:103D700030E0281C00211B4A1FE00A780020D306EF
:103D800028D1281CFFF79EFCA2781549154B022468
:103D90001A600A682A23FF33D05C2043D0544A209B
:103DA000FF30145C01231C4314548A69920B920364
:103DB0008A610EE00C4A281C00210123FFF738FE1F
:103DC00007E08A78084B1A60054B9A69920B9203B8
:103DD0009A61012076BDC046B40B0020611000201E
:103DE0006C1000207011002064100020F8B54B4BBF
:103DF000071C1C78002C00D08FE0494D2868838B6D
:103E000019070ED5201C211CFFF7D2F82B681020B3
:103E10001A1CFF32917A01439172424A14600822BF
:103E20009A832B689A8B50071FD504229A833E4BA6
:103E30001A78002A0AD01A78013AD2B21A701B787E
:103E4000002B03D11A200121FEF7F6F9374B1A781F
:103E5000002A0AD01A78013AD2B21A701B78002BC5
:103E600003D119200121FEF7E7F92B68FF331A7AF5
:103E7000D10626D510221A725A7940210A432C49BC
:103E80005A710A786023381C1A4202D1FFF722FFC8
:103E900001E0FFF77BFB002806D02B688022FF3370
:103EA000997952420A4301E0224B20229A712B68F1
:103EB000FF331A7A500604D540221A72597A0A43FF
:103EC0005A722968FE230E8C00241E40E1B2002E97
:103ED00023D0321C012322411A4216D0221C28680A
:103EE000083252018218D079184203D1D279DA40CF
:103EF0001A4207D0104BA200D058002809D00368FE
:103F00001B6898470123A3409E430134092CDDD14F
:103F100003E0381CFFF764FAF4E7F8BD60100020F6
:103F20006C10002070110020800E0020681000200E
:103F3000840E0020FF5000414410002008B50248C4
:103F4000FFF754FF08BDC04663100020014A024B32
:103F50001A607047005000416C10002008B502F054
:103F60002FFE08BD08B502F035FE08BD3F207047A2
:103F700013B502686B46D97107335468191C0122C6
:103F8000A04716BD08B500690221FFF7ADFB08BDCB
:103F900008B500690321FFF7BDFB08BD38B50D1C4E
:103FA000041C131C006903212A1CFFF7AFFC002826
:103FB00001D10123636038BD10B5054C23685A1C3C
:103FC00004D103685B6998472060031C181C10BD6E
:103FD00088000020074A08B51368591C04D0012145
:103FE00049421160181C03E000690221FFF780FCC0
:103FF00008BDC0468800002008B503780349023395
:10400000037042220248FFF737FD08BD440000203C
:104010006310002010B50178031C42780020A1290C
:1040200008D1212A2FD1184818490722FFF724FD6B
:10403000012028E0212926D1202A05D11349072271
:104040001148FFF7ADFB04E0222A10D19A780F4BFC
:10405000DA710E4B96221968D200914210D1DC79A8
:1040600001231C400CD1FA20FEF72CFA0AE0232A87
:1040700009D1DA789B7812021A43054B1A6002E0E4
:10408000FEF726FA002010BD631000203800002043
:1040900040000020064BFA21890099600549002262
:1040A0000831196004495A6019611A767047C04690
:1040B00074110020187300006310002070B544686C
:1040C0000E1C0025002C09D02368201C5B68311CC5
:1040D0009847002804DB2D18E468F3E7281C01E06A
:1040E0000120404270BD38B544680D1C002C08D03A
:1040F0002368201C9B68291C9847002802D1E4688B
:10410000F4E7201C38BD38B544680D1C002C07D0DE
:104110002368201C291CDB689847E4682D18F5E704
:104120002C7038BD38B544680D1C002C08D02368AD
:10413000201C1B68291C9847002803D1E468F4E779
:10414000201C00E0012038BD064B0122196810B583
:104150001140054805D102240470042444704160D4
:104160001A6010BD981100209011002008B5031CA2
:10417000081C191C02F0EEFC08BD000002B47146D8
:1041800049084900095C49008E4402BC7047C0469A
:10419000002934D00123002210B488422CD30124FA
:1041A0002407A14204D2814202D209011B01F8E78F
:1041B000E400A14204D2814202D249005B00F8E748
:1041C000884201D3401A1A434C08A04202D3001B74
:1041D0005C0822438C08A04202D3001B9C082243A7
:1041E000CC08A04202D3001BDC082243002803D0E5
:1041F0001B0901D00909E3E7101C10BC7047002817
:1042000001D00020C04307B4024802A14018029028
:1042100003BDC046D90000000029F0D003B5FFF768
:10422000B9FF0EBC4243891A1847C046002941D045
:1042300010B4041C4C40A44601230022002900D5E0
:104240004942002800D5404288422CD3012424074B
:10425000A14204D2814202D209011B01F8E7E40025
:10426000A14204D2814202D249005B00F8E78842B1
:1042700001D3401A1A434C08A04202D3001B5C0829
:1042800022438C08A04202D3001B9C082243CC0886
:10429000A04202D3001BDC082243002803D01B09E4
:1042A00001D00909E3E7101C6446002C00D5404208
:1042B00010BC7047002806D003DB0020C043400834
:1042C00001E08020000607B4024802A140180290D5
:1042D00003BDC046190000000029EBD003B5FFF76D
:1042E000A7FF0EBC4243891A1847C0467047C04614
:1042F000002B15D1002A13D1002900D1002807D0A6
:1043000003DB0020C043410802E0802109060020B1
:1043100007B4024801A14018029003BDD1FFFFFF7E
:1043200003B4684601B5029800F062F8019B9E460E
:1043300002B00CBC7047C0469C460304F0B51B0C91
:1043400017043F0C150C1E1C041C000C7E436B4311
:1043500047434543FB18300C1818874202D9802385
:104360005B02ED18030CED1863465C434A433604C8
:10437000360CA118000480194919F0BD0000000096
:1043800070B5164D144C021C061C0B1C1648A418C4
:104390005D41854219D9520504D0F60AF302802600
:1043A00036011E43081C01F0C9FE0D4A0D4B01F0F9
:1043B00035FC0D1C041C301C01F0FEFE2B1C221CC5
:1043C00000F0ECFD01F07EFF70BD8542EAD1A01C3B
:1043D000E1D8E7E7C046C046FFFFFFFFFFFF1F0031
:1043E000000000000000F041FFFF3F00C046C04653
:1043F000F0B583B0161C1F1C0090019102F00CF860
:10440000041C0D1C221C2B1C301C391CFFF794FFB4
:10441000009A019B121A8B410899201C0A604B607C
:10442000291C03B0F0BDC046F0B583B0141C1D1CA0
:104430000090019102F0CCF9221C2B1C061C0F1CD1
:10444000FFF77AFF009A019B121A8B410899301CE2
:104450000A604B60391C03B0F0BDC046F8B543029A
:104460004400C50F4E024800240E2A1C9B09000E72
:10447000C90FB6098D4256D0221A002A00DC83E00B
:1044800000281AD1002E00D06FE0580704D00F2268
:104490001A40042A00D00433590137D50134FF2CC7
:1044A00000D17DE09B015B0AE0B22A1C5B02C405DF
:1044B000580AD20720431043F8BDFF2CE5D08021D5
:1044C000C9040E431B2A00DD27E1311C2020D14006
:1044D000821A9640721E96410E439B1B5801D4D5FA
:1044E0009B019F09381C01F079FF421F97409442BD
:1044F0005ADC141B1F231B1B3A1C9F40611C3B1CD6
:10450000CA405F1EBB4113430024BEE7DB08E0B294
:104510002A1CFF2C04D1002B79D08021C9030B4326
:104520005B025B0AC2E7211A002941DD002822D084
:10453000FF2CAAD08020C00406431B2900DDEAE03E
:10454000301C2027C840791A8E40711E8E410643C8
:104550009B19590199D50134FF2C57D0704901227C
:104560001A400B405B0813438FE7013A002AB4D08E
:10457000FF2CA7D189E7002E00D186E70139002959
:10458000E6D0FF2CD9D180E7002A1DD1621CD2B21F
:10459000012A4DDD9F1B7A0125D5F71A0D1CA1E7D5
:1045A0002A1CFF20002381E75D4BA41A3B406CE7E7
:1045B000002946D1611CC8B201282ADDFF2925D077
:1045C000F3185B080C1C60E7002C13D0FF2818D0F0
:1045D0008024E404524223431B2A4DDD0123F31AB5
:1045E000041C0D1C7AE7002F00D07BE7002200207E
:1045F000002395E7002B3BD0D243002AEFD0FF28C1
:10460000EAD1331CFF240D1C3FE70022FF200023CA
:104610004CE7002C5AD1002B77D0002E00D134E784
:104620009B19580100D430E73D4A012413402CE780
:10463000002C15D1002B2FD1002ED7D0331C0D1CF0
:1046400023E7002C21D1002B53D0C943002904D0EB
:10465000FF284BD01B294FDD01239B19041C78E751
:10466000002B22D1002ED0D0331C0D1CFF240CE7D0
:10467000331C041C0D1C08E71C1C2025D440AA1A5E
:1046800093405A1E93412343A9E7FF282ED080244C
:10469000E40449422343DDE7002E00D1F5E69A1BEE
:1046A000500134D5F31A0D1CEFE6FF24002E00D183
:1046B000EBE68022DB08D203134204D0F608164250
:1046C00001D1331C0D1CDB00FF24DEE6002B0DD0D6
:1046D000FF24002E00D1D8E68022DB08D20313424B
:1046E000F1D0F6081642EED1331CECE7331CFF2460
:1046F000CBE6331C041CC8E61C1C2027CC40791ACE
:104700008B40591E8B412343A7E7331CBDE6131E84
:1047100000D0BAE66AE701261AE70126DDE6C046C0
:10472000FFFFFFFBF0B55F4656464D464446F0B4EA
:1047300046024500C00F85B00F1C760A2D0E80463C
:1047400041D0FF2D26D08024240400212643F600EA
:104750007F3D89468B46F90F7C027800640A000E83
:1047600000918A463CD0FF2834D080231B041C4390
:104770000023E4007F380193009F4346019A7B4069
:1047800049469C4611430F2900D971E0764F8900B4
:104790007F58BF46002E3ED10822022391469B46F9
:1047A000D9E75A46341CC24601920199022937D0F2
:1047B000032900D1CFE0012900D0ABE053460B40E4
:1047C0000022002632E0002E19D104210122894660
:1047D0009346C0E7221C531E9A4102320192CBE756
:1047E00001270197002CC7D0201C01F0F7FD431FC3
:1047F0009C4076235B420021181A0191BCE7301CD3
:1048000001F0ECFD7625431F9E406D4200232D1ADA
:1048100099469B469FE70C23032199468B469AE7CE
:10482000D446012367463B40FF2200267602D2058C
:10483000700ADB071043184305B03CBC904699460C
:10484000A246AB46F0BD80260023F603FF22EDE72B
:1048500000220026EAE78020C00306423BD0044243
:1048600039D1061C26437602760A009BFF22DDE73B
:10487000281A039076016401A64239D3361B1A2206
:1048800001230120311C5B007600002901DBB442CA
:1048900001D8361B0343013A002AF3DC741EA641FB
:1048A000341C1C43039A7F32002A27DD630704D09F
:1048B0000F232340042B00D00434270103D52B4BB6
:1048C000039A1C408032FE2A0BDD012361460B4017
:1048D000FF220026AAE706437602760A4346FF2215
:1048E000A4E7A40101236746660AD2B23B409DE7D4
:1048F000039F1B22013F03970023C2E77E23039FF0
:104900005B42DB1B1B2B07DD012361460B400022B2
:1049100000268BE7D446C5E7221CDA40039B9E3372
:104920009C40231C5C1EA34113435A0704D00F2252
:104930001A40042A00D004335F0105D501236146E3
:104940000B400122002671E79E01624601231340BD
:10495000760A00226AE78026F60326437602760A64
:104960005346FF2262E7C04640730000FFFFFFF797
:10497000F0B55F4656464D464446F0B44402460004
:1049800083B00F1C640A360EC50F002E41D0FF2ED7
:1049900022D080231B0400201C43E4007F3E82467B
:1049A0008046391C4B007F02C90F7F0A1B0E8B46C5
:1049B0003BD0FF2B34D0802212041743FF007F3BF3
:1049C00000215A466A40019252460A430F2A63D890
:1049D0007A48920082589746002C3FD10822022341
:1049E00092469846DDE70195404602282AD1019A71
:1049F00001251540FF2300246402DB05600AED0752
:104A00001843284303B03CBC90469946A246AB46A7
:104A1000F0BD002C27D10420012282469046C0E739
:104A2000391C4A1E91410231CBE70121002FC8D029
:104A3000381C01F0D3FC431F9F4076235B421B1AB6
:104A40000021BEE7032800D1AEE001284FD1019834
:104A500042461040C5B200230024CDE70C230320BA
:104A60009A4680469DE7201C01F0B8FC7626431F3D
:104A70009C4076420023361A9A46984691E7802455
:104A80000025E403FF23B7E75B463C1C01938846FF
:104A9000AAE73C1C8846A7E7250C24043A0C240C02
:104AA0003F04F6183F0C211C231C794353436F43EA
:104AB0005543FB180A0C9B18B1469F4202D980222D
:104AC0005202AD1809041A04090C521894011B0C67
:104AD000611E8C41920EED181443AD012C4323014D
:104AE00005D5012263080120144081441C434B4634
:104AF0007F33002B2DDD600704D00F222240042AD3
:104B000000D00434220103D52D4B1C404B4680338A
:104B1000FE2B17DD019B01251D400024FF236BE7C1
:104B20008020C003044208D0074206D1041C3C4345
:104B30006402640A5D46FF235EE704436402640A7C
:104B4000FF2359E70198A4010125640ADBB205405F
:104B500052E77E235B424A469B1A1B2B05DD019BD5
:104B600001251D400024002346E7221CDA404B4665
:104B70009E339C40231C5C1EA3411343580704D062
:104B80000F221A40042A00D004335A0105D5019B94
:104B900001251D40002401232EE701989C010125D9
:104BA000640A0540002327E78027FF03019B3C435D
:104BB000640201251D40640AFF231DE78073000085
:104BC000FFFFFFF7F8B5C20F430244004D02480053
:104BD000240E161C9B09000EC90FAD09FF2800D139
:104BE0007EE0012779408A4258D0221A002A00DC50
:104BF00089E000281BD1002D00D075E0580704D0B3
:104C00000F221A40042A00D00433590138D5013448
:104C1000FF2C00D183E09B0101225B0AE0B232400D
:104C20005B02C405580AD20720431043F8BDFF2C8D
:104C3000E4D08021C9040D431B2A00DD2DE1291C8D
:104C40002020D140821A95406A1E95410D435B1B7E
:104C50005801D3D59B019F09381C01F0BFFB421FAF
:104C60009740944260DC141B1F231B1B3A1C9F407F
:104C7000611C3B1CCA405F1EBB4113430024BDE7BF
:104C80000122DB08E0B23240FF2C04D1002B7ED0A1
:104C90008021C9030B435B025B0AC1E7211A00298B
:104CA00046DD002826D0FF2CA8D08020C004054374
:104CB0001B2900DDEFE0281C2027C840791A8D4011
:104CC000691E8D4105435B19590197D50134FF2CAD
:104CD0005CD0734901221A400B405B0813438DE7F7
:104CE000002D00D07FE77CE7013A002AAFD0FF2CEF
:104CF000A2D183E7002D00D180E701390029E2D05D
:104D0000FF2CD5D17AE7002A1ED1621CD2B2012A2B
:104D10004EDD5F1B7A0126D5EF1A0E1C9CE701229F
:104D20003240FF2000237BE75D4BA41A3B4065E740
:104D3000002946D1611CC8B201282ADDFF2925D0EF
:104D4000EB185B080C1C59E7002C13D0FF2818D077
:104D50008024E404524223431B2A4DDD0123EB1A35
:104D6000041C0E1C74E7002F00D075E70022002001
:104D7000002390E7002B3BD0D243002AEFD0FF283E
:104D8000EAD12B1CFF240E1C38E70022FF20002351
:104D900046E7002C5AD1002B77D0002D00D12DE70B
:104DA0005B19580100D429E73D4A0124134025E747
:104DB000002C15D1002B2FD1002DD7D02B1C0E1C71
:104DC0001CE7002C21D1002B53D0C943002904D06B
:104DD000FF284BD01B294FDD01235B19041C73E70F
:104DE000002B22D1002DD0D02B1C0E1CFF2405E758
:104DF0002B1C041C0E1C01E71C1C2026D440B21ADC
:104E000093405A1E93412343A9E7FF282ED08024C4
:104E1000E40449422343DDE7002D00D1EEE65A1BAE
:104E2000500134D5EB1A0E1CE8E6FF24002D00D10A
:104E3000E4E68022DB08D203134204D0ED081542D9
:104E400001D12B1C0E1CDB00FF24D7E6002B0DD05C
:104E5000FF24002D00D1D1E68022DB08D2031342CB
:104E6000F1D0ED081542EED12B1CECE72B1CFF24F2
:104E7000C4E62B1C041CC1E61C1C2027CC40791A5C
:104E80008B40591E8B412343A7E72B1CB6E6131E0C
:104E900000D0B3E66AE7012515E70125D7E6C0464D
:104EA000FFFFFFFB4302590A4300C20F1B0E002005
:104EB0007E2B0DDD9D2B0CDC802000040143952B07
:104EC0000ADC9620C31AD9404842002A00D1081CA7
:104ED0007047034BD018FBE7963B9940F4E7C04678
:104EE000FFFFFF7F70B5041E3CD0C60F00D04442C8
:104EF000201C01F073FA9E23251C1B1A962B0CDC38
:104F0000083884406402640ADBB2321C6402DB05A8
:104F1000600AD2071843104370BD992B0ADD0522A1
:104F2000121A211CD1400A1C011C1B318D40691E24
:104F30008D411543052801DD421F9540164C2C403C
:104F40006A0704D00F221540042D00D004346101FB
:104F50000CD59F23181AFF281AD0A401640AC3B2E3
:104F6000321CD3E7002200230024CFE7E408FF2B04
:104F700004D06402640ADBB2321CC7E7002C04D000
:104F80008020C00304436402640A321CFF23BDE78F
:104F9000321CFF230024B9E7FFFFFFFBF8B55F4693
:104FA000564644464D46F0B40C034D00CE0F610A00
:104FB000440F2143C400180380465800400D824628
:104FC000D80F84464046400A530F0343D0006D0D6E
:104FD000371C83465246664500D19DE0AF1A002F2C
:104FE00000DC03E1002A38D1184300D0E4E0630775
:104FF00009D00F232340042B05D0231DA342A44135
:10500000644209191C1C080200D478E0CE4B6A1CCB
:105010009A4200D105E1CD4BE408194048075205FA
:10502000490204430B0B520D371C002000211B03C7
:10503000201C1C0B0B0D1B05C54D234352055208AC
:105040001D4015436D006D08FF07291C39433CBC0A
:1050500090469946A246AB46F8BDBB488542C6D0AD
:10506000802000040343382F00DDECE01F2F00DD1B
:1050700020E12020C01B1A1C814682405846F8407F
:105080000243944658464A469040421E9041FB4097
:10509000624602431F1CA21A9442A4416442C91BE7
:1050A000091B141C0B02A2D549024F0A002F00D184
:1050B000C4E0381C01F092F9021C083A1F2A00DDF6
:1050C000B7E02821091A201C9740C84007439440A4
:1050D000954200DDA9E0551B691C1F2900DDD8E0C1
:1050E0001F22551B3B1C221CAB40CA40AC40651E16
:1050F000AC411343CF401C43391C002577E74807D8
:10510000E4086A05C908520D371C04438E4B9D42C2
:1051100048D009030B0B88E7AA1A9446002A00DC42
:1051200098E05046002853D08748854200D15EE77A
:105130008020000403436246382A00DDFDE01F2A78
:1051400000DD4BE120226046101A1A1C8240824684
:10515000914658466246D0404A46024390465846D9
:1051600052469040421E9041424602436046C34030
:105170001219A242A441644259180919141C0802C8
:1051800000D434E7704B01359D4200D124E16F4BD0
:1051900060081940012323401C1C0443CB071C4317
:1051A000490824E70B1C234300D1C7E180231B03DC
:1051B0000B431B031B0B38E7013F002F64D15846FC
:1051C000221A9442A4416442C91A091B141C69E7BB
:1051D0005846184300D10AE70122524294446046DF
:1051E000002800D0C5E058460219C2E7002F72D14E
:1051F000681C4005400D012800DCDEE05A46A21A7A
:105200009442BF41C81A7F42C71B380200D488E0CD
:105210005A46141BA3459241591A52428F1A6646A8
:1052200044E7371C00230024FFE64849AD1A394003
:10523000DDE6271C28388740002449E7201C01F0C0
:10524000CDF8203038E75A461A43531E9A41D2B25D
:10525000002720E7002A00D0DDE0681C4205520D3F
:10526000012A00DC8EE0384DA84200D1B3E05D4653
:105270002A19A242A441644259180919CC075208BC
:1052800014434908051CB2E62F48854200D0EAE6DF
:10529000ADE62B1C1F3B3A1CDA40131C20296DD0B5
:1052A0003F22551BAF403C43601E84411C430021FC
:1052B00000259CE6381C20381A1CC240101C202FE8
:1052C0005ED04022D71BBB405A461A43531E9A4118
:1052D00002430027DFE6002D3CD01B4DAA4500D13C
:1052E00094E080252D047F422943382F00DDADE076
:1052F0001F2F00DD2CE12025ED1B081C261CA840DB
:10530000FE40AC400643651EAC413443F9405D4667
:105310002C1BA34592415B1A5242991A5546664688
:10532000C0E6131C3B43141C002B00D0BEE6002734
:105330000022002500210024E8E65A461A43531EA5
:105340009A41D2B2002313E7FF070000FFFF7FFF5F
:10535000FFFF0F800D1C254358D0FF43002F51D174
:10536000041BA3459241591A5242891A5546664672
:1053700098E69648854200D0DDE638E6002792E7B9
:105380000023A1E7081C2043002D00D0C0E0002826
:1053900000D1FBE05846184300D128E658460219D0
:1053A000A242A441644259180919141C0A0200D4EB
:1053B0001DE6874B0125194019E6081C2043002DE6
:1053C00039D100286DD15946194300D1BDE0191CCF
:1053D0005C4666460BE6051C2A1CABE76046203897
:1053E0001A1CC24060469146202800D1ABE0402202
:1053F000121A93405A461A43531E9A414B461A4377
:105400000023B5E6714DAA4500D06EE7191C5C4635
:1054100055466646EBE5002D1ED10D1C254373D085
:10542000D543002D6DD15C445C45924159185242E0
:1054300089185546A3E6002849D15946194300D199
:1054400096E0191C5C466646604DD0E50C43611E33
:105450008C41E4B200215AE75C4DAA4554D0554234
:10546000802210040143382D00DD85E01F2D00DD72
:1054700095E02022501B0A1C84468240201CE840F4
:105480000243904662469440601E84414246144363
:10549000E9405C445C459241CB185242991855460C
:1054A0006DE65846184300D1A1E55846271ABC427C
:1054B0009241C81A5242801A02026AD55846041B09
:1054C000A3459241591A5242891A66468FE55846B9
:1054D000184336D04807E40804438020C908000375
:1054E000014208D0DD08054205D15946CA085C07CB
:1054F0001443291C6646630FC9001943E400334D69
:1055000075E5324A9245AED1191C5C4655466EE5AA
:10551000002837D05846184313D080254807E408A0
:10552000C9082D0304432942E5D0D8082842E2D116
:105530005D46EA085C071443011CDCE700230024F5
:1055400073E5224D53E5002354E700270022F1E6DE
:105550003D1C203D0A1CEA40151C202F31D040265E
:10556000F71BB9400C43611E8C412C430021CEE651
:10557000164A0027151CDDE60C43611E8C41E4B27F
:10558000002186E7191C5C46104D30E5191C5C466D
:105590002DE5031C3B43D8D0011C3C1C27E52020F3
:1055A000404240190A1CC2409046202D0BD040209A
:1055B000451BA9400C43611E8C4145462C430021EC
:1055C00067E70021CEE70021F4E7C046FF070000AF
:1055D000FFFF7FFFF0B5564644465F464D46F0B4A8
:1055E0001F1C0B031B0B98464B0087B0041C814605
:1055F0005B0DC80F161C9A460090002B51D06A4BC9
:105600009A4531D08022414652030A43630FD200AB
:105610001A43664B90460025E20091469A440024C6
:1056200002953B031B0B9B46FD0F7B00311C5B0D62
:10563000019560D05C4A934254D08021584649037A
:105640000143720FC9001143584A8B469B18F10061
:105650000020009A04436A4003920F2C00D9ADE069
:10566000534EA4003459A746404604436ED100214E
:1056700002250824884689460295D2E7009C0298B4
:10568000C34649460194022864D0032800D1ABE206
:10569000012800D038E2019A002402400025A146EA
:1056A00060E0434623434AD04046002800D1C0E191
:1056B00000F094FE031E272B00DDB3E128210D1A14
:1056C000211C083B4246E9409A400D1C1543221C10
:1056D0009A40A8469146374B00251B1A9A4600244B
:1056E00002959EE75A4616430320002EB1D1B346D9
:1056F00000210220ADE75A4632431BD05B46002B07
:1057000000D18AE1584600F069FE272800DD7DE1DE
:105710002822171A011C321C08395B46FA408B40BC
:10572000171C1F43331C8B40BB46191C214B1B1AF3
:1057300000208EE70027BB460021012089E70020DA
:10574000012504248046814602956AE703250C243E
:10575000029566E7019C0394039D01222A400024E0
:10576000114DA146002000212403260B0C0D240519
:10577000114B34432D0523402B435B005B08D207BC
:10578000191C4846114307B03CBC90469946A246B6
:10579000AB46F0BD0022802424039146024DE1E790
:1057A00000240025A146DDE7FF07000001FCFFFF04
:1057B000C07300000DFCFFFFFFFF0F805546ED1A80
:1057C0000495D84500D953E100D14EE1049C002551
:1057D000013C4E4604944746A946584603020C0E27
:1057E0001C430902250C23041B0C0091381C291CA6
:1057F0000193FEF7CDFC019983464143381C8A464C
:10580000291CFEF709FD330C090419438A450CD9FC
:105810005B460919013B8C4200D947E18A4500D813
:1058200044E102225242934409195346CB1A181CF0
:10583000291C9846FEF7ACFC071C0198291C7843EC
:1058400082464046FEF7E8FC36040B04360C334330
:105850009A4509D91B197A1E9C4200D924E19A4520
:1058600000D821E1023F1B195E4632041743380C71
:10587000BB46009E009F51463F0C32045B1A5946BE
:10588000BA46120C0F043F0C904651467A434F43E0
:105890004146414356467043CF19160CBE19B142DA
:1058A00002D980277F02C019310C12043604120C71
:1058B0004018B618834200D2C4E000D1BEE0191AE5
:1058C0004846861BB145BF417F42CF1BA74200D14E
:1058D00013E1291C381CFEF75BFC0199029041433F
:1058E000381C8946291CFEF797FC330C0904194320
:1058F00089450CD9029B0919013B8C4200D9FFE074
:10590000894500D8FCE0029F0919023F02974F46E3
:10591000CF1B381C291C0597FEF73AFC071C019881
:10592000291C784381460598FEF776FC3604090465
:10593000360C0E43B14509D936197B1EB44200D945
:10594000E0E0B14500D8DDE0023F3619029D49464E
:10595000761A290439430B0457460A0C1B0C40469F
:105960004546584355437B437A43EB18070CDB19F4
:105970009D4202D980256D0252191D0C00041B04A2
:10598000000C52191B18964235D300D1FCE00123BC
:105990001943049E994FF519002D00DCA1E048073A
:1059A00009D00F230B40042B05D00B1D8B428941DE
:1059B00049428B44191C5A46D20107D5904B5C468C
:1059C000049E80271C40FF00A346F5198D4B9D4285
:1059D0007ADD039C0122224000248B4DA146C1E6C2
:1059E00080242403474627424CD13C432403240B04
:1059F000009A854DB6E63619481EB4425ED9011CA0
:105A00009642C4D1009E9E42C1D1C2E7031C283BEE
:105A1000311C99408B46002188E6301C00F0DEFCEA
:105A2000203072E6283B211C99400022884691468E
:105A300051E6201C00F0D2FC20303BE60021B145AD
:105A400000D33DE7009F5A46B944B945BF417F4264
:105A50003F19FB18013A9C421ED2984200D97EE0C1
:105A600000D1B5E0191A93462AE7894500D8ADE67A
:105A70004846464642467708D3074608C0071E43B5
:105A80008146AAE65846204212D1044324032A1C28
:105A9000240B89465C4D65E6A342E3D1009F4F4548
:105AA000DBD9211A93460BE7171CDDE69B46BCE6C3
:105AB0003C432403240B009A534D53E6B24259D879
:105AC00000D18AE0011C62E75F46C9087B07039E9C
:105AD0000B437C026D0501229946240B6D0D32406B
