:100000000080002021110000AD100000AD100000A4
:1000100000000000000000000000000000000000E0
:10002000000000000000000000000000AD10000013
:100030000000000000000000AD100000751100007D
:10004000AD100000AD100000AD100000AD100000BC
:10005000AD100000AD100000AD1000000D1100004B
:10006000AD100000F90F0000AD100000AD10000051
:10007000D10F0000AD10000009100000AD1000000D
:10008000AD100000AD100000AD10000049010000EF
:1000900015010000AD100000AD100000AD10000013
:1000A000AD100000AD100000AD100000AD1000005C
:1000B0000000000010B5064C2378002B07D1054B3B
:1000C000002B02D0044800E000BF0123237010BDC4
:1000D0002001002000000000CC86000008B5084B7D
:1000E000002B03D00748084900E000BF0748036819
:1000F000002B03D0064B002B00D0984708BDC0460C
:1001000000000000CC860000240100201001002027
:1001100000000000094B10B51B78002B08D1084CDB
:100120000920217801F00CFA237801225340237032
:10013000044B10219A7B0A439A7310BD440100209E
:100140009001002000340042044B01221A70044B3D
:1001500010219A7B0A439A737047C04645010020DC
:100160000030004208B5064876230370012343702F
:10017000C37003714371837100F018FB08BDC04662
:100180005001002010B50E4CF421201C00F0ECFAB8
:10019000FC23021C1A400132D2B2F421201C00F0D0
:1001A000CDFA0A2000F0FAFF201C00F015FD054BE7
:1001B0001860201C00F000FD034B186010BDC04605
:1001C00050010020800100208C010020E121F8B5C1
:1001D0002A48490202F0D4F8294C2A49201C00F090
:1001E0007CF9294F294D391C281C00F076F9284E3E
:1001F000391C301C00F071F91320012101F046F97F
:100200000A20012101F042F90920012101F03EF903
:100210000A20012101F094F91E4B1F4F1968381C68
:1002200000F0B4F9381C00F09AF91C4F6421381C16
:1002300000F0ACF9381C00F092F9FFF793FF64204E
:1002400000F0ACFFFFF79EFF154F201C396800F04F
:1002500046F93968281C00F042F9281C00F050F9D2
:10026000051C201C00F04CF9011C281C05F02CF981
:10027000011C301C00F033F9F8BDC04670080020A6
:10028000940100200AD7233CCDCCCC3D8401002032
:100290009C01002004000020480100203C010020B7
:1002A0008C01002000000000F0B5002387B005930A
:1002B000534B1A78002A00D19CE000221A70FFF7F5
:1002C00061FF504D504C281C216800F009F94F4F38
:1002D0002168381C00F004F9381C00F011F9039073
:1002E000281C00F00DF9011C039805F0EDF8484EAC
:1002F000011C301C00F0F4F8301C00F001F907F08C
:10030000B5F83E4B3C4A06F051FA07F009F8F423E1
:10031000FF33251C984204DC3E4B984203DA3E48EA
:1003200001E0FA20400005F05FFA059005983B498E
:1003300004F070FB3A4C002859D0FE21059889053D
:1003400004F054FB002852D000233649237005984E
:1003500004F048FC05F028FA011C334800F0D4F9F9
:10036000286807F083F8314C0225021C0B1C00950D
:10037000201C01F0ADFA2E4E201C311C01F0B6F904
:10038000204800F0BDF807F071F80095021C0B1C26
:10039000201C01F09DFA311C201C01F0A7F9381C2B
:1003A00000F0AEF807F062F80095021C0B1C201C50
:1003B00001F08EFA311C201C01F098F9144800F06D
:1003C0009FF807F053F80095021C0B1C201C01F04D
:1003D0007FFA311C201C01F089F9059807F046F8D6
:1003E0000095021C0B1C201C01F079FA02E000238E
:1003F0002370B5E707B0F0BD0000000000005940D1
:1004000045010020940100208C010020840100207F
:100410009C0100200DFEFFFF0CFEFFFF000080BFCF
:100420004401002000007A444801002070080020A8
:100430001C800000C046C04670B51C4800F076F92C
:100440001B4E301C00F044F81A4C1B4D221C291C7A
:10045000301C03F007F8194E301C00F039F8291C45
:10046000221C301C02F0FEFF154E301C00F030F84C
:10047000291C221C301C02F0F5FF124E0521301CF5
:10048000042200F067F8104D221C291C301C02F0D9
:10049000E9FF0E4E0421301C0A1C00F05BF8301CF2
:1004A000291C221C02F0DEFF70BDC0465001002056
:1004B0009401002000000020D904000084010020E5
:1004C0009C010020480100205D0500003C01002047
:1004D0000023036043607047704741607047704776
:1004E00038B50568041C081C291C04F0EDFF616880
:1004F00004F0C0FE011C281C04F074FB206038BD11
:100500000068704710B5002810DAC0B20F2303400E
:10051000083B0E4A9B0803219B009B180840DA69A0
:100520008840FF2181408A43DA610DE08208084B50
:100530009200D2180324C0239B002040D158A04031
:10054000FF248440A143D15010BDC04600ED00E01F
:1005500000E100E0033901714271704770470368A0
:1005600002211A880A431A800268D37B5BB2002BEF
:10057000FBDB7047016801230B800368DA7B52B212
:10058000002AFBDB1A88D107FCD47047F0B5564E21
:100590008BB004AD019100952B1C311C03AD041CE4
:1005A00085C985C30322281C07F04AFC07AB1A1C27
:1005B000103683CE83C222794C4F9100C958012353
:1005C0002160A95C1F2211401E1C8E40311C484E28
:1005D000F1672179695C0A40C021934049007B5052
:1005E0002379E856FFF78EFF424B434A196A0A40C7
:1005F0001A621A6A80218A431A621A6A40218A435F
:100600001A621A6A02210A431A6262790F231A4097
:1006100080235B001A43394B9A605A78D209FCD187
:1006200061790F221140364A1143344A51605A7899
:10063000D209FCD16179F02212010902114022791C
:1006400004AF9200BA5811438022D20111432B4AC1
:1006500089B251805A78D209FCD1201CFFF78AFF59
:10066000236860211A88274892B21A8023681A8862
:100670000A431A80236802211A880A431A800199C2
:1006800004F002F92668013880B230832268D37BF7
:100690005BB2002BFBDB23790126EB5C1F273B4081
:1006A0001349301C9840C86723791048EA5C331C12
:1006B0003A4093401A1CC023B340C2502379E856F5
:1006C000FFF720FF23790949EB5C1F40BE402368F8
:1006D0000E605A7B10210A435A732268D37B5BB2A7
:1006E000002BFBDB0BB0F0BD2080000000E100E040
:1006F00004E100E000080040FFFCFFFF000C0040A8
:100700000006210000093D0038B5041C05680648B4
:1007100004F0BAF8013880B228832268D37B5BB238
:10072000002BFBDB38BDC04600366E01772303701B
:1007300000234370037143718371704770B5094C96
:100740000E1C0178201C151C00F0F2FA311C201C34
:1007500000F047FB291C201C00F043FB201C00F08C
:100760009EFB70BDA4010020F8B50F4C051C0F1CAA
:100770000178201C00F0DCFA391C201C00F031FB51
:10078000201C00F08CFB2978201C012200F024FBA7
:10079000201C00F075FA002804D0201C00F084FB17
:1007A000C6B2F5E7301CF8BDA401002038B5041C22
:1007B0007C4800F09DFA8921201CFFF7D5FF882195
:1007C000051C201CFFF7D0FF2D02451925818B2128
:1007D000201CFFF7C9FF8A21051C201CFFF7C4FF5E
:1007E0002D02451965818D21201CFFF7BDFF8C214D
:1007F000051C201CFFF7B8FF2D024519A5818F218C
:10080000201CFFF7B1FF8E21051C201CFFF7ACFF59
:100810002D024519E5819121201CFFF7A5FF9021AC
:10082000051C201CFFF7A0FF2D02451925829321EE
:10083000201CFFF799FF9221051C201CFFF794FF55
:100840002D02451965829521201CFFF78DFF94210B
:10085000051C201CFFF788FF2D024519A582972152
:10086000201CFFF781FF9621051C201CFFF77CFF51
:100870002D024519E5829921201CFFF775FF98216B
:10088000051C201CFFF770FF2D02451925839B21B5
:10089000201CFFF769FF9A21051C201CFFF764FF4D
:1008A0002D02451965839D21201CFFF75DFF9C21CA
:1008B000051C201CFFF758FF2D024519A5839F2119
:1008C000201CFFF751FF9E21051C201CFFF74CFF49
:1008D0002D024519E583A121201CFFF745FF631C6C
:1008E000D877E221201CFFF73FFFE121051C201CE7
:1008F000FFF73AFF2D0245196584E321201CFFF71D
:1009000033FF631DD877E421201CFFF72DFFE5217D
:10091000051C201CFFF728FF0F2318402B01C518CA
:10092000E584E621201CFFF71FFFE521051C201CA4
:10093000FFF71AFF0009C0B22D0145192585E721EF
:10094000201CFFF711FF231C2A331870F421201CF0
:100950000022FFF7F3FEE278A3781C2592005B01EA
:100960002A401A43D2B2201CF521FFF7E7FEA279F4
:1009700007231A40201CF221FFF7E0FE617823795B
:1009800003225B010A401A436379201C9B001D402F
:100990001543EAB2F421FFF7D1FED021201CFFF766
:1009A000E3FE38BDA4010020F0B5F7218DB0019021
:1009B000FFF7DAFEF82109900198FFF7D5FEF9213B
:1009C0000A900198FFF7D0FE019E0B90F16A0A1C75
:1009D000CB17161C1F1C5F495D4836184F41321C4F
:1009E0003B1C301C391C04F04DF802900391019817
:1009F0000199008B019A0690C98A019B0791928AFE
:100A0000301C089210229A5E391CD31704F03AF871
:100A1000030D040301980D031222825E1D43029808
:100A20000399D31704F02EF80A069446020A60468A
:100A300002430B12101C191C00196941464A474B0E
:100A400080185941019BDA89002304F01BF84810F3
:100A5000031CC917049005910B430020002B72D092
:100A600006990AB2D3170298039904F00BF8079B72
:100A7000041C1AB2D3170D1C301C391C04F002F8E8
:100A80008C46664673040A9EC10B3701099E0B43D0
:100A90004204A4185D4133030B9E3B433209D2B29A
:100AA000134380225203D31A089EDF175A08F9070E
:100AB00037B21143D8070022FB0012196B41801A8C
:100AC0009941274A274B03F0DDFF049A059B03F069
:100AD000B5FF0D1C4F13CB040199041C460B1E20BF
:100AE000085E1E43321C3B1CC11703F0CBFF321CB7
:100AF0003B1C03F0C7FF019A460E1C20105ECB0181
:100B0000221C1E434F162B1CC11703F0BBFF3619C6
:100B10006F41C20C4C032243CB14B6185F41300A1C
:100B2000019E3B061A24345F1843E617250F330154
:100B30002B43220139128018594103F0E5FFEE21C1
:100B4000890504F097FB0DB0F0BDC046C046C04615
:100B5000000CFEFFFFFFFFFF000000000080000010
:100B6000350C00000000000008B5FFF71DFF10491C
:100B700004F09CF906F07AFC084B074A02F0ACFC42
:100B8000074A084B06F0A2F8074A084B05F00EFE8C
:100B900006F0BEFC08BDC046C5C551B9895AC83F5C
:100BA000000000000000F03F00000060C662E6C0E8
:100BB00080E6C547C046C04608B5FFF7D5FF06F03A
:100BC00055FC044B024A05F0F1FD06F0A1FC08BDFE
:100BD000E544BB0A293F0A4070B5FA21041CFFF71F
:100BE000C3FDFB21061C201CFFF7BEFDFC210501F7
:100BF000201CFFF7B9FD360300093543C0B2284376
:100C0000228903119B1A5B430C25615FC0101B13E3
:100C100052004B43821A0A21605E9B134243D21258
:100C20009B18052058438030E362001204F0DCFD7D
:100C3000014904F03BF970BD0000C8420020704734
:100C4000F8B5051C0F1C161C0024B44208D02B68F4
:100C5000395D1B68281C9847002801D00134F4E74F
:100C6000201CF8BD7047031CFC33196ADA699142F5
:100C700003D01B6AC018007E01E00120404270478B
:100C8000031CFC33D8691B6AC01A01D50130FF3040
:100C900070470000F7B50193FA239B008360134B64
:100CA0008026002576000833041C0F1C4560291C93
:100CB00000920360321C183007F0CBF8231C9022FE
:100CC000FC335200DD61A0181D62321C291C07F0A4
:100CD000C0F887229200A3185D60019A9D60009B76
:100CE0002761A575201C23756275FEBD408000003C
:100CF00070B50D49041C006901F032F8206900F05C
:100D0000EAFE1826207D331C4343084D0821EB18CA
:100D1000595600F045FC607D08214643AD196956DF
:100D200000F03EFC70BDC046A08601006880000057
:100D30008A2387229B009200C154831800225A60A4
:100D40009A60012383757047031CFC335A6810B501
:100D500001329C68D2B2A24202D05C6801555A604E
:100D600010BDF7B501930023041C151C181C9A42F2
:100D700031D0221CFC32D36120691362012200F0C1
:100D8000E7FE002825D0206900F051FF271C183706
:100D9000011C381CFFF7D8FF01262069AE420ED097
:100DA00000F0B6FE0221206900F0BCFE206900F0D0
:100DB0003EFF011C381CFFF7C7FF0136EDE700F0CE
:100DC0009EFE019B002B05D02069032100F0AAFEA6
:100DD00000E0051CE8B2FEBD08B50123FFF7C1FF26
:100DE00008BD10B5827D00239A420DD08724A4004F
:100DF0000219546892680134E4B2944204D021305C
:100E0000FF30FFF7A1FF0123181C10BD031CFC33AA
:100E100099685A68914206D09A68805C9A68013253
:100E2000D2B29A6001E001204042704770B50022C2
:100E30008A2382759B00041C0E1CC15C006900F0B3
:100E400087FE002805D12069032100F06BFE0225F2
:100E500023E090235B00E01887239B00E218516891
:100E60009368CB1A01D50133FF33002B0ED02569CF
:100E7000FFF7CCFFC1B2281C00F099FE0028E8D192
:100E80002069032100F04EFE032506E01D1C002E04
:100E900003D02069032100F045FE281C70BD08B571
:100EA0000121FFF7C3FF08BD08B51830FFF7AEFFFB
:100EB00008BD38B5041C006900F097FE002800D179
:100EC00084E0206900F09FFE00280ED1206900F028
:100ED000A4FE00281FD0206900F09AFE00281AD036
:100EE000206900F09FFE002815D1206900F010FE57
:100EF0002069032100F016FE8C239B00E558002D8D
:100F000004D02368201C1B699847A847FC340023A1
:100F1000E36123625AE0206900F07FFE031C206930
:100F2000002B19D000F0F4FD2069032100F0FAFD38
:100F3000206900F077FE002848D087229200A3188D
:100F400000225A609A600123A3758B239B00E3580B
:100F500093423BD0984739E000F050FE002835D04E
:100F6000206900F05FFE002816D087239B00E2185E
:100F700051689368CB1A01D50133FF33FF21002B51
:100F800005D090225200A018FFF740FFC1B220699F
:100F900000F01EFEA07519E0231CFC33DA691B6A01
:100FA0000132D2B220699A4202D100F0A8FD09E0D4
:100FB00000F03DFE011C201C1830FFF7C5FE206923
:100FC00000F0A6FD2069032100F0ACFD38BD000053
:100FD00008B50248FFF76DFF08BDC046A401002018
:100FE00008B50348034914221523FFF753FE08BD33
:100FF000A40100205008002008B5024801F048F87C
:1010000008BDC0461406002008B5024801F040F8AB
:1010100008BDC046D8030020F7B5164F1649381C46
:1010200000F0B4FC1549164800F0B0FC154916480C
:1010300000F0ACFC1549164800F0A8FC154916480C
:1010400000F0A4FC154D03260124281C144900F0CF
:101050009DFC391C0096231C01940022114800F0CD
:1010600023FF0096291C01941F221E230E4800F026
:101070001BFFF7BD5408002000080042000C00428E
:1010800058080020001000425C08002000140042B4
:10109000500800200018004260080020640800206A
:1010A000001C004214060020D8030020124B00222E
:1010B0001A70DA79D209FCD1104A114991601149AC
:1010C00051605178C909FCD10F490C4A51801A79F5
:1010D00001210A431A715A780F218A435A701A78EB
:1010E00004218A431A70D979034AC909FBD11378BC
:1010F00002210B431370FEE700100040000C00407B
:1011000002040000020311000342000008B5034B73
:101110001B68002B00D0984708BDC0466808002017
:1011200038B50F490F4CA14204D100F055F800F03A
:101130009BFA0BE00C4D8D42F7D00023CA18E8183B
:10114000A24204D2006804331060F7E7FEE7904241
:10115000EBD0064B064A9342E7D2002204C3F9E7DC
:101160000000002020010020D8860000200100207F
:10117000680E002008B500F02CF8002801D100F01E
:101180001DF808BD014B18607047C0466808002074
:10119000014B18687047C0466C08002070B5041EEB
:1011A00008D0054B1D681E1C00F012F833685B1B4D
:1011B000A342F9D370BDC0466C08002008B5034BAC
:1011C0001A6801321A6000F0A7FB08BD6C08002005
:1011D000704700207047000070B5494A1E215368CF
:1011E00002208B430343474953608B690824234300
:1011F0008B61454C454B9C829C8A20439882101CF5
:10120000DA689407FCD5424A012414701478E50783
:1012100004D53F4C647864B2002CF7DB0124946061
:10122000547864B2002CFBDB3A4D394C656054783D
:1012300064B2002CFBDB8225354CED0165805478CF
:1012400064B2002CFBDB02249C84DC68E606FCD53F
:10125000314D2E4CE562DD682C4CEE06FBD5A58C9D
:101260002E4E3543A584DD68284CEE06FBD5A58CB3
:1012700002263543A584DC682506FCD5234CE468AA
:101280006606F8D5DC68E506FCD500249460547841
:1012900064B2002CFBDB224D1D4C656055781C4C64
:1012A0006DB2002DFADB1E6A1E4D35401D621D6AAF
:1012B0008026B5431D620323A3601B4B63605378F4
:1012C0005BB2002BFBDB00230B72184A4B728B7254
:1012D000CB72174BFF211A60164B174A1B68126816
:1012E0005C01D20E214011439A06520F12020B1CD0
:1012F0001343124A1385436880221343436070BD31
:1013000000400041000400400C06000000080040BE
:10131000000C004001050100B905FF7D040A000032
:1013200000070300FFFCFFFF03060100006CDC0266
:1013300008000020246080002060800000400042FF
:10134000314BFA21186810B5890003F04FFA2F4B82
:101350000138984224D82E4A2E4B5060186AC0217A
:101360000002000A09060143196200240721946063
:101370001160196A80220902090A12060A431A62D8
:10138000254BFC211A6A0A431A62196AFC2292014F
:101390000A431A62196AA022D2020A431A6200E0C2
:1013A000FEE7201C0021013400F070F8142CF8D165
:1013B0001A4C63785BB2002BFADB194B6380194B34
:1013C0005A7ED209012AFAD0E422D2009A803F2222
:1013D000DA70597E134AC9090129FAD0C0235B018A
:1013E00000201361907000F023F863785BB2002B4B
:1013F000FBDB0D4A094B5A800C4BDA79D209012AE2
:10140000FAD041225A7010BD08000020FFFFFF00F3
:1014100010E000E000ED00E000040040000C00409F
:101420001E400000004000422140000000480042F1
:1014300000B5144A517E131CC9090129F9D001389D
:10144000042813D81969104A0A401A615A780F21E2
:101450008A4303F0C1F9030509070300012102E0F3
:10146000032100E002210A435A700AE01169F023C7
:101470001B050B43136153780F218B4302210B4350
:10148000537000BD00400042FFFFFFF010B518246C
:10149000021C201C5043274B1818007A40B2013020
:1014A00046D0032944D8081C211C03F095F90233C7
:1014B0001121624398569A18C3011F4852681B189D
:1014C00099184031022008700121914059602FE0A5
:1014D0006243985618499A185268C3015B189918C4
:1014E00040310620087001219140596099611FE048
:1014F00051435A56104859184B68D2011118C81850
:101500004030062404700120984048600B4952186E
:1015100050600DE0624398569A18C301064852681D
:101520001B189918403102200870012191409960E0
:1015300010BDC046688000000044004110440041D6
:1015400018235843134AF0B5131808241C570134C4
:101550001FD08256104ED2015D6801249019231CC1
:101560008668AB401E420BD10E1C771EBE4140194F
:1015700034404030A50004780426B4432C43047062
:10158000002903D105495218536002E0024E921916
:101590009361F0BD688000000044004110440041A8
:1015A00018224243F8B52D4D0824AA181457031CDD
:1015B000621C50D0481C00240C284CD803F00CF9B5
:1015C000071E1E1E1E1E1E1E1E0A0A0A0A000124D7
:1015D000644240E0092902D1181C002103E00A29D5
:1015E00004D1181C0221FFF751FF23E000240B292E
:1015F00031D1181C0121FFF749FF2CE01822534379
:10160000EA185268EB560120141C04405508DB010F
:10161000002C11D0124C1B195D1930352E780C019D
:101620000F21314021439A18C9B2297040321378F2
:101630001843107000240EE0094E0F279B195D1906
:1016400030352E789A18BE433143C9B229704032E2
:10165000137818431070201CF8BDC0466880000045
:10166000004400417047000010B5FFF769FE06F026
:10167000ADFBFFF7F7FF0120FFF790FD084C201CA2
:1016800001F0F2F8201C01F067F9FEF79FFDFEF76C
:101690000BFE044B002BFAD000E000BFF7E7C0467A
:1016A0003B0D002000000000F7B58A18061C0D1C39
:1016B00001920C1C019B671B9C4207D03368217868
:1016C0001B68301C984701340028F3D1381CFEBD3C
:1016D00038B5051C0C1C081E07D006F071FC2B68E1
:1016E000021C5B68281C211C984738BD08B5FFF711
:1016F000EFFF08BD08B503681B68984708BD0000E8
:1017000008B50249FFF7E4FF08BDC046B8840000F1
:10171000F0B58DB0161C0BAB002201900C1C1A709A
:10172000012E00D80A266D462B35201C311C03F0F3
:10173000A1F8201CCFB2311C03F058F8291C041C5E
:10174000092F01D8303700E03737FFB22F70013D45
:10175000002CEAD10198FFF7BBFF0DB0F0BD0000EF
:10176000F7B51C1C08AB1B78071C211C101C151C92
:10177000009301F07FFE002802D1381C504907E099
:10178000281C211C01F076FE012804D14D49381C8B
:10179000FFF79EFF7CE0281C211C404B3E4A03F0D3
:1017A000FFF8002802D0381C4749F1E7281C211C0B
:1017B0003B4A3C4B03F0E0F80028F4D1281C211CE4
:1017C000394A3A4B03F0D8F8002808D02D21381CAC
:1017D000FFF790FF802109060190641800E0019056
:1017E0000026334A334B00998E420AD0101C191C34
:1017F000314A324B04F070FB0136021C0B1CF6B26E
:10180000F1E7281C211C04F04BF80D1C041C03F00C
:101810005BF9061C05F0F6FD0B1C021C291C201CA4
:1018200005F054FA0A22041C0D1C381C311CFFF769
:101830006FFF019B0099C618002904D0381C2E2187
:10184000FFF758FF3618009B002B20D01A4A1B4B7D
:10185000201C291C04F0AAFF0D1C041C03F034F901
:1018600001900A220199381CFFF752FF361801989F
:1018700005F0C8FD0B1C021C291C201C05F026FAD3
:10188000009B041C013BDBB20D1C0093DBE7301C0A
:10189000FEBDC046C046C046000000E0FFFFEF416D
:1018A000000000E0FFFFEFC10000000000000000AA
:1018B000000000000000E03F0000000000002440A5
:1018C000BB840000BF840000C3840000C046C04643
:1018D00013B5049CE1B20091FFF742FF16BD37B586
:1018E000041C0698C1B20091201CFFF739FF051CAB
:1018F000201CFFF705FF28183EBD0000014B1860B3
:101900007047C0460C000020024B012252421A6070
:101910007047C0460C000020154A1368581C25D09B
:10192000013B1360002B21D172B6124A124B0432D4
:101930009A4207D8BFF34F8F104A114BDA60BFF3BA
:101940004F8F11E00F4B197DC807FBD5188B202155
:10195000FF319208520001431983DA610A4A1A8062
:101960001A7DD107FCD5E5E7C046FDE77047C046C4
:101970000C00002000000000030200000400FA0533
:1019800000ED00E00040004102A5FFFF016070474C
:10199000F7B508AC267804689D1E27686C1EA54123
:1019A000ECB2920705683A4327063A432A60026878
:1019B000072529405068B501002C00D05C0329435D
:1019C00001430C435460F7BD30B50368C0251C6863
:1019D000AD0312052A402243C024A4020904214079
:1019E0001143196003685A6814435C6030BD036892
:1019F00001211A680A431A6002681168012319421A
:101A0000FBD1D1691942F8D17047036802211A68E5
:101A10000A431A600268D3699907FCD47047000032
:101A200038B50268041C137EDA070CD4FFF7B0FB4C
:101A3000051C2268137E9A0705D4FFF7A9FB024B09
:101A4000401B9842F5D938BDE70300000368002227
:101A50005A8370470368187E4007C00F70470368B9
:101A6000187EC009704703688022197E52420A43DB
:101A70001A7670470368588B8007C00F7047036859
:101A800002215A8B0A435A8370470368187E012348
:101A9000184070470368188DC0B2704703681A7EFB
:101AA00001200242FBD019857047036801229A7514
:101AB0007047036801221A757047036801211A688C
:101AC0000A431A600268116801231942FBD1D169E7
:101AD0001942F8D17047036802211A680A431A6054
:101AE0000368DA699107FCD45A8B30218A431021AC
:101AF0000A435A830268D3695907FCD470470368C4
:101B0000802219685968D2020A435A60704700005F
:101B10000368034A196859680A405A607047C0460A
:101B2000FFFFFBFF30B5036803241D680C40074A24
:101B3000596824040A40ED0622436D0F5A60052DB2
:101B400003D10268D3695907FCD430BDFFFFFCFF05
:101B500049001143036830B5CDB2598B03240909FC
:101B60002140012904D0598B09090C40022CF4D1E1
:101B7000596AC90AC902294359620368002A03D174
:101B80001A7ED107FCD50DE0187E012240081040D6
:101B900008D1197E1142F7D05968C02292020A4337
:101BA0005A6003E05B8B01209B08984330BD0368BB
:101BB000283319700268107E0123184003D1518B1D
:101BC0001942F8D003E0528B181C920890437047DA
:101BD000036828331970036800201A7E510703D563
:101BE0005B8B01209B089843704703681868C00608
:101BF000400F043843425841C0B270470368187E12
:101C00004007C00F70470368187E012318407047D3
:101C10000368588BC006C00F70470368187E8007A2
:101C2000C00F70470368588B0007C00F70470368E8
:101C30001A68D206520F052A02D11A7E9107FCD5E6
:101C400028331878C0B270470368224A30B59342EF
:101C500011D0214A934211D0204A934211D0204AF8
:101C6000934211D01F4A934211D01F4A934230D160
:101C70000E2319220DE0092314220AE00A2315225B
:101C800007E00B23162204E00C23172201E00D23AA
:101C90001822DCB2154901209B08A0409B00086077
:101CA0005B180320C021890004405D58E000FF2438
:101CB0008440A5432C1CC0258540281C2043585037
:101CC0008023DB011A430A4B5A805A7852B2002A09
:101CD000FBDB30BD00080042000C00420010004257
:101CE0000014004200180042001C004200E100E025
:101CF000000C0040F8B5041C151C0E1C1F1CFFF73F
:101D0000A3FF201CFFF773FEB1001C220A406907E5
:101D10002368090C0A431A60226884239375012EF4
:101D20001AD10821012D00D110210C4B79431868DC
:101D3000C00002F05BFD236807219A890140D204AC
:101D40004903D20C0A439A8123680004C20C988983
:101D5000400B400310439881F8BDC04608000020A6
:101D600070B5041C0E1CFFF76FFF201CFFF7A5FECB
:101D7000236814221A600D4B71001D682468281C0A
:101D800002F034FD0A49061C281C02F02FFD7D23B9
:101D9000FA215843C90002F029FD301AE668FF23F2
:101DA000053818409E430643E66070BD08000020D9
:101DB00040420F000120704708B50368014A1B6AC2
:101DC000984708BD13040000031CFC33D9699A69C5
:101DD000914203D0DB69C018007D01E00120404240
:101DE000704710B5041C0069FFF701FE221C002398
:101DF000FC329361D36186229200A4186360A360D1
:101E000010BD0000F0B587B001930CAB1B788026A5
:101E100002930DAB1B78002503930EAB1B78760065
:101E200004930FAB1B78041C0593FA239B0083607B
:101E3000194B0F1C0833009245600360291C321CAB
:101E4000143006F006F8231C8E22FC3352009D61EC
:101E5000A018DD61321C291C05F0FBFF86229200D0
:101E6000A3185D60009A9D6089239B002761E2545E
:101E7000019A0A4B201CE254029A094BE254039A3D
:101E8000084BE254049A8A239B00E254059A8E235D
:101E90009B00E25407B0F0BDC8840000250200009A
:101EA000260200002702000030B585B0041C08A8F7
:101EB000057809A8007800950190FF200290039012
:101EC000201CFFF79FFF201C05B030BDF023081C2D
:101ED00018403038434258417047F0231B011940E5
:101EE00080239B0099420CD0C0239B00994206D0CE
:101EF00080235B000520994204D0002002E00720E7
:101F000000E0062070470F231940012905D002394F
:101F10004B424B410220C01A00E0002070470000F5
:101F2000F0B5892385B003919B00041C1827C05C81
:101F30003B1C4343324E0821F3185956151CFFF73A
:101F40002FFB304B0821E05C3B1C4343F3185956F0
:101F5000FFF726FB2C4BE25C022A0AD18E239B0062
:101F6000E05CFF2805D047430821F7197956FFF7B1
:101F700017FB8A27BF00E05DFF281AD00121FFF779
:101F800085FAE35D18225A43B3562049DB015818FD
:101F90008B21890060501E49B6185B188C2172682D
:101FA00089006350012191400A1C8D2189006250F3
:101FB0001A6001210A1C039B2069FFF79BFE291C64
:101FC000201CFFF78AFF291C071C201CFFF79BFF22
:101FD000291C061C201CFFF779FF391C0090331CBC
:101FE00020690122FFF7D4FC074B2069E15C094B13
:101FF000E25CFFF7E9FC2069FFF707FD05B0F0BDE3
:1020000068800000250200002702000018440041FB
:102010001444004126020000031CFC3358689B68EE
:10202000C01A01D50130FF307047000038B5041CDC
:10203000FFF7AEF8051C8E235B00E018FFF7ECFFFE
:10204000002805D0FFF7A4F8034B401B9842F2D9B3
:102050002069FFF7E5FC38BDE703000008B5143040
:10206000FFF7DAFF08BDFC30426883689A4204DB60
:1020700043688068C01AFF3003E082684368D01A62
:102080000138704708B51D30FF30FFF7ECFF08BD81
:1020900038B5041C0069FFF7EDFC002805D0206965
:1020A000FFF7F8FC2069FFF7EAFC2069FFF7D2FC94
:1020B000002820D02069FFF7EDFC231CFC339A692F
:1020C000D9690132D2B28A4203D099696118087580
:1020D0009A618A239B00E35CFF2B0CD0201C1430F8
:1020E000FFF7C1FF182806DC8B238D229B0092008E
:1020F000E358A2581A602069FFF7C7FC00281FD0D8
:102100008E225200A518281CFFF786FF031C2069A9
:10211000002B13D086229200A31899685A68914226
:1021200006D09A68A95C9A680132D2B29A6001E03E
:1021300001214942C9B2FFF7B1FC01E0FFF7B9FC48
:102140002069FFF78CFC002805D02069FFF78BFC85
:102150002069FFF77BFC38BD70B5041C00690D1CBD
:10216000FFF793FC8E225200A61800280ED0301CD8
:10217000FFF752FF00283DD008E0EFF31083DA07A5
:1021800022D41F4B5A68D205D20D0AD18622920062
:10219000A31858689A680130FF2108409042ECD09B
:1021A0001BE0103AD2B253B2002B08DA0F231A40C8
:1021B000083A144B92089200D218536804E09B0826
:1021C000C033114A9B009B582069FFF75EFC002832
:1021D000DCD0201CFFF75CFFD8E75A6801320A40C8
:1021E00099688A4202D0596875545A602069FFF78D
:1021F0005CFC03E02069291CFFF750FC012070BD46
:1022000000ED00E018ED00E000E100E038B5031C4F
:10221000FC33D9699A69041C914207D0DA698218A3
:10222000157DDA690132D2B2DA6101E001256D4231
:102230008A239B00E35CFF2B0CD0201C1430FFF79B
:1022400012FF192806DD8C238D229B009200E35893
:10225000A2581A60281C38BD3F20704713B5026889
:102260006B46D97107335468191C0122A04716BD6B
:1022700008B50069022100F05BFC08BD08B50069E3
:10228000032100F06BFC08BD38B50D1C041C131CA9
:10229000006903212A1C00F05DFD002801D1012303
:1022A000636038BD10B5054C23685A1C04D103681F
:1022B0005B6998472060031C181C10BD600000205B
:1022C000074A08B51368591C04D00121494211601E
:1022D000181C03E00069022100F02EFD08BDC04675
:1022E0006000002008B503780349023303704222DE
:1022F000024800F0E5FD08BD1C0000203B0D002059
:1023000010B50178031C42780020A12908D1212AA8
:102310002FD118481849072200F0D2FD012028E0EB
:10232000212926D1202A05D113490722114800F07E
:102330005BFC04E0222A10D19A780F4BDA710E4B25
:1023400096221968D200914210D1DC7901231C40F9
:102350000CD1FA20FFF7D2FA0AE0232A09D1DA7861
:102360009B7812021A43054B1A6002E0FFF7CCFA81
:10237000002010BD3B0D00201000002018000020A0
:1023800070470000064BFA21890099600549002238
:102390000831196004495A6019611A767047C046BD
:1023A00070080020008500003B0D002010B50723B9
:1023B0000F220240141C00093034092A00DD0734C2
:1023C000CC54013BF4D210BD10B5054B041C036086
:1023D000806905F02BFDA06A05F028FD201C10BDCA
:1023E0003085000010B5041CFFF7EEFF201C00F044
:1023F000DDFF201C10BD000070B582291ED1C2B2C5
:102400002A495301CB189D69294C80012C40C025D5
:10241000AD052C439C61274C0832201858610B688D
:10242000520199180C798020404220430871D15CF8
:102430007020814330200143D15435E0002933D14D
:10244000C2B21A495301CB189E68194DC0242E40C0
:10245000A40526439E60184E800109683018083292
:1024600058605201505C0726B04301263043505457
:102470009E6935402C439C610E4C5C61505C70241D
:10248000A0431024204350549C680C488A182040D4
:10249000802464032043986098684021800B800367
:1024A000986053790B43537170BDC046440D0020B2
:1024B000FFFFFF8F980900205C0B0020FF3F00F01A
:1024C00038B5041C08CC01211A78051C0A431A707F
:1024D0008022201C0021520005F0BBFC2B689A785A
:1024E000D107FCD45C6238BD134BF0B51B6899036F
:1024F0005A029B01C90ED20E5B0F1F2900D1052184
:102500001F2A00D11D22072B00D1032304688E014E
:10251000278D0A491F2539403143218501682A400A
:102520000C8DAC4322430A8502681903108D044BBD
:1025300003400B431385F0BD246080003FF8FFFF8C
:10254000FF8FFFFFEFF3108303600123436072B638
:1025500070470368002B02D162B6BFF36F8F7047DC
:1025600037B50569041C6846002D12D1FFF7EAFF54
:10257000019B013B03D3621DD57FEDB2F9E76846AD
:102580000193FFF7E6FF0020854217D0206AE36938
:1025900013E0FFF7D7FF019B0025013B04D3221C6A
:1025A00034321578EDB2F8E768460193FFF7D1FFB2
:1025B0000020854202D0206BE36AC01A3EBD0000B5
:1025C000436810B51A68037A01215B01D318FF3301
:1025D0009A7A0A439A72037A42685B01D318C268F6
:1025E0009C6891040B4A090922400A439A60037AC5
:1025F00042685B01D3189A684021920B92039A605B
:1026000043681A68037A08335B01D3181A790A43BE
:102610001A7110BDFF3F00F0F7B50569041C0E1CD0
:10262000171C6846002D1FD1FFF78CFF019B013B53
:102630005A1C06D0621DD17F5A1E00293AD0131CA5
:10264000F6E768460193FFF784FF0025E369BD4282
:1026500035D0226A934232D25A1CE261A269D31861
:102660001B7873550135F1E7FFF76CFF019B013BC8
:102670005A1C08D0221C343215785A1EEDB2002D97
:1026800018D0131CF4E768460193FFF762FF00259A
:10269000E36ABD4226D0226B934241D322E0621D01
:1026A0000021D17730321678581E8E4214D1031C87
:1026B0005A1CF4D168460193FFF74BFF38E0226AB9
:1026C000934235D10023E361012323616846FFF77C
:1026D00039FF019B013BEBE71170201C0193FFF7D1
:1026E0006FFFF6E7226B934222D10023E36223615E
:1026F0006846FFF727FF019B013B5A1CDAD0221CDA
:1027000034320021117001321678581E8E4201D1E8
:10271000031CF2E71170201C0193FFF751FFEAE759
:102720005A1CE262A26AD3181B7873550135AFE7D1
:10273000281CFEBD37B54368027A1B680832520177
:102740009A18041CD0790123FF21184255D0D37167
:10275000A068656962680140002D1FD149015218C7
:1027600091688904890C2162216A002942D0636141
:10277000A36A68465360FFF7E5FE019B013B5D1CC1
:1027800034D0621D0120D0772F3211785D1EC9B27E
:102790001218002915D111702B1CF0E74B01D3182A
:1027A0009A689204920C2263226B002A22D00022A3
:1027B0006261A26968465A60FFF7C4FE019B013B53
:1027C00012E0019310706846FFF7C3FE15E0221C6B
:1027D000343201201070621DD17F5D1EC9B23032CB
:1027E0000029EED111702B1C5D1CF0D168460193BD
:1027F000FFF7AFFE201CFFF7E3FE37BD37B5002320
:102800006C46E3710734201C0D1CFFF76BFD2B6831
:102810001818286000F014FE211C00F0CBFD2B6876
:102820001818286020783EBD03290BD10D4BB22229
:102830001B685200985C802149420143995402214F
:1028400068220CE001290CD1064B92221B68520031
:10285000985C802149420143995402212822FF3289
:1028600099547047440D002038B5304B00240121A5
:10287000051C1A201C70FEF709FE1A200121FEF724
:102880005FFE2B4B192001211C70FEF7FFFD192064
:102890000121FEF755FE274B2021DA6901200A436A
:1028A000DA61254B06241A7802431A70234B0F2253
:1028B00019789143197019782143197020490C78BF
:1028C0002043087019780A401A701A7860210A4368
:1028D0001A701C4B1C4A5A805A78D209FCD11B48EA
:1028E000FEF750FC1A4C201CFFF7EAFD201CFFF7F6
:1028F000FBFD23687F2219780A401A701A78042198
:102900000A431A701A890C218A431A81C121114A7B
:10291000890050580002000A5050802111601A7836
:1029200002210A431A7001232B7038BD580B002076
:10293000400D002000040040584400413C44004148
:1029400059440041000C004006400000853300005F
:10295000440D002000E100E00078002810D0094B71
:1029600001211B681A898A431A811A8B08210A439C
:102970001A831A8B04210A431A83034B00221A601C
:102980007047C046440D0020480E00200F4B9A6946
:10299000920B92039A611B680222FF331A72987994
:1029A0008022524202439A711A7A9007FCD5084B52
:1029B000081C997A7F221040914301439972997AB9
:1029C000802252420A439A727047C046440D00204A
:1029D0000050004110B50B790C1C002B0BD1081CCA
:1029E000FFF78EFC002804D1094B9A69920B9203E1
:1029F0009A6101200BE000F023FD211C00F00EFD88
:102A00000028F6D1024B9A69920B92039A6110BD8D
:102A1000440D0020F7B50D1C832A18D1CAB23649DF
:102A20005301CB189C693548AD012040C024A40552
:102A3000204398613248083245195D610B685201A4
:102A4000D15C7020814340200143D15453E0022ADD
:102A50004DD12C4B8900C8580191002802D0036841
:102A60001B699847382000F09DFC274B224F802699
:102A7000036076000023421D036203614361C3616A
:102A800047608560C660D3772F32041CC36203633E
:102A90001370301C537005F0BFF9A061301C05F0B5
:102AA000BBF9FF231D406D01A0627F19B968134A6D
:102AB00007250A40C02189050A43BA60A1686268F7
:102AC0001940126808314901885CA843032528434E
:102AD0008854A268616813405B01A269CB185A60F0
:102AE000201CFFF76DFD074B01995C5003E0081CAB
:102AF000111CFFF781FCF7BD440D0020FFFFFF8F85
:102B0000980900201C0D00203085000038B5051CF8
:102B10000124064BA200D258002A06D0211C281CF2
:102B20000134FFF777FFE4B2F3E738BD640000201B
:102B300008B5084B8A00D058002803D003689B686A
:102B4000984706E0C9B2044B4901591888688004C7
:102B5000800C08BD1C0D0020440D002010B50C1C7D
:102B6000FFF7E6FF00280CD0064BE1B21B680831E6
:102B7000490159184A7980235B4213434B71022360
:102B8000CB7110BD440D002070B5CAB2134B144870
:102B9000540189015918031959609D681149083277
:102BA00029408025AD022943996099684026890B08
:102BB000890399600368510159180D7935430D71E6
:102BC0005101591889794D06FAD551015918C97919
:102BD000CD07FAD50419A068C0B270BD5C0B002007
:102BE000440D0020FF3F00F038B50C4B141C1B684F
:102BF0000D1CFF335A7940210A435A710021FFF717
:102C0000C3FFA04200D9201C0023A34204D0044AE1
:102C10009A5CEA540133F8E738BDC046440D002001
:102C20005C0B002010B5C9B20C48490143189A68E2
:102C30009204920C3F2A08D9141C9A68403CA404C0
:102C4000920BA40C9203224302E09A68920B920327
:102C50009A6041188868C0B210BDC046440D00207B
:102C6000F0B51C1C2F4B85B01B68061C0D1C029276
:102C7000002B51D02C4F3978C9B2002902D119202C
:102C8000FEF75EFC64233B70284BAA00D058002856
:102C900005D0036802995B68221C984740E0301C0D
:102CA000291CFFF745FFA04204D2301C291CFFF766
:102CB0003FFF041C291C301CFFF7B4FF1C4FE9B276
:102CC0004A010191396803928B18FF335A7A012126
:102CD0000A4318495A72AB01C9180298221C05F020
:102CE000AFF8002C1BD0301C291CFFF721FF002857
:102CF00015D1019B3A6808335B01D318197940203C
:102D0000014319710121D97103995318FF339A7A3C
:102D100001210A439A7202E00120404200E0201C97
:102D200005B0F0BD480E0020400D00201C0D002015
:102D3000440D00205C0B002013B56C460734221CA8
:102D40000123FFF78DFF012801D1207801E0012048
:102D5000404216BDF0B51C1C3F4B85B01B680E1CD5
:102D60000292002B6AD08023DB019C4266D83B4D47
:102D70002978C9B2002902D11A20FEF7E1FB6423A9
:102D800000222B700092002C56D0354DF7B22B68E4
:102D900001933B1C0833019A5B01D3189B79DB0933
:102DA0001AD0304B3049186801F020FD2F4B172105
:102DB000584301F01BFD3B1C0833019A5B01D318FB
:102DC000DB799A0708D42A4B9A5D002A38D1421E33
:102DD000002835D0101CEEE7254B00229A55251E01
:102DE0003F2D00D93F25234AB301D318181C02995F
:102DF0002A1C039305F024F8194A7B01D318039A7F
:102E0000A9045A619A69890C920B92030A439A6148
:102E10003B1C019A08335B01D3180222DA715979FD
:102E2000802252420A435A71009B029A5B1952193E
:102E30000093641B0292A6E700980BE0012008E0D3
:102E400001229A557B01ED18AB69101C9B0B9B036B
:102E5000AB61404205B0F0BD480E0020580B002089
:102E6000440D00200800002040420F0070110100B6
:102E7000900900209809002070B50E4D1C1C8B0194
:102E8000ED18281C0E1C111C221C04F0D9FFF6B2F0
:102E90000949760189194D618A69084B201C134044
:102EA0008B618B69A2049B0B920C9B0313438B6178
:102EB00070BDC04698090020440D0020FF3F00F07F
:102EC000F7B5114B01901B780F1C141C002B19D166
:102ED0000E4B1E78002E01D1151C08E00C4D0D483C
:102EE0002E888019361904F0ABFF2E800AE0002DE1
:102EF00008D0BA192B1C01980021FFF7BDFF361826
:102F00002D1AF4E7201CFEBD3A0D0020380D0020DC
:102F10008E0900208D080020F8B50E1C00AF151E8C
:102F2000012D28D9D31DDB08DB006A46D21A95464D
:102F3000081C05F045F801306C4640000323207062
:102F400063700222AA420ED23378002B0BD0511CA0
:102F5000C9B20136A354A94204D0002302326354FB
:102F6000D2B2EFE72A1C0548211CFFF7A9FF431E38
:102F70009841C0B200E00020BD46F8BD3B0D0020E6
:102F800008B5044B00221A70034B04491A88FFF756
:102F900097FF08BD380D00208E0900208D08002005
:102FA000F0B5204A87B001230026009102A91370D2
:102FB000051C0296FFF722FC03AC092701903A1C7E
:102FC000201C311C04F045FF02236370A023E37131
:102FD000FA232372029B0122DB196380019B627139
:102FE0002371104A009B27701670BB4205D1281C24
:102FF000211C1A1CFFF764FF11E00B4B01221A7011
:103000000A4B211C3A1C281C1E800296FFF758FF11
:10301000281C02A9FFF7F2FB281CFFF7B1FF0120D3
:1030200007B0F0BD3A0D0020380D00208E090020B9
:1030300070B5CE7892B0051C0C1C022E08D1C98840
:103040002D48FFF7ADFF031C581E8341D8B251E055
:1030500000F0F6F9211C00F0C2F9002803D0C317D4
:103060001B1AD80F46E0012E04D1E2882349112A09
:103070003BD837E0032E3DD1A278002A05D1204964
:10308000E2880B7893422DD82FE0022A03D1A2794F
:10309000281C1C4904E0012A05D1A2791A49281CE0
:1030A000FFF73AFF26E0032A24D1184B01A918683C
:1030B000FFF77CF9164B03A91868FFF777F9154B52
:1030C00005A91868FFF772F9134B07A91868FFF7ED
:1030D0006DF900F0B5F909A900F091F9A279281C61
:1030E00001A9DDE7D2B2002A00D10A78281CFFF737
:1030F000E7FE012012B070BD3B0D00205885000096
:10310000548500006A850000488500000CA08000FE
:1031100040A0800044A0800048A0800073B5051C3A
:1031200048780C1C0B2878D801F056FB081C77282F
:10313000773E4306474B686F00206FE0097801AA8D
:10314000002903D111705170281C09E0002313706D
:103150005370334B1B78012B00D11370281C0021B6
:1031600002234FE08A780023012A04D101AA1370B8
:1031700053702C4BEEE72A4A137049E08E78012EEB
:1031800007D1284B01AA00211E701170281C331C86
:1031900038E0002E08D1224A01231370224A916997
:1031A000890B8903916138E0A178281CFFF7EEFBB9
:1031B00033E0281CFFF73CFF30E0281C00211B4AAD
:1031C0001FE00A780020D30628D1281CFFF79EFCB8
:1031D000A2781549154B02241A600A682A23FF3386
:1031E000D05C2043D0544A20FF30145C01231C43A0
:1031F00014548A69920B92038A610EE00C4A281CCF
:1032000000210123FFF738FE07E08A78084B1A6097
:10321000054B9A69920B92039A61012076BDC046D4
:103220008C080020390D0020440D0020480E00209D
:103230003C0D0020F8B54B4B071C1C78002C00D02F
:103240008FE0494D2868838B19070ED5201C211C5F
:10325000FFF7D2F82B6810201A1CFF32917A014335
:103260009172424A146008229A832B689A8B500705
:103270001FD504229A833E4B1A78002A0AD01A7866
:10328000013AD2B21A701B78002B03D11A20012107
:10329000FEF756F9374B1A78002A0AD01A78013A05
:1032A000D2B21A701B78002B03D119200121FEF72E
:1032B00047F92B68FF331A7AD10626D510221A72E5
:1032C0005A7940210A432C495A710A786023381CE4
:1032D0001A4202D1FFF722FF01E0FFF77BFB002833
:1032E00006D02B688022FF33997952420A4301E0CD
:1032F000224B20229A712B68FF331A7A500604D58C
:1033000040221A72597A0A435A722968FE230E8C97
:1033100000241E40E1B2002E23D0321C01232241A2
:103320001A4216D0221C2868083252018218D0791D
:10333000184203D1D279DA401A4207D0104BA200CA
:10334000D058002809D003681B6898470123A34080
:103350009E430134092CDDD103E0381CFFF764FAE9
:10336000F4E7F8BD380D0020440D0020480E002081
:10337000580B0020400D00205C0B0020FF50004146
:103380001C0D002008B50248FFF754FF08BDC046D9
:103390003B0D0020014A024B1A607047005000416B
:1033A000440D002008B504F037FD08BD08B504F051
:1033B0003DFD08BD70B544680E1C0025002C09D0E9
:1033C0002368201C5B68311C9847002804DB2D18FB
:1033D000E468F3E7281C01E00120404270BD38B5E5
:1033E00044680D1C002C08D02368201C9B68291CF5
:1033F0009847002802D1E468F4E7201C38BD38B5AE
:1034000044680D1C002C07D02368201C291CDB6895
:103410009847E4682D18F5E72C7038BD38B5446836
:103420000D1C002C08D02368201C1B68291C984701
:10343000002803D1E468F4E7201C00E0012038BD37
:10344000064B0122196810B51140054805D1022428
:1034500004700424447041601A6010BD540E0020B2
:103460004C0E002008B5031C081C191C04F098FC25
:1034700008BD00000B1C011C021C30B519430220C2
:10348000002900D130BD802109068B4216D00D499C
:1034900004205C180C498C42F4D90C4D5C198C4208
:1034A000F0D90B4C590049080320A142EAD9074C36
:1034B0000020A142E6D150425041E3E7002AE1D08A
:1034C000EFE7C0460000F0FFFFFFDF7F0000F07F66
:1034D000FFFF0F0000000000F0B546464F46C0B4A5
:1034E0008FB0161C1F1C0090019100F0ADF9BC4A72
:1034F0000023D356041C0D1C9046029403950133FF
:1035000005D0301C391CFFF7B5FF002806D1029802
:1035100003990FB00CBC90469946F0BD00980199F4
:10352000FFF7A8FF8146002831D1301C391CA14B80
:103530009F4A01F01BFA0028E9D001230493A94B0C
:1035400004AC63604B462362009A019BA260E36077
:10355000994A9A4BA261E36142460023D356266101
:1035600067615A1C0ED0022B0CD0201C00F0EEFF1D
:10357000002800D17BE0236A002B03D004F020FC5C
:10358000236A0360A269E36902920393BFE700988C
:103590000199884B864A01F0E9F9002822D0301CB5
:1035A000391C844B824A01F0E1F9051E2CD001231D
:1035B00004938C4B04AC636000232362009A019B4C
:1035C000A260E3607B4B7A4AA261E361424600233A
:1035D000D35626616761002BC7D0774A774BA2612B
:1035E000E361CFE7201C291C00F0A8FF81460028DA
:1035F00042D0201C291C6F4B6D4A01F0B7F90028FE
:103600006CD10294039582E7301C391C00F096FFC0
:10361000002800D17BE7301C391C664B644A01F05E
:10362000ABF9002800D172E7012304936D4B04AC81
:103630006360009A019BA260E360434619782562AB
:1036400026616761002900D17AE05D4A5D4BA26185
:10365000E36102293CD104F0B3FB21230360236A18
:10366000002B8FD004F0ACFB226A02608AE704F0E2
:10367000A7FB212303607EE70098019900F05EFF1D
:103680000028B6D0301C391C00F058FF0028B0D0FC
:10369000201C291CFFF7EEFE04AC002855D10123A5
:1036A0000493504B20626360009A019BA260E36028
:1036B00043461D7826616761002D41D03D493C4855
:1036C000021C0B1C02F008FCA061E161022DC2D0BB
:1036D000201C00F03BFF0028C1D1BCE700980199F5
:1036E00000F02CFF02940395002800D10FE7301C56
:1036F000391C00F023FF02940395002800D106E74F
:1037000004AC0423049326616761364B6360002395
:103710002362009A019BA260E360264B244AA261C7
:10372000E36142460023D356022B04D0201C00F054
:103730000DFF002893D104F043FB222303608EE7A2
:103740001C4B1B4AA261E361C2E703230493254B90
:103750002661676163604B462362009A019BA26009
:10376000E36042460023D356002B3DD1164A174B47
:1037700000980199A261E3610E4B0D4A01F0FCF83B
:103780000028CED0124A134B301C391C03F00EF81F
:10379000061C0F1C00F0E4FE321C3B1C01F0E6F896
:1037A0000028BED10C4A0D4BA261E361B9E7C046C7
:1037B0000000000000000000000000000000F03FDA
:1037C000000000000000F0FF000000E0FFFFEF47F6
:1037D000000000000000E03F000000E0FFFFEFC736
:1037E0008C00002078850000104B0F4A009801994A
:1037F000A261E3610E4A0F4B01F0BEF8002890D0A1
:103800000D4A0E4B301C391C02F0D0FF061C0F1C59
:1038100000F0A6FE321C3B1C01F0A8F8002800D0E6
:103820007FE7074A074B7AE7000000000000F07FBF
:103830000000000000000000000000000000E03F69
:10384000000000000000F0FFF0B55F4656464D4610
:103850004446F0B499464B465C00934664088FB0EA
:103860000D1C0F1C5A46211C0090061C8246029318
:103870005846114337D0690049088846684904957D
:1038800088452BDC28D066498C4227DC00D180E0BB
:10389000002108910499002900DA7EE0002833D144
:1038A0005F4B9C4200D196E05E4B9C426AD00298EE
:1038B0008023DB05984201D100F0E1FB5A4B0299CD
:1038C000994221D1049A002A1EDB291C009800F09D
:1038D0004BFD061C0D1C08E0002ED4D0534A131CCF
:1038E000434433430AD14F4D0026301C291C0FB0EE
:1038F0003CBC90469946A246AB46F0BD4C4800F011
:1039000027FE061C0D1CF0E70098291C00F012FE93
:10391000534606908C46002B20D0FB0F013B0493AE
:10392000049E089B33436AD0424B9C4200DC8DE0EE
:10393000414B9C4201DC00F035FC404B984500DCDB
:1039400089E3029E002E00DC89E334493248021CE0
:103950000B1C02F02BFF061C0D1CC6E7404600287E
:1039600004D0304BBA0092089A42D6D1029C002C67
:1039700001DA00F0C4FB049E002E00DA73E3069E19
:103980006546B2E7029C002C01DA00F076FC009E4E
:10399000ABE7002800D17BE7A0E729498C422BDC6C
:1039A00026498C4200DC79E721158C4625498C4557
:1039B00001DC00F086FC244B61465B1A111CD940E7
:1039C0000A1C9A40824200D068E701220A40022382
:1039D0009B1A089362E7154A131C4344334300D1F2
:1039E00081E7164B984500DC7FE3029C002C00DA4F
:1039F00035E35E464D4678E7022108914EE7009890
:103A0000009A291C2B1C03F061F9021C0B1C02F00C
:103A100063FA061C0D1C68E79C7500883CE4377E41
:103A20000000F07F0000F03F0000E03F000010C009
:103A3000B08500000000E0410000F043FFFFEF3FD1
:103A4000FFFF3F431304000033040000E24A002359
:103A5000904509DC0698C54BC34A614602F0A6FEB4
:103A60003523069088465B424046DC4902155218D1
:103A7000D21892460303DA4DDA4A1B0B1D439342D8
:103A800001DC00F0F6FBD84A934201DC00F036FC82
:103A9000D64B01229244ED1800240021069A2B1CDB
:103AA00006920793C900D24B884643441868596868
:103AB0000A900B910A9A0B9B0698079903F006F956
:103AC0000A9A0B9B061C0F1C0698079901F0E8FE4A
:103AD000021C0B1CA648A74902F0FEF90C900D91A0
:103AE0000C9A0D9B301C391C02F060FE0290039171
:103AF0000B1C802189056D10802000220D430003DE
:103B0000009201939C4A9D4B29180B19009801992A
:103B1000141C1D1C02F04AFE021C0B1C301C391C1C
:103B200003F0D4F80A9A0B9B061C0F1C201C291CBE
:103B300003F0CCF8021C0B1C0698079903F0C6F89A
:103B4000021C0B1C0098019902F030FE021C0B1C99
:103B5000301C391C03F0BAF80C9A0D9B02F026FEBB
:103B60000690079102980399021C0B1C02F01EFE9E
:103B7000041C0D1C221C2B1C02F018FE804A814BD9
:103B8000061C0F1C201C291C02F010FE7E4A7F4BD5
:103B900001F086FE221C2B1C02F008FE7C4A7D4BA5
:103BA00001F07EFE221C2B1C02F000FE7A4A7B4BA9
:103BB00001F076FE221C2B1C02F0F8FD784A794BAE
:103BC00001F06EFE221C2B1C02F0F0FD764A774BB2
:103BD00001F066FE021C0B1C301C391C02F0E6FDD5
:103BE000029A039B041C0D1C0098019901F058FED9
:103BF000069A079B02F0DAFD221C2B1C01F050FEF6
:103C0000061C0F1C00980199021C0B1C02F0CEFD33
:103C1000674A684B0A900B9101F042FE321C3B1C34
:103C200001F03EFE00240D1C221C009801992B1C63
:103C300002F0BCFD221C2B1C0090019106980799F4
:103C400002F0B4FD5A4A5B4B06900791201C291CD8
:103C500003F03CF80A9A0B9B03F038F8021C0B1C8B
:103C6000301C391C03F032F8029A039B02F09EFDCF
:103C7000021C0B1C0698079901F012FE061C0F1C73
:103C8000321C3B1C0098019901F00AFE4A4A4B4B3A
:103C90000024201C0D1C02F089FD494A494B069066
:103CA0000791201C291C02F081FD009A019B0290C3
:103CB0000391201C291C03F009F8021C0B1C301C6A
:103CC000391C03F003F8404A404B02F06FFD021C20
:103CD0000B1C0298039901F0E3FD464B43441A681C
:103CE0005B6801F0DDFD061C50460F1C03F04CFB29
:103CF0000D1C4149041C41440A684B680698079909
:103D000002920393321C3B1C01F0CAFD029A039BF2
:103D100001F0C6FD221C2B1C01F0C2FD00220B1C71
:103D200000920193101C2B1C221C02F0CFFF029A60
:103D3000039B02F0CBFF069A079B02F0C7FF021C11
:103D40000B1C301C391C02F0C1FF02900391089B30
:103D5000049C013B234300D0C2E11D481D4904904F
:103D600005914BE0C046C046000000000000404303
:103D7000000000000000F03F000000000000000014
:103D8000EF4E454A287ECA3F65DBC9934A86CD3F40
:103D900001411DA96074D13F4D268F515555D53F26
:103DA000FFAB6FDBB66DDB3F033333333333E33FBE
:103DB0000000000000000840000000E009C7EE3FDE
:103DC000F5015B14E02F3EBEFD033ADC09C7EE3F70
:103DD000000000000000F0BFFFFF0F0001FCFFFF2C
:103DE0000000F03F8E98030079B60B000000F0FF52
:103DF000A085000090850000808500000026321C10
:103E00004B465846494602F061FF009A019B02F07A
:103E1000CDFC029A039B041C0D1C5846494602F037
:103E2000C5FC021C0B1C201C291C01F039FD009A4A
:103E3000019B02900391301C494602F0B7FC0090B0
:103E40000191009A019B0298039901F029FDCC4B46
:103E5000041C0D1C0F1C8846994200DC19E1C94A5C
:103E60008B18034300D012E2AC4BAB4A0298039983
:103E700001F016FD009A019B08900991201C291C55
:103E800002F024FF021C0B1C0898099900F088FD21
:103E9000A946002800D0FAE14A46BB4B8024111500
:103EA0006403C918201C0841C11948009C4A9D4B55
:103EB0000B1C0903B54E090B400D0C43B449851981
:103EC000B44E081A04412E414046B343A14600288F
:103ED00000DA1EE20098019902F0F8FE00900191CC
:103EE000009A019B0298039901F0DAFC4A461205F8
:103EF00090460024201C8C4A8C4B0D1C0F1C02F099
:103F000055FC009A019B08900991201C291C02F085
:103F1000DDFE021C0B1C0298039902F0D7FE844AB6
:103F2000844B02F043FC844A844B261C0D1C041C69
:103F3000391C301C02F03AFC021C0B1C201C291CF2
:103F400001F0AEFC041C0D1C221C2B1C08980999C6
:103F500001F0A6FC089A099B061C0F1C02F0B6FE95
:103F6000021C0B1C201C291C02F0B0FE321C00900D
:103F700001913B1C301C391C02F018FC704A714B3B
:103F8000041C0D1C02F012FC6F4A704B02F09EFEE6
:103F9000221C2B1C02F00AFC6D4A6E4B01F080FCC7
:103FA000221C2B1C02F002FC6B4A6C4B02F08EFEB2
:103FB000221C2B1C02F0FAFB694A6A4B01F070FCD0
:103FC000221C2B1C02F0F2FB021C0B1C301C391CA7
:103FD00002F07CFE041C0D1C221C2B1C301C391C06
:103FE00002F0E4FB604A614B02900391201C291C03
:103FF00002F06CFE021C0B1C0298039901F06CFF8E
:10400000009A019B041C0D1C301C391C02F0CEFBD5
:10401000009A019B01F044FC021C0B1C201C291C73
:1040200002F054FE321C3B1C02F050FE0B1C021C22
:104030004F48504902F04AFE464673181C15002CA2
:1040400000DC60E1021C0498059902F0AFFB061C3D
:104050000D1CFFF74AFC029C002C00DA75E40026D8
:104060000025FFF742FC4C48089C031C43442343B3
:1040700000D01AE106986146069A6346C3E4291CFB
:104080002B1C0098009A02F091FB061C0D1CFFF7F8
:104090002CFC4B005B089946404B994500DC25E120
:1040A0003F480B1823430DD1009A019B201C02F0BE
:1040B0000DFE021C0B1C0298039900F067FC0028FF
:1040C00000D1E9E62C4A2D4B0498059902F06EFBCD
:1040D000294A2A4B02F06AFB061C0D1CFFF705FC5F
:1040E0002349244A0491059288E6029E002EB6DAFE
:1040F00080200006051C5E464D44FFF7F6FB069A3D
:1041000063461B481B4901F0E7FE06908C46FFF70B
:1041100032FCC046C046C046FE822B654715973C20
:10412000000000000000000000000000432EE63FF9
:10413000EF39FAFE422EE63F396CA80C615C20BED6
:10414000D0A4BE726937663EF16BD2C541BDBB3E9D
:104150002CDE25AF6A56113F93BDBE166CC1663F7B
:104160003E5555555555C53F000000000000004024
:10417000000000000000F03F59F3F8C21F6EA501D7
:10418000FFFF8F40000070BF02FCFFFF01FCFFFF3C
:1041900013040000FFFF0F00000010C0FFCB904091
:1041A00000346F3F6C4B984500DC54E76B4B9845EF
:1041B00001DDFFF7C6FB6146584B574A069802F0EF
:1041C00085FD574A574B041C0D1C02F0EFFA564A66
:1041D000564B061C0F1C201C291C02F0E7FA221C5F
:1041E000009001912B1C201C291C02F0DFFA504A80
:1041F000504B02900391201C291C02F0D7FA021C9C
:104200000B1C4D484D4902F061FD221C2B1C02F095
:10421000CDFA021C0B1C4A484A4902F057FD021C09
:104220000B1C0298039902F0C1FA474A474B02F06F
:10423000BDFA021C0B1C0098019902F047FD041CFA
:104240000D1C221C2B1C301C391C01F029FB0022E8
:104250000B1C00920193101C3B1C321C02F036FD1B
:10426000021C0B1C201C291C02F030FD0290039143
:104270006DE500240021FFF711FC2B1C274926487F
:10428000009A01F029FE061C0D1CFFF72EFB304A98
:10429000304B0498059902F089FA2D4A2D4B02F013
:1042A00085FA061C0D1CFFF720FB089E012E01D08D
:1042B000FFF765FB80200006051C069E6544FFF79E
:1042C00014FB002801D0FFF71FFB6346C91A221C0C
:1042D0000A41101C8840A04201D0FFF7E5FA0123F3
:1042E0001A4002239B1A0893FFF7DEFA1C4B9945EC
:1042F00000DDD1E5002398469946FAE58024E402E2
:104300000121FFF7CBFB4A4600F0D6F9021C0B1C3B
:1043100099E66442A146DDE5000000000000F03FA0
:10432000000000604715F73F44DF5DF80BAE543ED8
:10433000000000000000D03F555555555555D53F5C
:10434000000000000000E03FFE822B654715F73FAC
:104350009C7500883CE4377EFEFFEF3F0000F03F95
:104360000000E03FC046C046F0B55F4656464D46A9
:104370004446F0B46C4E0D1C371C83B0041C021C68
:104380000B1C2F40B74200D1ADE0002900DC8BE0D0
:104390002F1500D194E0654D09038023090B5B03C1
:1043A0007F190B43FE0700D570E07F10C20FB8469F
:1043B0005B00002780219B181624420000970020F4
:1043C000890345189D4204DC68185B1B009D6D182D
:1043D0000095D50F5B00013C5B1952004908002C89
:1043E000EFD180210026090620250196B446894692
:1043F00009E0834246D0D40F5B00013D1B195200F7
:104400004908002D1CD066468C198342F1DD6718DF
:10441000E60FBC46F60782464E452CD01B1AA24238
:1044200080414042019F1B1A121B7F18D40F5B0072
:10443000013D019750461B1952004908002DE2D159
:10444000134328D101984308009D394E6A109219F0
:10445000ED0702D5802109060B4340460705B91830
:104460001C1C0D1C201C291C03B03CBC904699460A
:10447000A246AB46F0BDFF0FFF077E427E41B2462B
:104480008244CBE79442C2D9181CB4E7C20F5B0048
:104490009B18400089E7019901312FD0019C01232D
:1044A00023401B195B08CFE76B005B081A43D9D088
:1044B000002700292BD1C10A153F40050029FAD059
:1044C0008022520311421ED10023490001331142C0
:1044D000FBD001242022E41AD21A3F19041CD44034
:1044E0002143984057E7201C291C02F05FF9221C49
:1044F0002B1C01F0D5F9041C0D1CB3E7009A002316
:1045000001320092A0E7202201240023E5E7221CCB
:104510002B1C201C291C02F0D9FB021C0B1C01F0D7
:10452000DBFC041C0D1C9DE70000F07F01FCFFFF7D
:104530000000E03F4B0059087047C0464800024B5E
:104540004008C018C00F704700001080002070475E
:10455000024901487047C046000000000000F87F93
:10456000F0B546464F46C0B4CA0F90464B004D4A80
:104570005B0D9E1883B0041C0D1C8C46071C132E6B
:104580003BDC002E5CDB484F021C37413B1C0B40E0
:104590000343994648460B1C002827D07B081A1C69
:1045A0000A4022430027002A0AD0132E00D176E0C9
:1045B000291C80229943D2020B1C324113439C4692
:1045C0004046C1003948634641180C684D683A1CA2
:1045D000201C291C01F064F90090019100980199B8
:1045E000221C2B1C02F072FB021C0B1C101C191C41
:1045F00003B00CBC90469946F0BD332E0BDD0B1C6E
:104600008021021CC9008E42F0D1291C01F048F91A
:10461000021C0B1CEAE7264A0126D2187642D64035
:1046200091460B1C021C0642E0D076080642C7D019
:104630008023B443DB0548460341271C1F43BFE7E3
:104640004E0076080643021C0B1C002ECED0090338
:10465000090B01434842014380200003090B01403C
:10466000680C40040B1C03434046C1000F4841182E
:104670000C684D68291C201C01F012F90090019172
:10468000009801992B1C221C02F020FB0D1C4146B6
:10469000021CC80769004908031C0B43A6E78027D2
:1046A0003F0685E701FCFFFFFFFF0F00B885000014
:1046B000EDFBFFFF00000000F8B53D4E171C331C5A
:1046C0000B40041C0D1C0A1C1B1525D14B005B085C
:1046D00018431ED0201C291C2E4B2D4A02F066F8D0
:1046E000344B041C0D1C9F4231DB0E4033150A1C59
:1046F000363B3149DB198B4215DD221C2B1C264829
:10470000264900F061F8244A244B02F04FF8041CBB
:104710000D1C291C201CF8BD28498B421ED026499F
:10472000DB198B42E9DC002B05DD25491B050A401E
:104730001D1C1543EDE7191C353118DA214B9F423A
:10474000DBDC17481749221C2B1C00F03DF8144AEB
:10475000144B02F02BF8041C0D1CDAE7201C291C5A
:10476000221C2B1C01F09CF8041C0D1CD1E71449E1
:1047700036331B050A401D1C1543201C291C0A4A00
:104780000A4B02F013F8041C0D1CC2E7C046C046D9
:1047900000000000000050439C7500883CE4377E18
:1047A00059F3F8C21F6EA501000000000000903C04
:1047B0000000F07FB03CFFFFFE070000FF07000095
:1047C000FFFF0F8050C3000030B5DA0FD2074B0057
:1047D0005B08111C194330BD02B4714649084900F9
:1047E000095C49008E4402BC7047C046002934D0A1
:1047F0000123002210B488422CD301242407A142B3
:1048000004D2814202D209011B01F8E7E400A1426F
:1048100004D2814202D249005B00F8E7884201D30A
:10482000401A1A434C08A04202D3001B5C082243E2
:104830008C08A04202D3001B9C082243CC08A04253
:1048400002D3001BDC082243002803D01B0901D03F
:104850000909E3E7101C10BC7047002801D00020B4
:10486000C04307B4024802A14018029003BDC046ED
:10487000D90000000029F0D003B5FFF7B9FF0EBC46
:104880004243891A1847C046002941D010B4041C7D
:104890004C40A44601230022002900D549420028AB
:1048A00000D5404288422CD301242407A14204D2DF
:1048B000814202D209011B01F8E7E400A14204D2BF
:1048C000814202D249005B00F8E7884201D3401AD6
:1048D0001A434C08A04202D3001B5C0822438C08F8
:1048E000A04202D3001B9C082243CC08A04202D362
:1048F000001BDC082243002803D01B0901D0090952
:10490000E3E7101C6446002C00D5404210BC704701
:10491000002806D003DB0020C043400801E08020CF
:10492000000607B4024802A14018029003BDC04629
:10493000190000000029EBD003B5FFF7A7FF0EBC5C
:104940004243891A1847C0467047C0468446101C27
:1049500062468C46191C634600E0C0461FB501F054
:10496000A7FE002801D40021C8421FBD10B501F0E8
:10497000D7FD4042013010BD10B501F099FE00286E
:1049800001DB002010BD012010BDC04610B501F0B4
:104990008FFE002801DD002010BD012010BDC046A3
:1049A00010B501F007FE002801DC002010BD012039
:1049B00010BDC04610B501F0FDFD002801DA002051
:1049C00010BD012010BDC0468446081C6146FFE7AB
:1049D0001FB500F003FC002801D40021C8421FBD10
:1049E00010B500F089FB4042013010BD10B500F059
:1049F000F5FB002801DB002010BD012010BDC046E2
:104A000010B500F0EBFB002801DD002010BD0120F7
:104A100010BDC04610B500F099FB002801DC002055
:104A200010BD012010BDC04610B500F08FFB00285E
:104A300001DA002010BD012010BDC046002B15D1A9
:104A4000002A13D1002900D1002807D003DB002061
:104A5000C043410802E080210906002007B4024853
:104A600001A14018029003BDE1FEFFFF03B46846B8
:104A700001B5029800F080F8019B9E4602B00CBC84
:104A80007047C0469C460304F0B51B0C17043F0C4E
:104A9000150C1E1C041C000C7E436B43474345430E
:104AA000FB18300C1818874202D980235B02ED18DE
:104AB000030CED1863465C434A433604360CA118D8
:104AC000000480194919F0BD38B50E4B0C4A041C7E
:104AD0000D1CFFF76FFF002804D1201C291C02F0D9
:104AE0001FFC38BD074B064A201C291C02F0EEF8BB
:104AF00002F016FC80231B06C018F2E7C046C04631
:104B0000000000000000E04170B5164D144C021C7E
:104B1000061C0B1C1648A4185D41854219D9520584
:104B200004D0F60AF302802636011E43081C02F068
:104B30002BFC0D4A0D4B01F039FE0D1C041C301CE2
:104B400002F060FC2B1C221C00F0AAFE02F0E0FC2C
:104B500070BD8542EAD1A01CE1D8E7E7C046C04657
:104B6000FFFFFFFFFFFF1F00000000000000F041FB
:104B7000FFFF3F00C046C046F0B583B0161C1F1CA7
:104B80000090019102F06EFD041C0D1C221C2B1CD8
:104B9000301C391CFFF776FF009A019B121A8B41DB
:104BA0000899201C0A604B60291C03B0F0BDC04668
:104BB000F0B583B0141C1D1C0090019102F02EFF73
:104BC000221C2B1C061C0F1CFFF75CFF009A019B8C
:104BD000121A8B410899301C0A604B60391C03B0D3
:104BE000F0BDC046F8B543024400C50F4E02480070
:104BF000240E2A1C9B09000EC90FB6098D4256D0FF
:104C0000221A002A00DC83E000281AD1002E00D0EE
:104C10006FE0580704D00F221A40042A00D0043352
:104C2000590137D50134FF2C00D17DE09B015B0A8F
:104C3000E0B22A1C5B02C405580AD2072043104385
:104C4000F8BDFF2CE5D08021C9040E431B2A00DDEE
:104C500027E1311C2020D140821A9640721E9641D5
:104C60000E439B1B5801D4D59B019F09381C02F0B1
:104C7000DBFC421F974094425ADC141B1F231B1B72
:104C80003A1C9F40611C3B1CCA405F1EBB41134342
:104C90000024BEE7DB08E0B22A1CFF2C04D1002B65
:104CA00079D08021C9030B435B025B0AC2E7211A5A
:104CB000002941DD002822D0FF2CAAD08020C0048A
:104CC00006431B2900DDEAE0301C2027C840791A82
:104CD0008E40711E8E4106439B19590199D50134AE
:104CE000FF2C57D0704901221A400B405B08134338
:104CF0008FE7013A002AB4D0FF2CA7D189E7002E14
:104D000000D186E701390029E6D0FF2CD9D180E710
:104D1000002A1DD1621CD2B2012A4DDD9F1B7A01EF
:104D200025D5F71A0D1CA1E72A1CFF20002381E7D7
:104D30005D4BA41A3B406CE7002946D1611CC8B208
:104D400001282ADDFF2925D0F3185B080C1C60E739
:104D5000002C13D0FF2818D08024E40452422343AF
:104D60001B2A4DDD0123F31A041C0D1C7AE7002FCA
:104D700000D07BE700220020002395E7002B3BD0EA
:104D8000D243002AEFD0FF28EAD1331CFF240D1CA8
:104D90003FE70022FF2000234CE7002C5AD1002BD4
:104DA00077D0002E00D134E79B19580100D430E7AA
:104DB0003D4A012413402CE7002C15D1002B2FD1A4
:104DC000002ED7D0331C0D1C23E7002C21D1002B43
:104DD00053D0C943002904D0FF284BD01B294FDDF5
:104DE00001239B19041C78E7002B22D1002ED0D080
:104DF000331C0D1CFF240CE7331C041C0D1C08E79E
:104E00001C1C2025D440AA1A93405A1E93412343C8
:104E1000A9E7FF282ED08024E40449422343DDE79C
:104E2000002E00D1F5E69A1B500134D5F31A0D1C63
:104E3000EFE6FF24002E00D1EBE68022DB08D20350
:104E4000134204D0F608164201D1331C0D1CDB00BE
:104E5000FF24DEE6002B0DD0FF24002E00D1D8E683
:104E60008022DB08D2031342F1D0F6081642EED1BD
:104E7000331CECE7331CFF24CBE6331C041CC8E6D0
:104E80001C1C2027CC40791A8B40591E8B41234390
:104E9000A7E7331CBDE6131E00D0BAE66AE7012679
:104EA0001AE70126DDE6C046FFFFFFFBF0B55F46CF
:104EB00056464D464446F0B446024500C00F85B004
:104EC0000F1C760A2D0E804641D0FF2D26D080245F
:104ED000240400212643F6007F3D89468B46F90FC6
:104EE0007C027800640A000E00918A463CD0FF28BC
:104EF00034D080231B041C430023E4007F3801933B
:104F0000009F4346019A7B4049469C4611430F2926
:104F100000D971E0764F89007F58BF46002E3ED100
:104F20000822022391469B46D9E75A46341CC246C2
:104F300001920199022937D0032900D1CFE001293C
:104F400000D0ABE053460B400022002632E0002E9A
:104F500019D10421012289469346C0E7221C531E21
:104F60009A4102320192CBE701270197002CC7D06A
:104F7000201C02F059FB431F9C4076235B4200211A
:104F8000181A0191BCE7301C02F04EFB7625431F36
:104F90009E406D4200232D1A99469B469FE70C23A5
:104FA000032199468B469AE7D446012367463B4046
:104FB000FF2200267602D205700ADB071043184351
:104FC00005B03CBC90469946A246AB46F0BD802653
:104FD0000023F603FF22EDE700220026EAE7802007
:104FE000C00306423BD0044239D1061C2643760258
:104FF000760A009BFF22DDE7281A03907601640100
:10500000A64239D3361B1A2201230120311C5B0032
:105010007600002901DBB44201D8361B0343013A74
:10502000002AF3DC741EA641341C1C43039A7F3211
:10503000002A27DD630704D00F232340042B00D070
:105040000434270103D52B4B039A1C408032FE2ADF
:105050000BDD012361460B40FF220026AAE7064331
:105060007602760A4346FF22A4E7A401012367469D
:10507000660AD2B23B409DE7039F1B22013F039784
:105080000023C2E77E23039F5B42DB1B1B2B07DD54
:10509000012361460B40002200268BE7D446C5E77A
:1050A000221CDA40039B9E339C40231C5C1EA341C0
:1050B00013435A0704D00F221A40042A00D00433A5
:1050C0005F0105D5012361460B400122002671E7EF
:1050D0009E01624601231340760A00226AE7802679
:1050E000F60326437602760A5346FF2262E7C0465D
:1050F000C8850000FFFFFFF74A02430270B55C0A53
:10510000550A43004A001B0EC60F120EC90FFF2B93
:1051100005D0FF2A08D0012093420BD070BD01209A
:10512000002CFBD1FF2AF6D10120002DF6D1012061
:105130009342F3D1AC42F1D18E4205D0002BEDD198
:10514000201C441EA041E9E70020E7E74A02430291
:10515000F0B55C0A550A43004A001B0EC60F120E3A
:10516000C90FFF2B31D0FF2A34D0002B16D160425B
:1051700060418446002A14D0002820D18E4217D1E5
:10518000934215DC04DBAC4212D80020AC4212D2B0
:10519000704270414042012318430CE0002AEDD1D7
:1051A00094466F426F416046002805D1002FE5D03C
:1051B000704201231843F0BD0020002FFBD148426C
:1051C0004841404201231843F5E7002CCBD0022090
:1051D0004042F0E7002DC8D0F9E7C0464A0243023A
:1051E000F0B55C0A550A43004A001B0EC60F120EAA
:1051F000C90FFF2B27D0FF2A29D0002B10D0002A5F
:1052000015D194466F426F416046002815D00020AA
:10521000002F04D148424841404201231843F0BDC9
:10522000604260418446002AECD00028F2D18E42D0
:1052300011D0704201231843F1E7002FF7D07042DC
:1052400001231843EBE70220002CE8D1D3E702202A
:10525000002DE4D1D1E79342EBDC04DBAC42E8D88B
:105260000020AC42DBD2704270414042012318431F
:10527000D5E7C046F0B55F4656464D464446F0B4C5
:105280004402460083B00F1C640A360EC50F002E80
:1052900041D0FF2E22D080231B0400201C43E400B9
:1052A0007F3E82468046391C4B007F02C90F7F0A31
:1052B0001B0E8B463BD0FF2B34D0802212041743A9
:1052C000FF007F3B00215A466A40019252460A4342
:1052D0000F2A63D87A48920082589746002C3FD113
:1052E0000822022392469846DDE7019540460228AF
:1052F0002AD1019A01251540FF2300246402DB0511
:10530000600AED071843284303B03CBC9046994619
:10531000A246AB46F0BD002C27D1042001228246D4
:105320009046C0E7391C4A1E91410231CBE701216A
:10533000002FC8D0381C02F077F9431F9F40762316
:105340005B421B1A0021BEE7032800D1AEE0012812
:105350004FD1019842461040C5B200230024CDE74A
:105360000C2303209A4680469DE7201C02F05CF93E
:105370007626431F9C4076420023361A9A4698466A
:1053800091E780240025E403FF23B7E75B463C1C3C
:1053900001938846AAE73C1C8846A7E7250C24040D
:1053A0003A0C240C3F04F6183F0C211C231C7943B3
:1053B00053436F435543FB180A0C9B18B1469F4259
:1053C00002D980225202AD1809041A04090C52189D
:1053D00094011B0C611E8C41920EED181443AD011B
:1053E0002C43230105D50122630801201440814488
:1053F0001C434B467F33002B2DDD600704D00F226A
:105400002240042A00D00434220103D52D4B1C4035
:105410004B468033FE2B17DD019B01251D400024E8
:10542000FF236BE78020C003044208D0074206D167
:10543000041C3C436402640A5D46FF235EE70443A8
:105440006402640AFF2359E70198A4010125640A54
:10545000DBB2054052E77E235B424A469B1A1B2B78
:1054600005DD019B01251D400024002346E7221C89
:10547000DA404B469E339C40231C5C1EA3411343E1
:10548000580704D00F221A40042A00D004335A01CE
:1054900005D5019B01251D40002401232EE701981D
:1054A0009C010125640A0540002327E78027FF03AC
:1054B000019B3C43640201251D40640AFF231DE754
:1054C00008860000FFFFFFF7F8B5C20F4302440053
:1054D0004D024800240E161C9B09000EC90FAD0991
:1054E000FF2800D17EE0012779408A4258D0221A55
:1054F000002A00DC89E000281BD1002D00D075E0D7
:10550000580704D00F221A40042A00D0043359014E
:1055100038D50134FF2C00D183E09B0101225B0AC6
:10552000E0B232405B02C405580AD2072043104360
:10553000F8BDFF2CE4D08021C9040D431B2A00DDF7
:105540002DE1291C2020D140821A95406A1E9541E8
:105550000D435B1B5801D3D59B019F09381C02F0FA
:1055600063F8421F9740944260DC141B1F231B1BEF
:105570003A1C9F40611C3B1CCA405F1EBB41134349
:105580000024BDE70122DB08E0B23240FF2C04D149
:10559000002B7ED08021C9030B435B025B0AC1E76D
:1055A000211A002946DD002826D0FF2CA8D0802013
:1055B000C00405431B2900DDEFE0281C2027C8405C
:1055C000791A8D40691E8D4105435B19590197D5A4
:1055D0000134FF2C5CD0734901221A400B405B0858
:1055E00013438DE7002D00D07FE77CE7013A002AC6
:1055F000AFD0FF2CA2D183E7002D00D180E7013985
:105600000029E2D0FF2CD5D17AE7002A1ED1621CF6
:10561000D2B2012A4EDD5F1B7A0126D5EF1A0E1C8D
:105620009CE701223240FF2000237BE75D4BA41A58
:105630003B4065E7002946D1611CC8B201282ADD3C
:10564000FF2925D0EB185B080C1C59E7002C13D060
:10565000FF2818D08024E404524223431B2A4DDD46
:105660000123EB1A041C0E1C74E7002F00D075E711
:1056700000220020002390E7002B3BD0D243002AD9
:10568000EFD0FF28EAD12B1CFF240E1C38E70022A4
:10569000FF20002346E7002C5AD1002B77D0002DA5
:1056A00000D12DE75B19580100D429E73D4A0124B8
:1056B000134025E7002C15D1002B2FD1002DD7D07A
:1056C0002B1C0E1C1CE7002C21D1002B53D0C943EE
:1056D000002904D0FF284BD01B294FDD01235B1983
:1056E000041C73E7002B22D1002DD0D02B1C0E1CE4
:1056F000FF2405E72B1C041C0E1C01E71C1C2026A4
:10570000D440B21A93405A1E93412343A9E7FF287D
:105710002ED08024E40449422343DDE7002D00D14C
:10572000EEE65A1B500134D5EB1A0E1CE8E6FF24B6
:10573000002D00D1E4E68022DB08D203134204D01E
:10574000ED08154201D12B1C0E1CDB00FF24D7E60F
:10575000002B0DD0FF24002D00D1D1E68022DB08E4
:10576000D2031342F1D0ED081542EED12B1CECE729
:105770002B1CFF24C4E62B1C041CC1E61C1C202788
:10578000CC40791A8B40591E8B412343A7E72B1C31
:10579000B6E6131E00D0B3E66AE7012515E701253A
:1057A000D7E6C046FFFFFFFB4302590A4300C20F82
:1057B0001B0E00207E2B0DDD9D2B0CDC80200004B9
:1057C0000143952B0ADC9620C31AD9404842002A8F
:1057D00000D1081C7047034BD018FBE7963B99405B
:1057E000F4E7C046FFFFFF7F70B5041E3CD0C60F34
:1057F00000D04442201C01F017FF9E23251C1B1AD9
:10580000962B0CDC083884406402640ADBB2321C3C
:105810006402DB05600AD2071843104370BD992B60
:105820000ADD0522121A211CD1400A1C011C1B3161
:105830008D40691E8D411543052801DD421F9540AD
:10584000164C2C406A0704D00F221540042D00D0BE
:10585000043461010CD59F23181AFF281AD0A40123
:10586000640AC3B2321CD3E7002200230024CFE72E
:10587000E408FF2B04D06402640ADBB2321CC7E7E1
:10588000002C04D08020C00304436402640A321C4C
:10589000FF23BDE7321CFF230024B9E7FFFFFFFB16
:1058A000F8B55F46564644464D46F0B40C034D00ED
:1058B000CE0F610A440F2143C400180380465800EC
:1058C000400D8246D80F84464046400A530F03439A
:1058D000D0006D0D371C83465246664500D19DE0D1
:1058E000AF1A002F00DC03E1002A38D1184300D0A2
:1058F000E4E0630709D00F232340042B05D0231DC8
:10590000A342A441644209191C1C080200D478E097
:10591000CE4B6A1C9A4200D105E1CD4BE4081940F8
:1059200048075205490204430B0B520D371C002057
:1059300000211B03201C1C0B0B0D1B05C54D234315
:10594000520552081D4015436D006D08FF07291CC4
:1059500039433CBC90469946A246AB46F8BDBB488D
:105960008542C6D0802000040343382F00DDECE0E0
:105970001F2F00DD20E12020C01B1A1C8146824021
:105980005846F8400243944658464A469040421EC4
:105990009041FB40624602431F1CA21A9442A4415C
:1059A0006442C91B091B141C0B02A2D549024F0AF1
:1059B000002F00D1C4E0381C01F036FE021C083A6A
:1059C0001F2A00DDB7E02821091A201C9740C84093
:1059D00007439440954200DDA9E0551B691C1F292F
:1059E00000DDD8E01F22551B3B1C221CAB40CA40E7
:1059F000AC40651EAC411343CF401C43391C00250D
:105A000077E74807E4086A05C908520D371C0443C4
:105A10008E4B9D4248D009030B0B88E7AA1A944687
:105A2000002A00DC98E05046002853D08748854281
:105A300000D15EE78020000403436246382A00DD7F
:105A4000FDE01F2A00DD4BE120226046101A1A1CDF
:105A500082408246914658466246D0404A460243BA
:105A60009046584652469040421E9041424602435C
:105A70006046C3401219A242A44164425918091950
:105A8000141C080200D434E7704B01359D4200D14C
:105A900024E16F4B60081940012323401C1C044380
:105AA000CB071C43490824E70B1C234300D1C7E163
:105AB00080231B030B431B031B0B38E7013F002F05
:105AC00064D15846221A9442A4416442C91A091B5F
:105AD000141C69E75846184300D10AE701225242D4
